:100000000C9409010C9431010C9431010C943101D0
:100010000C9431010C9431010C9431010C94310198
:100020000C9431010C9431010C94B9200C942821CA
:100030000C9431010C9431010C9431010C94310178
:100040000C9431010C9431010C9431010C94310168
:100050000C9431010C9431010C9431010C946F20FB
:100060000C9431010C9431010C9431010C94310148
:100070000C9431010C9431010C9431010C94310138
:100080000C9431010C9431010C9431010C94310128
:100090000C945A230C9431010C9431010C943101CD
:1000A0000C9431010C9431010C943101CDCCCC3D38
:1000B0000AD7233C17B7D13877CC2B329595E62455
:1000C0001FB14F0A000020410000C84200401C46FA
:1000D00020BCBE4CCA1B0E5AAEC59D74005EBCE26D
:1000E000613FDD83C29C7E20A3FD1F41009D23BE96
:1000F00046DB65F88C11AF32CA57E9741F1C1F1E0E
:100100001F1E1F1F1E1F1E080B00020202000009F7
:100110000400000102020000052400100105240172
:1001200001010424020605240600010705810310CD
:10013000004009040100020A000000070502024015
:1001400000000705830240000004030904120100B7
:1001500002EF020140412336800001010203014108
:10016000726475696E6F204C4C430041726475690E
:100170006E6F204C656F6E6172646F00000000004E
:100180002300260029002C002F000706050401008B
:10019000080A0B0C0D0900000000240027002A00AB
:1001A0002D00300000000000250028002B002E004C
:1001B00031000404040404030405020202020403DF
:1001C00002020202060606060606040402020204F1
:1001D0000404080201104080401020408040800844
:1001E00002040180402010020110801020404020B5
:1001F0000000000200090F0000030401000C0000D1
:1002000000000000000000000000000000000000EE
:10021000912611241FBECFEFDAE0DEBFCDBF13E081
:10022000A0E0B1E0E8EAFCE602C005900D92A63F2E
:10023000B107D9F727E0A6EFB3E001C01D92AB37B5
:10024000B207E1F711E0C9E0D1E004C02197FE0157
:100250000E949D31C830D107C9F70E94C2260C9474
:1002600052360C940000E9E6F5E080819181938399
:1002700082838681978195838483108685858078A3
:100280008587089508950895FC018091940488233A
:1002900011F13FB7F89482E08093E9002091F200D9
:1002A000822F90E01816190614F481E090E088235C
:1002B00039F0289844E6409393044091F10040833C
:1002C000222339F02091F200211103C02BE6209364
:1002D000E8003FBF08958FEF9FEF08952FB7F89480
:1002E00083E08093E9009091E800892F807295FF68
:1002F00004C09091F20080E4891B2FBF0895809183
:100300008B0481110DC082E08093870484E0809388
:10031000880410928A041092890481E080938B04EF
:1003200087E894E00895282F30E0F901E051FE4F6E
:100330009491F901EF52FE4F84912E543E4FF901F2
:100340002491222309F430C09923E9F091509F3081
:10035000D0F4E92FF0E0E155FE4F0C949D31DD0122
:10036000E101BE01D501D901C301C301C301E4010B
:10037000EA01EE01F201F801C301FC019091800055
:100380009F7790938000E22FF0E0EE0FFF1FEC5577
:10039000FE4FA591B4919FB7F894EC91611132C0D2
:1003A00080958E238C939FBF0895909180009F7DB0
:1003B000E8CF90918000977FE4CF94B59F7794BD6C
:1003C000E2CF94B59F7DFBCF909190009F77909363
:1003D0009000D9CF909190009F7DF9CF909190009F
:1003E000977FF5CF9091C0009F779093C000CBCFBF
:1003F0009091C0009F7DF9CF9091C200977F90931C
:10040000C200C1CF8E2BCECFCF93DF9390E0FC0103
:10041000EF52FE4F24918E549E4FFC01849188230D
:10042000D1F090E0880F991FFC01EA56FE4FA5918C
:10043000B491FC01EC55FE4FC591D49161110EC0F1
:100440009FB7F8948C91E22FE0958E238C932881AE
:10045000E223E8839FBFDF91CF9108958FB7F8948F
:10046000EC91E22BEC938FBFF6CF823108F08251F2
:10047000E82FF0E0E657FE4FE49190917B008E2F3D
:10048000880F880F80729F7D892B80937B00E77097
:10049000E064E0937C0080917A00806480937A002D
:1004A00080917A0086FDFCCF809178009091790050
:1004B00008953FB7F8948091830490918404A091AB
:1004C0008504B091860426B5A89B05C02F3F19F07E
:1004D0000196A11DB11D3FBFBA2FA92F982F8827C4
:1004E000BC01CD01620F711D811D911D42E0660F9F
:1004F000771F881F991F4A95D1F708958F929F9271
:10050000AF92BF92CF92DF92EF92FF926B017C018C
:100510000E9459024B015C01C114D104E104F104B1
:10052000B9F00E945902681979098A099B09683E45
:1005300073408105910580F321E0C21AD108E108DA
:10054000F10888EE880E83E0981EA11CB11CE4CF50
:10055000FF90EF90DF90CF90BF90AF909F908F90E3
:10056000089540913C0450913D0420913A0430910B
:100570003B0442175307B4F49091E8009570E1F3FF
:100580009091E80092FD19C08093F10080913C04A5
:1005900090913D0401968F739927892B19F48EEF62
:1005A0008093E80080913C0490913D0401969093E3
:1005B0003D0480933C0481E0089580E00895EF922B
:1005C000FF920F931F93CF93DF93F82E192FE62EF0
:1005D000042F81E0860F880F0E94B10283E00E9401
:1005E000B102CF2DD12FEC0EFD2EF11CCE15DF0563
:1005F000B9F007FF13C0FE0184910E94B102182FC9
:1006000080E00E94B102812321968111EFCFDF911A
:10061000CF911F910F91FF90EF9008958881EDCFBA
:1006200081E0F5CFDF92EF92FF920F931F93CF936C
:10063000DF93D82E8A01EB017B01E40EF51ECE1567
:10064000DF0559F0D7FE12C0FE0184910E94B1026D
:1006500021968111F4CF0FEF1FEFC801DF91CF91E9
:100660001F910F91FF90EF90DF9008958881EECF5A
:100670000F931F93CF93DF931F92CDB7DEB782E026
:10068000898342E450E067E071E080E80E94120351
:100690000E947F01DC0112960D911C91011511053C
:1006A00089F0D801ED91FC910280F381E02DBE012B
:1006B0006F5F7F4FC801099597FD04C0F801008561
:1006C0001185ECCF89810F90DF91CF911F910F9110
:1006D0000895615030F02091F100FC0120830196D3
:1006E000F8CF289884E6809393040895CF92DF9200
:1006F000EF92FF920F931F93CF93DF93EC016A0168
:100700007B0110E000E02FB7F89480917F04909176
:100710008004A0918104B09182042FBF88879987BB
:10072000AA87BB87E881F9810284F385E02DCE0199
:10073000099597FF26C02FB7F89480917F04909178
:100740008004A0918104B09182042FBF488559850F
:100750006A857B85841B950BA60BB70B4C815D814D
:100760006E817F8184179507A607B707D8F2C80165
:10077000DF91CF911F910F91FF90EF90DF90CF907D
:100780000895F70181937F010F5F1F4FC016D106B7
:1007900009F0B9CFECCF8F929F92AF92BF92CF92D8
:1007A000DF92EF92FF920F931F93CF93DF936C0131
:1007B0007B018A0180910B01882309F45CC0809140
:1007C0009404882309F457C08091400480FF05C039
:1007D0008091E00082608093E000E801B12C8AEF14
:1007E000A82E93E0892E2AE3922E209711F4BB20A5
:1007F000D9F10E946E0181110AC0AA94AA20D9F1F0
:1008000061E070E080E090E00E947E02EECF8C1705
:100810001D0611F00CF08C2F9FB7F8948092E90020
:100820002091E80025FD02C09FBFDFCF282F30E0D8
:10083000C21BD30BF701815020F041914093F1008E
:10084000FACFE20EF31EBB2021F09092E800B12C0B
:10085000EBCF8091E80085FDE7CF9092E800BB24C4
:10086000B394209709F3F3CF5D9884E680933F0417
:10087000101611063CF081E090E0F601938382832C
:1008800010E000E0C801DF91CF911F910F91FF9020
:10089000EF90DF90CF90BF90AF909F908F90089592
:1008A000CF93DF931F92CDB7DEB76983DC01ED9163
:1008B000FC910280F381E02D41E050E0BE016F5FCA
:1008C0007F4F09950F90DF91CF91089583E080933A
:1008D000E9008091F200882319F08AE38093E80010
:1008E00008950E946E0190E00895CF93DF931F92C8
:1008F000CDB7DEB7FC018485958597FD08C02FEF45
:100900003FEF358724870F90DF91CF910895CE0177
:1009100001960E944401019719F4898190E0F3CF78
:100920008FEF9FEFF0CF0F931F93CF93DF931F9223
:10093000CDB7DEB78C01FC018485958597FF0BC090
:10094000CE0101960E944401019771F4898190E0E3
:10095000F80195878487F801848595850F90DF914C
:10096000CF911F910F9108958FEF9FEFF1CFFC0171
:100970008485958597FD0BC09FB7F89482E080939E
:10098000E9008091F2009FBF90E0019608959FB723
:10099000F89482E08093E9008091F2009FBF90E09C
:1009A000089520911704260F3327331F2132310574
:1009B000ECF42091E304FC0190E080E0243069F045
:1009C00082E00895A09117042191AC0149505C4F39
:1009D000A40FB52FB11D2C930196861798F3809123
:1009E0001704680F6093170480E0089581E008956C
:1009F0001092E30481E08093E2041092BD0461E070
:100A000082E00E94930161E083E00E949301E9EBA0
:100A1000F0E080818E7F808380818D7F808388E479
:100A20008093B80085E48093BC00089510929A04E6
:100A3000109299041092EA0410920C050E94F80496
:100A400082E491E0909398048093970483E491E08A
:100A500090939604809395040895CF93DF9391E04B
:100A60009093F6038823B9F0C091B800D091BA00F2
:100A70008091BC008A7B8093BC0060E082E00E9491
:100A8000930160E083E00E9493010E94F804D093F8
:100A9000BA00C093B800DF91CF9108958F929F92D2
:100AA000AF92BF92CF92DF92EF92FF920F931F937C
:100AB000CF93DF93D0910C05D13208F0D7C0182F17
:100AC000C0910B050E9459026B017C018091E304E7
:100AD00081116BC082E08093E3041093E2048FEFF6
:100AE0008093E1041092E004D093DF04ABEEB4E015
:100AF000EFEBF4E080E0D81391C01092BE04809137
:100B0000BE04CC0FC82BC093BE048091BD048130BD
:100B100009F088C01092BD040E9459026B017C014B
:100B20008091BE048093BB008091E5049091E6041F
:100B3000A091E704B091E804892B8A2B8B2BA1F0BC
:100B40000E9459020091E5041091E6042091E70407
:100B50003091E8046C197D098E099F090617170763
:100B60002807390708F442C08091BC0083FDD8CF24
:100B700085EC8093BC000E9459026B017C0180913E
:100B8000E304823009F450C08091E1048F3F09F4FE
:100B90006FC08091E104803209F46CC08091E1045F
:100BA000803309F469C084E026C08091E504909107
:100BB000E604A091E704B091E804892B8A2B8B2BE3
:100BC00009F484CF0E9459028090E5049090E604D5
:100BD000A090E704B090E8046C197D098E099F0984
:100BE00086169706A806B90608F070CF8091E4042F
:100BF0000E942D0585E01092EA0410920C051092D7
:100C0000E904DF91CF911F910F91FF90EF90DF905A
:100C1000CF90BF90AF909F908F9008959D919193AA
:100C20008F5F69CF85EEA5CF8091E5049091E604B2
:100C3000A091E704B091E804892B8A2B8B2B09F44F
:100C40009ECF0E9459020091E5041091E604209184
:100C5000E7043091E8046C197D098E099F09061795
:100C600017072807390708F08ACFC0CF81E0C3CF24
:100C700080E0C1CF82E0BFCF83E0BDCF0895E09197
:100C80009A0480919904E81730F4F0E0E556FB4FA0
:100C9000808190E008958FEF9FEF089590919A04DE
:100CA000809199042FEF3FEF981748F4E92FF0E077
:100CB000E556FB4F208130E09F5F90939A04C90175
:100CC00008958091990490919A04891B990B089535
:100CD000CF92DF92EF92FF920F931F93CF93DF9308
:100CE0007C01CB018A012091E904222389F0EB01E8
:100CF0006B01C40ED51ECC15DD0569F06991D701D5
:100D0000ED91FC910190F081E02DC7010995F3CFA1
:100D1000642F0E94D104C801DF91CF911F910F91E0
:100D2000FF90EF90DF90CF900895CF93DF931F92C5
:100D3000CDB7DEB769832091E9042223F9F0209131
:100D40000C05203258F021E030E0FC01338322838F
:100D500090E080E00F90DF91CF9108958091EA04B8
:100D6000E82FF0E0E551FB4F998190838F5F8093EE
:100D7000EA0480930C0581E090E0ECCF61E0CE01C5
:100D800001960E94D104F7CF90E080E008951F9370
:100D9000CF93DF93EA01122FDC0111968D919C9184
:100DA000DC01ED91FC910280F381E02D0995C817DB
:100DB000D90729F4812F0E944E0591E0811190E01E
:100DC000892FDF91CF911F910895CF93DF93EC018D
:100DD0008B818823A1F0888191E09093E90480932E
:100DE0000B051092EA0410920C0581E00E944E055A
:100DF00091E0811190E0892FDF91CF9108950E94B9
:100E0000160581E08B83CE010E94E506982F8111A3
:100E1000E2CFF1CFEF92FF920F931F93CF93DF9327
:100E2000EC0169813881432F50E02A81822F90E0C4
:100E3000ECEFF0E021E0261730F47491870F911D5C
:100E40002F5F3196F8CF633018F0337009F40196B4
:100E50006DE671E0469F9001479F300D569F300D23
:100E60001124215031094D5F5F4F56954795569596
:100E70004795240F351F280F391FA8E1B0E00E94C5
:100E8000B2302B817B018C01E20EF11C011D111D82
:100E9000A8019701ACE3B0E00E944E302C817B01A9
:100EA0008C01E20EF11C011D111DA80197010E9489
:100EB0004E302D81620F711D811D911DDF91CF91EB
:100EC0001F910F91FF90EF900895FC019081905336
:100ED0009A3008F090E0818180532AE0929F800D43
:100EE00011240895DC0180E0615090F09D919827D5
:100EF000E92FEF70F0E0E452FF4F2491E92FE295E3
:100F0000EF70F0E0E451FF4FE491822F8E27ECCF99
:100F10000895DC012C911196ED91FC91F89481815A
:100F2000822B81839281322F30959323928387E0A5
:100F300090E00197F1F781818323818383E290E040
:100F40000197F1F790817894EFECF0E03197F1F7A9
:100F5000922381E009F480E00895FC0190810180F2
:100F6000F281E02D292F209560FF14C0F894828132
:100F7000822382838181892B8183A3E2B0E0119750
:100F8000F1F78281982B9283789487ED90E0019716
:100F9000F1F70895F8948281822382838181892BDD
:100FA0008183AFEFB0E01197F1F78281982B9283A4
:100FB00078948FE090E0EBCFDF92EF92FF920F9367
:100FC0001F93CF93DF93EC01D62EE42E08E010E0C0
:100FD000FF24F39461E08D2D8F2109F460E0CE01B0
:100FE0000E94AD07FF0C01501109A1F7E11010C0DC
:100FF000F894E981FA8191818881809589238183A0
:10100000E981FA819281888180958923828378940D
:10101000DF91CF911F910F91FF90EF90DF90089596
:10102000EF92FF920F931F93CF93DF938C017B017D
:1010300040E065E50E94DC07E70188E0E80EF11C6E
:10104000699140E0C8010E94DC07CE15DF05C1F7B9
:10105000DF91CF911F910F91FF90EF900895FC01C8
:1010600090810180F281E02DF8948181292F2095D3
:101070008223818378943DE743E050E0315029F1A9
:10108000DA011197F1F780818923C1F3F894828105
:10109000822382838181892B81837894ABE7B7E0B7
:1010A0001197F1F7F894818182238183A3E1B1E064
:1010B0001197F1F78081982381E009F080E078941E
:1010C000E3E6F6E03197F1F7089580E008954F9256
:1010D0005F926F927F928F929F92AF92BF92CF92C8
:1010E000DF92EF92FF920F931F93CF93DF938C01C8
:1010F0007B01EA01FC01818592850E942F088823EB
:10110000D9F1B701F801818592850E94100840E06D
:101110006EEBF801818592850E94DC076E015E010D
:10112000F9E0AF0EB11C7E01F8018184928488E061
:10113000682E712C512C44244394C4010E948907C9
:1011400081115428440CF1E06F1A7108B1F7F701CE
:1011500051927F01AE16BF0639F7F801818592855D
:101160000E942F08813041F4F60181916F018111B5
:1011700005C0EE15FF05C1F790E008C068E0CE019C
:101180000E94720791E028852813F6CF892FDF91FE
:10119000CF911F910F91FF90EF90DF90CF90BF9074
:1011A000AF909F908F907F906F905F904F90089539
:1011B00089E0089588E00895059608958CE20895E1
:1011C000059608958DE0089505960895FB013097E2
:1011D00059F0948190789860948390E0B0E0A0E01A
:1011E00080839183A283B3830895AF92BF92CF92FD
:1011F000DF92EF92FF920F931F93CF93DF9300D074
:1012000000D01F92CDB7DEB75C0129833A834B83B0
:101210005C836D8329813A812115310599F4F0E0D1
:10122000E0E0CF010F900F900F900F900F90DF91A3
:10123000CF911F910F91FF90EF90DF90CF90BF90D3
:10124000AF9008954B815C81DC01ED91FC91119789
:1012500012966D917C917A01E20EF31ECF01840FFC
:10126000951F86179707B8F4DC018C9181110DC08A
:10127000C9018F01E816F90661F0DC01CD90CD01BE
:10128000D801DD908D01CD14A9F381918111FDCF9D
:10129000E5CF309731F6CA010196860F971FD50129
:1012A0001496ED91FC911597E817F90720F481E069
:1012B00018968C93B4CFF5019383828361157105E1
:1012C00009F4ADCFF901DB01240F351F2E173F07BD
:1012D00019F081918D93FACF460F571FDA011C92B6
:1012E000FB019FCF82E208950F931F93CF93DF936B
:1012F000FC01258D222311F1EC0180899189A289BD
:10130000B38984179507A607B707B8F4068D178D1C
:10131000F8018681882389F060E085810E9493012D
:10132000F80116820781108560E0F80185810E942E
:101330009301F8018681815086831D8EDF91CF91C4
:101340001F910F910895CF93DF9300D000D000D06C
:10135000CDB7DEB7FC0184818F77843039F08530DA
:1013600091F01A8219821C821B8208C082819381AB
:10137000208131813A8329839C838B8381E090E0B3
:101380009E838D830AC082819381208131813A833B
:1013900029839C838B831E821D8229813A814B8104
:1013A0005C816D817E8180E090E026960FB6F89496
:1013B000DEBF0FBECDBFDF91CF910895CF93FC016B
:1013C000892B49F194819F779830E1F040F499237B
:1013D00011F19630A9F0C1E08C2FCF9108959A3089
:1013E00089F09C30C1F7C1E020E030E0A9016081C4
:1013F0007181828193810E94F52E8111EDCF0BC006
:10140000C081EACFC1E080819181A281B381892B23
:101410008A2B8B2B09F7C0E0DFCF87E0089580E0AF
:1014200008958AE0089505960895CF93DF93EC011F
:1014300088819981DC01ED91FC910190F081E02D92
:1014400009952A813B81820F931F9B838A83DF91B9
:10145000CF910895982F80336CF08A3324F08F3524
:1014600024F08B3724F481E0089581341CF081E06E
:101470009B350CF080E00895CF93DF93EC018881D9
:101480009981DC01ED91FC910280F381E02D0995B9
:101490002A813B81820F931F9B838A83DF91CF91A7
:1014A00008958F929F92AF92BF92CF92DF92EF9268
:1014B000FF920F931F93CF93DF93CDB7DEB766975D
:1014C0000FB6F894DEBF0FBECDBF6C018E01095E72
:1014D0001F4F78018AE0882E912CA12CB12CCB01D2
:1014E000BA01A50194010E949030942F852F605D70
:1014F000F80162938F01A901692F782F41155105D9
:101500006105710561F7A7014E1B5F0BBF01C601A5
:101510000E943C0A66960FB6F894DEBF0FBECDBFA0
:10152000DF91CF911F910F91FF90EF90DF90CF90BF
:10153000BF90AF909F908F9008950F931F93CF937C
:10154000DF931F92CDB7DEB78C01FC01848581113A
:1015500013C041E050E0BE016F5F7F4F81859285EF
:101560000E947603892B81F0898190E097FD80E0CD
:10157000F801838781E08487F80183850F90DF91EC
:10158000CF911F910F9108958FEF9FEFEFCF1F9392
:10159000CF93DF93EC01162F0E949D0A811306C0A2
:1015A0001C8681E0DF91CF911F91089580E0FACFF2
:1015B0000F931F93CF93DF938C01EB0189918823C5
:1015C00069F0C8010E949D0A882379F0FE013197D5
:1015D000908198130DC0F8011486F0CF90E080E060
:1015E000DF91CF911F910F91089582E090E0F8CFA5
:1015F00083E090E0F5CFCF93DF93EC01CE010E9422
:101600009D0A8B304CF489305CF4882359F081E0DA
:10161000888790E080E00BC08D3011F08032B9F700
:101620001C86ECCF8885811105C081E090E0DF91B8
:10163000CF91089582E090E0FACF0F931F93CF935C
:10164000DF93DB0112962D913C91EC01E881F98149
:101650008A819B81DF01A20FB31FA817B907A8F4E5
:101660004C9141110EC0EB01A881B981EF018D01B0
:10167000020F131FA017B10751F05D914991541744
:10168000C9F341914111FDCFE5CFF0E0E0E0CF019A
:10169000DF91CF911F910F91089590E080E0089520
:1016A000FC0124813581A9014F5F5F4F86819781BD
:1016B0004817590748F48281938155834483FC017C
:1016C000E20FF31F608308950190F081E02D81E027
:1016D000808708959F92AF92BF92CF92DF92EF9250
:1016E000FF920F931F93CF93DF9300D000D01F92F0
:1016F000CDB7DEB78C010E949D0AD82ED8011C966A
:101700001C92F12CE12C60EFC62EC8010E949D0AAC
:10171000F8011486D81609F4B4C0811113C082E010
:1017200090E00F900F900F900F900F90DF91CF915E
:101730001F910F91FF90EF90DF90CF90BF90AF90EF
:101740009F9008958C3509F09AC0C8010E949D0AA7
:10175000882329F3E3EEF1E0853709F084C0D8014E
:101760001C961C9254E0952EB12CA12CC8010E940D
:101770009D0A8823A1F2813434F48053803130F003
:1017800083E090E0CECF8F7D8753F8CF44E0AA0C62
:10179000BB1C4A95E1F7A82AF80114869A94911087
:1017A000E5CFC501985D8115944020F47501F3E003
:1017B000FF22ABCFC5019C5D81159440A8F483E066
:1017C000B822B701762F6627770F770F6A297B2912
:1017D00090E080E00196603871058105910540F444
:1017E000C8010E94500B91CFB50190E080E0F3CF8B
:1017F0001982262F2F7320682A8326E096958795D5
:10180000779567952A95D1F76032710580F4606C01
:101810006B835E01A4E0AA0EB11CD5016E915D013F
:10182000662309F472CFC8010E94500BF6CF262F11
:101830002F7320682B8386E0769567958A95E1F76C
:101840006031710538F4606E6C835E01B5E0AB0EFB
:10185000B11CE3CF60686C83CD825E01E6E0AE0E22
:10186000B11CDBCF32969081992309F489CF89137B
:10187000F9CF8181882309F483CFF8011486682F7A
:10188000AFCF0190F081E02D8085882319F084E0AE
:1018900090E047CF90E080E044CF4F925F926F920C
:1018A0007F928F929F92AF92BF92CF92DF92EF92F0
:1018B000FF920F931F93CF93DF93EB01DC012C91E9
:1018C0002B32D9F12D32D1F50196FF24F394FC018E
:1018D000208130ED320F3A3018F02E3209F042C13B
:1018E0008C0160E070E0CB01F801219130ED832E96
:1018F000820E39E0381520F16A3949E97407840706
:1019000049E1940738F5AAE0B0E09B01AC010E94E0
:101910004E30912CB12CA12C2401350140945094CF
:1019200060947094461657066806790698F0680D1C
:10193000791D8A1D9B1D8F01D7CF0196F12CC7CF32
:10194000211108C0FF20E9F161307105810550E8DF
:101950009507A0F0E12CBAE08B2E912CA12CB12C94
:101960006115710530E883079105B0F1A501940177
:101970000E949030CA01B901E394F2CF2C81207803
:101980002A602C839B01AC0188279927DC01821BEC
:10199000930BA40BB50B88839983AA83BB838F2DEC
:1019A000DF91CF911F910F91FF90EF90DF90CF903B
:1019B000BF90AF909F908F907F906F905F904F906F
:1019C00008952C81207828602C83688379838A830A
:1019D0009B83FF24F394E3CFF801D8012D918D016F
:1019E00030ED320F3A3010F4E394F6CF2E3201F599
:1019F0008F010F5F1F4FF8010F5F1F4F2081A0ED78
:101A0000DA2ED20EB9E0BD1598F06C3CECEC7E07F6
:101A1000ECE08E07910578F7AAE0B0E09B01AC01FD
:101A20000E944E306D0D711D811D911DEA94E3CF12
:101A300020812F7D10E000E0253409F05BC021817A
:101A40002D32D1F53296CC24C394DF0110E000E0B2
:101A50002E2D0E2C000C330B5AE0B52EFD01DD901F
:101A600040ED4D0D4A3008F040C0B09EA001B19E3F
:101A7000500D11240D2DDD0C110B00531109040F15
:101A8000151FA801420F531F473251053CF38C81AB
:101A9000CC20C9F040E050E060E070E8F11003C0F5
:101AA00040E050E0BA0180788C608C834883598391
:101AB0006A837B83FC2C73CF2B3219F03196C12CB7
:101AC000C4CF3296FCCF40E050E060E87FEFF110E9
:101AD00004C040E050E060E87FE780788C608C8351
:101AE000488359836A837B8374CFCC2019F0119586
:101AF000019511092081211135C00E0D111DE7FC42
:101B00001A950E94FA2E34ECC32E30E0D32E101614
:101B100011063CF01195019511094CEAC42E40E0E4
:101B2000D42EE12C0115110591F000FF0CC024E02A
:101B3000E29EF0011124EC0DFD1D2591359145919A
:101B400054910E945B2F15950795E394EBCFF1100C
:101B500090582C8120782C602C83688379838A8329
:101B60009B8337CFF12C1BCFCF92DF92EF92FF9266
:101B7000CF93DF9300D000D01F92CDB7DEB7FC012A
:101B800084818F778630B1F028F4843008F590E0B6
:101B900080E012C08A3021F08C3039F18830B9F7FA
:101BA00080819181A281B381009721E0A207B105D4
:101BB00018F0EDCF808190E00F900F900F900F9074
:101BC0000F90DF91CF91FF90EF90DF90CF9008952D
:101BD000808191811D82BE016F5F7F4F0E944D0CFD
:101BE000CE0101960E94B40DE7CFC080D180E28083
:101BF000F38020E030E0A901C701B6010E94643102
:101C000087FDC5CF20E03FEF4FE757E4C701B6019E
:101C10000E94F52E18160CF4BACFC701B6010E9427
:101C20003531CB01C9CFCF92DF92EF92FF92CF93A4
:101C3000DF9300D000D01F92CDB7DEB7FC018481C6
:101C40008F778630A9F020F4843080F580E011C0D1
:101C50008A30D9F08C30B9F18830C1F78081918118
:101C6000A281B38180389105A105B10578F701C043
:101C700080810F900F900F900F900F90DF91CF9178
:101C8000FF90EF90DF90CF90089580819181A281A5
:101C9000B381AC01BD0140585F4F6F4F7F4F4F3F45
:101CA00051056105710509F088F6E3CF80819181C6
:101CB0001D82BE016F5F7F4F0E944D0CCE010196C9
:101CC0000E94130ED6CFC080D180E280F38020E046
:101CD00030E040E053ECC701B6010E94643187FD5B
:101CE000B5CF20E030E04EEF52E4C701B6010E94CC
:101CF000F52E18160CF4AACFC701B6010E942E319A
:101D0000862FB7CFCF92DF92EF92FF92CF93DF93E0
:101D100000D000D01F92CDB7DEB7FC0184818F7751
:101D20008630B1F020F4843000F580E012C08A30B3
:101D300021F08C3039F18830C1F780819181A28106
:101D4000B3818F3F9105A105B10519F010F0EDCFDA
:101D500080810F900F900F900F900F90DF91CF9197
:101D6000FF90EF90DF90CF900895808191811D8248
:101D7000BE016F5F7F4F0E944D0CCE0101960E9405
:101D8000820EE7CFC080D180E280F38020E030E097
:101D9000A901C701B6010E94643187FDC6CF20E0CA
:101DA00030E04FE753E4C701B6010E94F52E181644
:101DB0000CF4BBCFC701B6010E943531862FC9CFC5
:101DC000CF92DF92EF92FF92CF93DF9300D000D0BB
:101DD0001F92CDB7DEB7FC0184818F77863091F0FA
:101DE00030F4843040F560E070E0CB010FC08A3001
:101DF000C9F08C3069F18830B1F7608171818281DE
:101E0000938104C0608170E090E080E00F900F90BB
:101E10000F900F900F90DF91CF91FF90EF90DF9098
:101E2000CF90089580819181A281B381B7FDDBCFEE
:101E3000BC01CD01EBCF808191811D82BE016F5F1E
:101E40007F4F0E944D0CCE0101960E94E00EDECF26
:101E5000C080D180E280F38020E030E0A901C7019A
:101E6000B6010E94643187FDBECF2FEF3FEF4FE7F1
:101E70005FE4C701B6010E94F52E18160CF4B3CF2B
:101E8000C701B6010E943531C1CFCF93DF93DC018A
:101E9000EB01EC81FD818A819B810896E817F907A7
:101EA00040F481E08887F0E0E0E0CF01DF91CF915E
:101EB00008953897FD83EC833097B9F31296CD914E
:101EC000DC911397209791F0CF018C1B9D0B23E0A1
:101ED000959587952A95E1F78D831396FC93EE935C
:101EE00012971582148217821682DFCF1196FC9307
:101EF000EE93F3CFFC018481982F9F7739F480789B
:101F0000806484831182108213821282848186FF0E
:101F100003C0CF010C94450F90E080E00895CF926C
:101F2000DF92EF92FF920F931F93CF93DF9300D036
:101F300000D0CDB7DEB76C018B01DC011296ED90BD
:101F4000FC90FA82E9827C836B83BE016F5F7F4FD6
:101F50000E941D0B009761F4F701E00FF11FCF0104
:101F60000196D60113969C938E9312971082C70107
:101F70000F900F900F900F90DF91CF911F910F91C5
:101F8000FF90EF90DF90CF900895FC0125812223F0
:101F900039F0F8E02F0290011124820F931F089569
:101FA00090E080E00895EF92FF920F931F93CF93FC
:101FB000DF938C017B01FC01C081D181209731F03E
:101FC000CE010E94C50FE816F906E9F4C7010E9488
:101FD000C50F2097D1F020E0009741F09C012C1B09
:101FE0003D0B43E0359527954A95E1F72D83892BE5
:101FF00019F4F801D383C283DF91CF911F910F9120
:10200000FF90EF900895EC01D9CFF8019183808380
:10201000EECFFC0101900020E9F73197AF01481B9A
:10202000590BBC018DE095E00C94CB0384EF91E05B
:102030000C940910CF93DF93FC014481558160819A
:1020400071818DE095E00E94CB03EC010E94161097
:102050008C0F9D1FDF91CF9108958F929F92AF9229
:10206000BF920F931F93CF93DF93CDB7DEB7A197A6
:102070000FB6F894DEBF0FBECDBF19A2423008F4F0
:102080004AE08E010F5D1F4F842E912CB12CA12CA4
:10209000A50194010E949030E62FB901CA01EA30EF
:1020A000F4F4E05DD801EE938D01232B242B252B36
:1020B00079F790E080E0109719F0CD010E940910A7
:1020C000A1960FB6F894DEBF0FBECDBFDF91CF91C2
:1020D0001F910F91BF90AF909F908F900895E95CF2
:1020E000E1CFCF93DF93D0E0C0E0009719F00E94DA
:1020F0000910EC010E9416108C0F9D1FDF91CF91EB
:1021000008950F931F93CF93DF93EC018C859D85EA
:10211000AE85BF85840F951FA61FB71F888B998B2F
:10212000AA8BBB8B0E8D1F8DF8018681811112C089
:1021300061E085810E94930181E0F8018683078137
:10214000108561E0F80185810E949301F801868184
:102150008F5F868381E08D8F87EF91E0DF91CF9154
:102160001F910F910C947110FF920F931F93CF93B7
:10217000DF93F62E8C01F801C191D1918F01209748
:1021800039F08B819C810E9471108A818F11F3CF6D
:10219000CE01DF91CF911F910F91FF900895FF9293
:1021A0000F931F93CF93DF93EC01F62E8A0186E104
:1021B00091E09983888362E370E080E090E00E9480
:1021C0007E02C8010E947110FA821C830B83DF918A
:1021D000CF911F910F91FF9008951F93CF93DF939D
:1021E000EC01142FA9010E94CF1086E291E099839F
:1021F000888388E391E09E838D831F8360E0812F35
:10220000DF91CF911F910C9404025F926F927F92A5
:102210008F929F92AF92BF92CF92DF92EF92FF92F6
:102220000F931F93CF93DF9300D000D01F92CDB7B1
:10223000DEB75C014A01FC01118210821382128216
:10224000FB01E080F180E114F10409F449C0F701D9
:10225000C680D780C114D104D9F15480F601019011
:102260000020E9F731973F016C187D08B401C501E2
:102270000E94450F8C01009789F157FC12C0FC01A8
:1022800084818F778483D782C682C801A401B70175
:102290000E948B11882311F1C7010E94C50F7C0198
:1022A000D2CF2C2DDA82C982462D7C826B821D8290
:1022B0003A815C8160E0C4010E94F5089C01892B91
:1022C00029F1F80194819068948337832683DDCFC8
:1022D000B401C5010E94450F0097C1F680E001C01E
:1022E00081E00F900F900F900F900F90DF91CF91A2
:1022F0001F910F91FF90EF90DF90CF90BF90AF9024
:102300009F908F907F906F905F900895B801C50166
:102310000E94D30FE3CFAF92BF92CF92DF92EF92A2
:10232000FF920F931F93CF93DF93CDB7DEB72B9719
:102330000FB6F894DEBF0FBECDBF8C017A01FB0152
:1023400024812F772530C9F198F4233009F47AC01D
:10235000F80184818078282B2483FB01808191817E
:10236000A281B381F80180839183A283B38339C0B2
:10237000FC0194812032F1F090789064203441F790
:1023800094831182108213821282A701C8010E94D5
:1023900005112B960FB6F894DEBF0FBECDBFDF91AF
:1023A000CF911F910F91FF90EF90DF90CF90BF9052
:1023B000AF90089590789062E3CFCB010E94A3097B
:1023C00029833A834B835C836D837E83D42EC52E11
:1023D00049815A814115510531F4F8018481807891
:1023E000848381E0D6CF8D819E81019751F4F801DD
:1023F000848180788460848351834083D282C382C5
:10240000F0CF242F58874F834D2DD986CA86388523
:102410005C2D60E0C7010E94F5089C01F8019481E1
:1024200090782115310561F0956094833183208384
:10243000D282C38281E0232B09F0ABCF80E0A9CF09
:102440009483F8CFA280B380C080D180DA82C98221
:10245000BC82AB82C114D104B9F0BE016F5F7F4F63
:10246000CA010E941D0B009739F5F7018281938103
:1024700095012F5F3F4F280F391F44815581421727
:10248000530738F481E08087F80184818078848361
:10249000D5CF338322830097B9F3F601DC01A6017F
:1024A0004A0D5B1DE417F50719F021912D93FACF22
:1024B000FC01EA0DFB1D1082F801248120782360C5
:1024C000248391838083B382A2828BCFCF93DF93C7
:1024D0006115710579F1EB01DC018D919C910097FB
:1024E00059F1DC011696ED91FC91DE010D90002072
:1024F000E9F71197AD014C1B5D0B30E020E0309700
:1025000049F0DF010D900020E9F79D0121503109CC
:102510002E1B3F0B2417350751F4DE012C0F3D1FF6
:102520002A173B0749F05D9141915417C9F30E9466
:10253000C50FD5CF90E080E0DF91CF9108959F92B5
:10254000AF92BF92CF92DF92EF92FF920F931F93C1
:10255000CF93DF93EC017B01D42E0E94FB0A8C0108
:10256000892B09F052C0CE010E949D0A863609F4DB
:1025700055C194F5873229F08B35D1F1823209F0BB
:1025800056C1E881F981828193819B838A8384810A
:10259000958122813381821B930B9F838E831D82C1
:1025A0001C82892B11F481E08087CE010E946A0B86
:1025B0008C01892B51F5AC80BD80B5018881998152
:1025C0000E948F0FF7012481207825602483918356
:1025D0008083B382A28219C0843709F408C18B3783
:1025E00009F453C08E3609F022C162EE72E008C1D0
:1025F000F701848180788064848311821082138241
:102600001282D1100FC005E010E0C801DF91CF9118
:102610001F910F91FF90EF90DF90CF90BF90AF9000
:102620009F9008951C86CE010E94FB0A009709F036
:102630002DC16DE5CE010E94C70A8111E6CFDA9463
:102640006D857E85C7010E94450F009709F46EC015
:102650004D2DBC01CE010E949F12009709F016C1BA
:10266000CE010E94FB0A009709F010C16DE5CE0172
:102670000E94C70A8111C9CF6CE2CE010E94C70A2D
:102680008111DECF03E010E0C0CFF70184818078B4
:10269000806284831182108213821282DD2009F409
:1026A000B2CF1C86CE010E94FB0A009709F0EEC053
:1026B0006DE7CE010E94C70A8111A7CFBB24B39456
:1026C000DA94E881F981828193819B838A83848172
:1026D000958122813381821B930B9F838E831D8280
:1026E0001C82892B09F4B086CE010E949D0A873294
:1026F00001F18232F1F0CE010E949D0A182F0E9452
:102700002A0A882309F4BECF1C86612FCE010E94BD
:10271000500BCE010E949D0A182F0E942A0A811197
:10272000F3CFE881F9818085882351F004E010E03F
:102730006CCFCE010E946A0B8C01892B09F065CF0A
:10274000CE010E94FB0A8C01892B09F05ECF6AE35F
:10275000CE010E94C70A882309F494CFEA81FB8145
:102760008C819D81E80FF91F10820C811D816A8187
:102770007B81C7010E946612BC01892BA1F4B801BC
:10278000888199810E948F0F8C016D857E85C7019C
:102790000E94450FFC01892B49F284818068848363
:1027A00017830683BF014D2DCE010E949F128C011D
:1027B000892B09F02ACFCE010E94FB0A8C01892BBC
:1027C00009F023CF6DE7CE010E94C70A81111DCF0A
:1027D0006CE2CE010E94C70A882309F453CFCE01D0
:1027E0000E94FB0A8C01892B09F46BCF0ECFF701F5
:1027F000848180788660848381E080836FEF71E0DC
:10280000CE01DF91CF911F910F91FF90EF90DF905C
:10281000CF90BF90AF909F900C94D80AF70184811D
:10282000807886608483108264E072E0E9CFCE0114
:102830000E949D0A5E01FFE0AF0EB11CD12C9A2CC4
:10284000CB2C803374F08A3374F49FE3D91699F05B
:102850001C86D394F50181935F01CE010E949D0AED
:10286000F0CF8B3291F393ED980F923070F3982F55
:102870009F7D953451F3CD0DD11D1F86B701892D54
:102880009C2D0E944D0C8111C0CEFCCE8C01BDCE82
:10289000009729F0FC01248125FD0C94661290E03C
:1028A00080E008958F929F92AF92BF92CF92DF9275
:1028B000EF92FF92CF93DF93EC01FB0169EF72E09F
:1028C000808191810E944814FC01892B51F08A81FA
:1028D00094819F77983009F44DC030F4963009F414
:1028E0005BC030E020E022C09A3081F19C30C9F713
:1028F000C080D180E280F380682F70E090E080E0BB
:102900000E94FA2E4B015C01AC019B01C701B6018C
:102910000E94F52E87FD45C0A5019401C701B601AF
:102920000E94643118161CF522E030E081E021306D
:10293000310509F080E0DF91CF91FF90EF90DF90BB
:10294000CF90BF90AF909F908F900895408151811C
:102950006281738190E0B0E0A0E0481759076A07F0
:102960007B07FCF084179507A607B707ECF221E078
:1029700030E0DCCF408151816281738190E0B0E032
:10298000A0E0481759076A077B0758F08417950796
:10299000A607B70760F7C8CF408150E070E060E05D
:1029A000EDCF24E030E0C2CFEF92FF920F931F9360
:1029B000CF93DF937C01EB010E945214182F8823E0
:1029C00081F16AE072E0888199810E9448140E9436
:1029D000DE09882369F06AE072E0888199810E94AB
:1029E0004814009731F10E94B40DF7019287818756
:1029F00064E172E0888199810E9448140E94DE0996
:102A0000082F882371F064E172E0888199810E9427
:102A10004814009789F00E94B40DF70194878387CA
:102A2000102F812FDF91CF911F910F91FF90EF9089
:102A3000089590E080E0D9CF90E080E0EECFEF9273
:102A4000FF920F931F93CF93DF93EC01892B49F4EF
:102A500090E080E0DF91CF911F910F91FF90EF9078
:102A600008958C81982F9F7739F4807880628C83C9
:102A7000198218821B821A828C8185FFE9CF611529
:102A8000710531F37A018B01CE010E946612009725
:102A900009F7B701CE010E94450F0097D9F2FC015A
:102AA00024812F77248317830683D4CFCF93DF939A
:102AB000DC01FB01948190781097A1F0ED01099061
:102AC0000020E9F72197CA1BDB0B94609483B18344
:102AD000A083D383C28381E0AB2B09F480E0DF9134
:102AE000CF9108959483F7CF6115710549F0009750
:102AF00029F4FB0184818078848308950C94561511
:102B00000895EF92FF920F931F93CF93DF937C0171
:102B10008B01CB0109960E947A0FEC01892B41F0C1
:102B20008C81807880628C83198218821B821A8241
:102B3000A80169EF72E0CE010E941F15BC01F701E8
:102B400082810E94E608F701E380F480A8016FE12A
:102B500072E0CE010E941F15BC01C7010E947415CE
:102B6000BE01C801DF91CF911F910F91FF90EF90AF
:102B70000895CF92DF92EF92FF92CF93DF93EC0113
:102B80000E9481156B017C01AC0164E272E0C60118
:102B90000E941F15FC01892B31F08E819481907861
:102BA000966094838083C701B601DF91CF91FF9037
:102BB000EF90DF90CF9008958F929F92AF92BF9247
:102BC000CF92DF92EF92FF92CF93DF93EC010E94BE
:102BD00081156B017C01E881F9810484F585E02D84
:102BE000CE0109954B015C01A70164E272E0C601C8
:102BF0000E941F15FC01892B41F0948190789C6004
:102C0000948380829182A282B382C701B601DF9150
:102C1000CF91FF90EF90DF90CF90BF90AF909F90BB
:102C20008F9008958F929F92AF92BF92CF92DF9232
:102C3000EF92FF92CF93DF93EC010E9481156B011D
:102C40007C01E881F9810484F585E02DCE010995A8
:102C50004B015C01A70164E272E0C6010E941F15EE
:102C6000FC01892B41F0948190789C609483808250
:102C70009182A282B382C701B601DF91CF91FF900A
:102C8000EF90DF90CF90BF90AF909F908F9008957E
:102C90008F929F92AF92BF92CF92DF92EF92FF926C
:102CA000CF93DF93EC010E9481156B017C01AC0195
:102CB0006AE072E0C6010E941F15FC01892B69F0D1
:102CC00029853A859481907898609483C901B0E011
:102CD000A0E080839183A283B383A70164E172E0C3
:102CE000C6010E941F15FC01892B69F02B853C85CC
:102CF0009481907898609483C901B0E0A0E08083CB
:102D00009183A283B383E881F9810484F585E02D62
:102D1000CE0109954B015C01A70164E272E0C60196
:102D20000E941F15FC01892B41F0948190789C60D2
:102D3000948380829182A282B382C701B601DF911F
:102D4000CF91FF90EF90DF90CF90BF90AF909F908A
:102D50008F900895CF92DF92EF92FF92CF93DF93FF
:102D6000EC010E9481156B017C01AC0164E272E010
:102D7000C6010E941F15BC018E810E94E608C70192
:102D8000B601DF91CF91FF90EF90DF90CF90089543
:102D9000CF92DF92EF92FF92CF93DF93EC010E94EC
:102DA00081156B017C01E881F9810484F585E02DB2
:102DB000CE010995A70164E272E0C6010E941F15C9
:102DC000FC01892B71F028853985948190789A606F
:102DD0009483C901330FAA0BBB0B80839183A28319
:102DE000B383C701B601DF91CF91FF90EF90DF90E1
:102DF000CF900895FB0101900020E9F73197AF01D2
:102E0000461B570B0C943C0A1F93CF93DF93E3EEC2
:102E1000F1E01281112379F0329621816213F9CF0A
:102E2000EC016CE50E94150A612FCE01DF91CF9174
:102E30001F910C94150A6111F9CF6AE272E0DF91DB
:102E4000CF911F910C94FA162F923F924F925F925E
:102E50006F927F928F929F92AF92BF92CF92DF92AA
:102E6000EF92FF920F931F93CF93DF93CDB7DEB70F
:102E70006C970FB6F894DEBF0FBECDBF8C011B015F
:102E8000DC0114968C9114978F77863009F499C2DF
:102E900068F58230A0F11296ED90FC901397CC90DB
:102EA0001196DC90843008F05DC2A701B601C10123
:102EB0000E943C0AF101828193816C960FB6F894CE
:102EC000DEBF0FBECDBFDF91CF911F910F91FF905D
:102ED000EF90DF90CF90BF90AF909F908F907F90BA
:102EE0006F905F904F903F902F9008958C3069F1D4
:102EF00060F4883009F460C28A3009F446C262EE98
:102F000072E0C1010E94FA16ECC1803209F4F3C1EB
:102F10008034A9F76BE5C1010E94150AF801008110
:102F200011810115110509F4E1C1B101C8010E9427
:102F30002417C8010E94C50F8C01892B09F4D6C142
:102F40006CE2C1010E94150AECCFF801C080D1806B
:102F5000E280F380A7019601C701B6010E94F52E19
:102F60008111CDCF20E030E0A901C701B6010E9458
:102F7000F52E882379F0A7019601C701B6010E94BA
:102F8000C2309B01AC01C701B6010E94F52E882317
:102F900009F4B5CF20E030E0A901C701B6010E94D5
:102FA000F52E87FF08C06DE2C1010E94150AF7FAED
:102FB000F094F7F8F09420E836E948E15BE4C701C3
:102FC000B6010E94643187FD88C074E1A72EB12C40
:102FD00000E210E0188E1F8AF501EC53FF4F659157
:102FE000759185919491A70196010E94F52E18166E
:102FF0009CF0F501E455FF4F259135914591549191
:10300000C701B6010E945B2F6B017C012F89388DAF
:10301000200F311F388F2F8B1595079534E0A31A99
:10302000B1088CEFA8168FEFB806B1F655245A9464
:1030300020E030E0A901C701B6010E9464311816F2
:103040000CF052C02CEA35EC47E257E3C701B60159
:103050000E94F52E18160CF447C0A52DB4E0AB0263
:10306000C0011124B12CA12CFC01E455FF4F3F01FC
:103070009C012C533F4F49013FEF531609F434C0D4
:10308000F301EA0DFB1D659175918591949120E006
:1030900030E040E251E40E945B2FA70196010E94BC
:1030A000643118169CF4F401EA0DFB1D259135914D
:1030B00045915491C701B6010E945B2F6B017C01C1
:1030C0008F89988D801B910B988F8F8B1595079505
:1030D0005A9494E0A91AB108CFCF00E210E055E06D
:1030E000552E188E1F8AA4CFC701B6010E94353114
:1030F0004B015C012B013C0106E080E492E4AFE06F
:10310000B0E0898F9A8FAB8FBC8F102F01509AE05F
:103110004916510461047104C8F0698D7A8D8B8D54
:103120009C8D2AE030E040E050E00E949030298FF2
:103130003A8F4B8F5C8FC301B2012AE030E040E050
:1031400050E00E94903029013A01DFCFC501B4015F
:103150000E94FA2E9B01AC01C701B6010E94C1304A
:103160006B017C01698D7A8D8B8D9C8D0E94FA2E6E
:103170009B01AC01C701B6010E945B2F2B013C01F2
:103180000E9435316B017C010E94FA2E9B01AC013B
:10319000C301B2010E94C1309B01AC010E94C23048
:1031A0000E943531C60ED71EE81EF91E898D9A8DF4
:1031B000AB8DBC8DC816D906EA06FB06D8F09FEF8A
:1031C000891A990AA90AB90AAF89B88DAB2B39F1C6
:1031D000BAE08B169104A104B10408F1EF89F88DCF
:1031E0003196F88FEF8BC12CD12C7601812C912C4C
:1031F000540183942AE0422E512C612C712CC7017A
:10320000B601A30192010E949030672B682B692BB5
:1032100051F4111644F469017A011150F0CFC12C18
:10322000D12C7601E7CFB501A401C1010E94510A5A
:10323000112371F14E01F1E18F0E911C012F540108
:103240009AE0492E512C612C712C015068F0C70175
:10325000B601A30192010E949030605DD4016E938B
:103260004D0169017A01F1CF812F90E0BC01609599
:103270007095F501E81BF90B31978EE280834427A6
:103280005527461B570B6A0D7B1DC1010E943C0A46
:10329000EF89F88DEF2B29F165E6C1010E94150A2F
:1032A0000F89188D17FF07C06DE2C1010E94150A32
:1032B000119501951109FE0177969F018AE0E82E8C
:1032C000F12CC801B7010E947531805D82938B019A
:1032D000672BB9F7A9014E1B5F0BBF01C1010E940B
:1032E0003C0AD10112968D919C91E7CD6DE5C1010B
:1032F0000E94150AF6CF6BE7C1010E94150AF8017A
:10330000008111810115110559F1D8011696CC9053
:1033100016971796DC9062E2C1010E94150A7601A9
:10332000F70161917F01662321F0C1010E9404171A
:10333000F7CF62E2C1010E94150A6AE3C1010E944F
:10334000150AB101C8010E942417C8010E94C50FC7
:103350008C01892B29F06CE2C1010E94150AD2CFA1
:103360006DE7C5CF62E2C1010E94150A8601E00E39
:10337000F11EE016F10639F0F80161918F01C101EB
:103380000E940417F6CF62E2B2CFCD90DD90ED90AF
:10339000FC90B701A601F7FE0BC06DE2C1010E94CF
:1033A000150A44275527BA014C195D096E097F0992
:1033B000C1010E94510A7ECD4D915D916D917C912C
:1033C000F7CF8C916FEF71E0811102C064E072E081
:1033D000C1010E94FA166ECDBF92CF92DF92EF929A
:1033E000FF920F931F93CF93DF93EC01B62EC72E5E
:1033F0008D85811105C0CE010E942F0881110EC05C
:103400001B861D861C8680E0DF91CF911F910F9156
:10341000FF90EF90DF90CF90BF90089540E060EF75
:10342000CE010E94DC0701E0E12CD12C11E0CE019D
:103430000E948907F82ECE010E94890791E0F912B7
:1034400018C0813099F51134D8F2DB86D11002C052
:1034500081E08D878B81882399F22396EB2DFC2DBB
:10346000CF01089629912193E817F907D9F781E050
:10347000CBCFEE2DF0E0F8120FC08B851817A0F41B
:10348000DE01AE0FBF1F13968C91802379F4F12CCF
:10349000193008F41C87D12EEC0FFD1F8381902F6B
:1034A0009095892383830AC08113F1CFFE01EE0D2D
:1034B000F11D8381802B8383FF24F3946F2DCE0134
:1034C0000E94AD071F5F000F11F4E39401E087E055
:1034D0008E1508F0ACCFB7CFCF93DF93682F70E095
:1034E00090E080E04AE00E942D10EC010E9416104E
:1034F0008C0F9D1FDF91CF9108952F923F924F9295
:103500005F926F927F928F929F92AF92BF92CF9273
:10351000DF92EF92FF920F931F93CF93DF9300D030
:1035200000D000D01F92CDB7DEB77C011982809009
:10353000BB049090BC04D40114968D919C91159776
:10354000892B09F418C18C9191E09093E904809340
:103550000B051092EA0410920C0520E041E050E0C7
:10356000BE016F5F7F4FC4010E94C706882309F424
:1035700002C1B12CA12CA7E02A2E312CF4018481A8
:1035800095816101CA18DB088C159D0508F46C0152
:10359000D4010C910E9459022B013C018091E3045B
:1035A000811173C01C2D113208F010E2B1E0B0930C
:1035B000E30421E0C1018C199D09A816B90608F49D
:1035C00020E02093E204EFEFE093E1041092E004A6
:1035D0008FEF810F8093DF04F1E0F093BE048091C0
:1035E000BE04000F082B0093BE048091BD048130FF
:1035F00009F094C01092BD040E9459022B013C01B5
:103600008091BE048093BB008091E5049091E60414
:10361000A091E704B091E804892B8A2B8B2BA1F0B1
:103620000E9459022091E5043091E6044091E7049C
:103630005091E80464197509860997092617370718
:103640004807590708F442C08091BC0083FDD8CFD9
:1036500085EC8093BC000E9459022B013C018091B3
:10366000E304813009F45EC08091E004811710F416
:103670001091E004AFEBB4E0EBE9F4E080E08117F7
:1036800051F19D9191938F5FFACF8091E5049091D4
:10369000E604A091E704B091E804892B8A2B8B2BD8
:1036A00009F47CCF0E9459022091E5043091E60490
:1036B0004091E7045091E804641975098609970957
:1036C000261737074807590708F068CF8091E404A8
:1036D0000E942D0510E010929A04109399041C1575
:1036E0001D0409F048C001E010E00C0F1D1F0A0D79
:1036F0001B1D3801C801861997098C159D05A0F579
:10370000F40181819281DC01ED91FC910284F385C9
:10371000E02D0995F80181938F01ECCFA5EEA093E0
:10372000BC0099CF8091E5049091E604A091E70454
:10373000B091E804892B8A2B8B2B09F490CF0E943F
:1037400059022091E5043091E6044091E70450913C
:10375000E804641975098609970926173707480789
:10376000590708F07CCFB2CFAC0CBD1CF7E0AF1608
:10377000B10408F403CFE981EF77FA811B814D8111
:103780005E818F81282F30E094E0359527959A95BA
:10379000E1F7922F990F990F291B220F280FD701BC
:1037A0002C93852F90E024E0959587952A95E1F755
:1037B000982F990F990F891B880F850F11968C935D
:1037C0001197642F70E034E0759567953A95E1F7AD
:1037D000862F880F880F681B660F640F12966C93F4
:1037E0001297412F50E064E0559547956A95E1F7AF
:1037F000842F880F880F481B440F410F13964C935A
:1038000013972F2F30E074E0359527957A95E1F7DF
:10381000822F880F880F281B220F2F0F14962C93AE
:1038200014978E2F90E0F4E095958795FA95E1F73F
:10383000982F990F990F891B880F8E0F15968C93CF
:10384000C70127960FB6F894DEBF0FBECDBFDF913C
:10385000CF911F910F91FF90EF90DF90CF90BF908D
:10386000AF909F908F907F906F905F904F903F9020
:103870002F900895CF92DF92EF92FF92CF93DF9334
:103880006C01990FEE08FF08F7FE1DC06DE28DE098
:1038900095E00E945004EC0166277727CB016C1954
:1038A0007D098E099F094AE00E942D10C80FD91F7B
:1038B0000E9416108C0F9D1FDF91CF91FF90EF900B
:1038C000DF90CF9008954AE0C701B6010E942D1005
:1038D000EC01EECF4F925F926F927F928F929F9208
:1038E000AF92BF92CF92DF92EF92FF920F931F930E
:1038F000CF93DF93EC016A017B0189859A8584353A
:10390000910509F059C0888D998DAA8DBB8D0C89C0
:103910001D892E893F89C016D106E206F30628F0DC
:103920008C159D05AE05BF0520F52C013D01401A03
:10393000510A620A730AAC01BD014A015B01801A97
:10394000910AA20AB30A4C155D056E057F0528F49D
:10395000440D551D661D771DF0CF4C8B5D8B6E8B16
:103960007F8B880D991DAA1DBB1D888F998FAA8FEB
:10397000BB8F8C899D89AE89BF89C816D906EA0696
:10398000FB06A8F04C855D856E857F85840F951FAD
:10399000A61FB71F8C159D05AE05BF0540F08D8D88
:1039A000811105C0B701A601CE010E948110B701A7
:1039B000A601CE010E94740989859A8581349105FA
:1039C00019F56B8570E090E080E00E94FC2E4B01C1
:1039D0005C0188A199A1DC01ED91FC910484F5853D
:1039E000E02D09959B01AC01C501B4010E94643131
:1039F00087FD05C0B701A601CE010E948110B70165
:103A0000A601CE010E94740989859A858D3491059D
:103A100069F581E392E00E9409108A810E946C1A84
:103A20008AE392E00E9409108C8D90E00E943A1C7B
:103A30008C8D882331F0B701A601CE010E94811040
:103A40001C8EB701A601CE01DF91CF911F910F917E
:103A5000FF90EF90DF90CF90BF90AF909F908F90AE
:103A60007F906F905F904F900C947409DF91CF918D
:103A70001F910F91FF90EF90DF90CF90BF90AF908C
:103A80009F908F907F906F905F904F9008958F924E
:103A90009F92AF92BF92CF92DF92EF92FF920F93DD
:103AA0001F93CF93DF93EC018B0182E492E00E949D
:103AB0007110B801CE010E9481156B017C01AC012F
:103AC00068E472E0C6010E941F15FC01892B61F0B9
:103AD0004C855D856E857F85948190789860948310
:103AE0004083518362837383A70163E572E0C6015B
:103AF0000E941F15FC01892B61F0488959896A8948
:103B00007B89948190789860948340835183628309
:103B10007383A7016FE572E0C6010E941F15FC01C7
:103B2000892B31F08D8D9481907896609483808379
:103B3000A7016DE672E0C6010E941F15FC01892BEA
:103B400061F04C895D896E897F8994819078986055
:103B500094834083518362837383A70169E772E092
:103B6000C6010E941F15FC01892B61F0488D598DFB
:103B70006A8D7B8D94819078986094834083518383
:103B800062837383A70164E872E0C6010E941F1577
:103B9000BC018B850E94E608A70161E972E0C601BD
:103BA0000E941F15FC01892B31F08C8D9481907837
:103BB0009660948380838BE992E00E9471108985DE
:103BC0009A850E943A1C89859A858134910559F419
:103BD000A70162EA72E0C6010E941F15BC0187EAD4
:103BE00092E00E94741589859A858435910559F46F
:103BF000A70162EA72E0C6010E941F15BC018CEAAF
:103C000092E00E94741589859A858D34910559F446
:103C1000A70162EA72E0C6010E941F15BC0182EB97
:103C200092E00E9474158E8D9F8D009709F448C014
:103C3000DC01ED91FC910280F381E02DB801099542
:103C40004B01A70169EB72E0C6010E941F150097A6
:103C500039F08114910479F5FC01248120782483C2
:103C600088A199A10097B1F1DC01ED91FC9102804E
:103C7000F381E02DB80109954B01A7016DEC72E0CD
:103C8000C6010E941F15009739F081149104E9F4D0
:103C9000FC01248120782483C701B601DF91CF91F4
:103CA0001F910F91FF90EF90DF90CF90BF90AF905A
:103CB0009F908F900895A701B4010E948B11D0CFDF
:103CC0008FEB92E00E947110CBCFA701B4010E944C
:103CD0008B11E2CF86ED92E00E947110DDCFBF9292
:103CE000CF92DF92EF92FF920F931F93CF93DF93C8
:103CF00000D000D000D0CDB7DEB78C017B010E9490
:103D00005214B82E882309F4CEC068E472E0F7019B
:103D1000808191810E944814009709F4D5C00E94C7
:103D2000E00EF80164877587868797876DE672E0F5
:103D3000F701808191810E944814009709F4C8C05E
:103D40000E94E00EF801648B758B868B978B69E778
:103D500072E0F701808191810E944814009709F474
:103D6000BBC00E94E00EF801608F718F828F938F2D
:103D700064E872E0F701808191810E944814009705
:103D800009F4AEC00E94820EF801838767EE72E0EC
:103D9000F701808191810E944814009709F4A2C024
:103DA0000E94130E682FF801858196810E94B4103D
:103DB000F801978F868F60EF72E0F7018081918123
:103DC0000E944814009709F48FC00E94130E682FB8
:103DD000F801858196810E94B410F80191A380A317
:103DE00062EA72E0F701808191810E944814D12C2F
:103DF000C12C009731F00E94A30929833A83C9801E
:103E0000DA808CEF92E00E940910C601C114D1043F
:103E100011F482EE92E00E94091067EA72E0C60196
:103E20000E949333892B29F481E490E0F801928772
:103E300081876CEA72E0C6010E949333892B29F4D2
:103E400084E590E0F8019287818762EB72E0C60119
:103E50000E949333892B29F48DE490E0F801928736
:103E6000818788E093E00E940910F80161858DE068
:103E700095E00E9450040E941610F701E080F18046
:103E8000E114F10481F061E972E0C7010E94661259
:103E9000892B49F061E972E0C7010E9448140E9431
:103EA000DE09F801848F8B2D26960FB6F894DEBFBD
:103EB0000FBECDBFDF91CF911F910F91FF90EF907B
:103EC000DF90CF90BF90089560E070E0CB0129CFE4
:103ED00060E070E0CB0136CF60E070E0CB0143CF13
:103EE00080E052CF80E05ECF80E071CFDC0199E0CE
:103EF000FB0101900D929A95E1F70895FC0199E07C
:103F0000DB0101900D929A95E1F70895DC0198E0AC
:103F1000FB0101900D929A95E1F70895FC0198E05C
:103F2000DB0101900D929A95E1F70895DC019CE286
:103F3000FB0101900D929A95E1F70895FC019CE236
:103F4000DB0101900D929A95E1F70895DC019DE067
:103F5000FB0101900D929A95E1F70895FC019DE017
:103F6000DB0101900D929A95E1F70895DC0192E250
:103F7000FB0101900D929A95E1F70895FC0192E200
:103F8000DB0101900D929A95E1F70895DC0197E02D
:103F9000FB0101900D929A95E1F70895FC0197E0DD
:103FA000DB0101900D929A95E1F70895DC019AE00A
:103FB000FB0101900D929A95E1F70895FC019AE0BA
:103FC000DB0101900D929A95E1F708950E948533E7
:103FD000EF92FF920F931F93CF93DF93EC017B013E
:103FE0008A0188819981009729F02A813B812417D1
:103FF000350788F4B8016F5F7F4F0E94C832009781
:1040000091F0998388831B830A832C813D81232B24
:1040100011F4FC0110821D830C83B7018881998102
:104020000E949C330CC088819981009711F00E94F6
:104030003F32198218821D821C821B821A82CE0195
:10404000DF91CF911F910F91FF90EF90089585ED33
:104050008093BC008091E5049091E604A091E70470
:10406000B091E8040796A11DB11D23E0B695A79570
:10407000979587952A95D1F72091BC0024FD03C020
:104080001092E30408954091E5045091E604609194
:10409000E7047091E804452B462B472B69F3009702
:1040A000A105B10541F02AE22A95F1F700C0019778
:1040B000A109B109E1CF8091E4040C942D05FB0125
:1040C00001900020E9F73197AF01461B570B0E9482
:1040D000A33321E0892B09F020E0822F08951F925D
:1040E0000F920FB60F9211242F933F938F939F93AC
:1040F000AF93BF9380917F0490918004A09181043D
:10410000B091820430917E0423E0230F2D3758F5BF
:104110000196A11DB11D20937E0480937F0490938E
:104120008004A0938104B0938204809183049091D1
:104130008404A0918504B09186040196A11DB11D4F
:104140008093830490938404A0938504B0938604A1
:10415000BF91AF919F918F913F912F910F900FBE83
:104160000F901F90189526E8230F0296A11DB11DF0
:10417000D2CF1F920F920FB60F9211248F939F935D
:104180008091E1009091E100937F9093E10083FFA3
:104190000FC01092E90091E09093EB001092EC00B8
:1041A00092E39093ED001092940498E09093F000C5
:1041B00082FF22C093E09093E9009091F20099234E
:1041C00019F09AE39093E80090913F04992341F00D
:1041D00090913F04915090933F04911101C05D9ADA
:1041E00090919304992341F090919304915090936E
:1041F0009304911101C0289A84FF18C08091E200B5
:104200008E7E81608093E2008091E1008F7E8093BA
:10421000E100809140048E7E8061809340049F91F4
:104220008F910F900FBE0F901F90189580FFF7CFC2
:104230008091E2008E7E80618093E2008091E100B7
:104240008E7E8093E100809140048E7E8160E5CF78
:104250001F920F920FB60F921124CF92DF92EF921E
:10426000FF920F931F932F933F934F935F936F93FF
:104270007F938F939F93AF93BF93EF93FF93CF93CE
:10428000DF93CDB7DEB76C97DEBFCDBF1092E900EC
:104290008091E80083FF25C068E0CE0145960E942A
:1042A000690382EF8093E8008D8987FF39C0909180
:1042B000E80090FFFCCF982F907609F034C19E89DA
:1042C0004F89588D2F89F88C911131C0803861F554
:1042D000809141048093F1001092F1008EEF809361
:1042E000E8006C960FB6F894DEBF0FBECDBFDF912D
:1042F000CF91FF91EF91BF91AF919F918F917F915E
:104300006F915F914F913F912F911F910F91FF906E
:10431000EF90DF90CF900F900FBE0F901F901895E9
:104320009EEF9093E800C7CF1092F100D5CF913067
:1043300059F48111D3CF4130510581F68091410468
:104340008D7F80934104CACF933049F48111C6CF49
:104350004130510519F6809141048260F2CF9530C9
:1043600041F48091E80080FFFCCF20682093E300B7
:10437000B5CF963009F0A9C00B8D1C8D22E01092AC
:10438000E90010923D0410923C04F2122EC01092EB
:104390003B0410923A040E9438031F8299E09983EB
:1043A000FA8291E09E8390EA98879AEF998720910C
:1043B0003C0430913D04275F3F4F3C832B838D832A
:1043C0001092E90010923D0410923C0410933B04BB
:1043D00000933A0449E050E0BE016F5F7F4F80E0F8
:1043E0000E9412030E94380379CF10933B0400937C
:1043F0003A040E947F01DC0112960D911C91011577
:10440000110509F451C1D801ED91FC910480F581A9
:10441000E02DBE016B5E7F4FC8010995009709F042
:104420003EC1F80100851185EACFF3E0FF120EC00E
:104430008F89882309F440C0823061F440E860E14C
:104440008BE691E00E94DF02811148CF81E28093E8
:10445000EB0047CF813029F440E86BE08FE591E035
:10446000F1CF833099F70E947F01DC011296ED9025
:10447000FC908E010F5F1F4F6801E114F10479F089
:10448000D701ED91FC910680F781E02DB801C701BD
:104490000995080F111DF701E084F184EECFD801D2
:1044A0001C92F60101900020E9F73197BF016C19C9
:1044B0007D0940E0C601C6CF69E471E0FB0144918B
:1044C00050E080E80E94120309CF973009F4BECF74
:1044D000983021F481E08093F10000CF993009F009
:1044E000FDCE837009F0B2CFE1E4F1E081E031E08C
:1044F00096E32191222371F08093E9003093EB0041
:10450000DF0111972C912093EC009093ED008F5FC9
:10451000873079F78EE78093EA001092EA008F895E
:1045200080939404DBCE8B8D9C8D1092E9001092C9
:104530003D0410923C0490933B0480933A04898D8F
:10454000811192C08E899D89913A49F4813209F096
:104550007DCF47E050E064E071E080E0B3CF91327E
:1045600009F074CF833269F48F89988DB0E0A0E0B0
:104570008093000190930101A0930201B093030185
:10458000ADCE803269F48091E80082FFFCCF67E015
:1045900084E091E00E9469038BEF8093E8009ECE57
:1045A000823209F09BCE8F8980930B01EEEFFFE7FB
:1045B000859194918B3F9C4D51F1E0E0F8E0809122
:1045C000040190910501A0910601B0910701803B83
:1045D0009440A105B105F1F480910B0180FD1AC052
:1045E000EE3F8AE0F80789F587E797E791838083B4
:1045F0008091600080933E0488E19BE00FB6F894C0
:10460000A895809360000FBE9093600067CEEEEF98
:10461000FAE0D5CF808191818737974709F05ECE48
:10462000A8958091600088618093600080913E042D
:1046300080936000EE3F2AE0F20789F08091FE0A45
:104640009091FF0A9183808349CE80819181873741
:10465000980751F29093FF0A8093FE0AC5CF1092FB
:10466000FF0A1092FE0A3ACE0E947F01DC011296E8
:104670000D911C910115110509F4E8CED801ED91B9
:10468000FC910190F081E02DBE016B5E7F4FC8016F
:104690000995811123CEF80100851185EBCF1816FD
:1046A00019060CF41BCED2CEF1E0FF12BECE6DE4A3
:1046B00071E004CF1F920F920FB60F9211242F9327
:1046C0003F934F935F936F937F938F939F93AF939A
:1046D000BF93EF93FF938091B900887F803609F4F0
:1046E0004AC0F0F5883209F4A7C018F5803109F402
:1046F0009BC0B8F4882309F4F9C0883009F494C049
:10470000FF91EF91BF91AF919F918F917F916F91A9
:104710005F914F913F912F910F900FBE0F901F907F
:104720001895883109F488C0803251F78093E104EC
:1047300014C0803409F49DC040F48033B9F3883349
:10474000F9F68093E10485ECB0C0803509F485C0AA
:10475000883509F496C0883499F60E942720D0CF76
:10476000883909F48CC038F5883729F050F4883638
:1047700011F0803729F683E08093E3041092390426
:1047800057C0883809F47BC0803919F0803809F0A7
:10479000B7CF80913904803208F071C0E0913904BC
:1047A00081E08E0F809339048091BB00F0E0E75EDA
:1047B000FB4F80833DC0803B39F0E0F4803A09F440
:1047C00079C0883A09F09CCF84E08093E30410928A
:1047D000180410921704E0919704F0919804099539
:1047E0008091170481110FC081E08093170410920B
:1047F000F70309C0803C09F4A6CF883C09F4A3CF95
:10480000883B09F07DCFE091180481E08E0F809302
:104810001804F0E0E950FC4F80818093BB00909138
:1048200018048091170429C08091BE048093BB00B6
:1048300085EC8093BC0064CF9091E0048091DF040C
:10484000981758F5E091E00481E08E0F8093E00422
:10485000F0E0E154FB4F8081E9CFE091E00481E09A
:104860008E0F8093E0048091BB00F0E0E154FB4F99
:1048700080839091E0048091DF049817C8F285E866
:10488000D8CFE091E00481E08E0F8093E004809126
:10489000BB00F0E0E154FB4F80838091E204811182
:1048A0005CCF81E08093BD0484EA8093BC001092C9
:1048B000E30426CF85EC8093BC001092E304809142
:1048C0003904803230F4E0913904F0E0E75EFB4FC8
:1048D00010826091390470E0E0919504F0919604A3
:1048E00089E194E00995109239040ACF1092E1040D
:1048F00034CFCF92DF92EF92FF920F931F93E82F66
:10490000F92F05C0015011092109310961F1908188
:1049100096239417B9F305C00150110921093109F3
:1049200011F1908196239413F7CFC12CD12CE12C57
:10493000F12C0AC08FEFC81AD80AE80AF80A0C1539
:104940001D052E053F0579F080818623841791F39C
:104950006C2D7D2D8E2D9F2D1F910F91FF90EF902F
:10496000DF90CF90089560E070E080E090E01F91CC
:104970000F91FF90EF90DF90CF900895FC01878119
:104980000E94350297FD0396959587959595879595
:10499000682F70E090E080E00E94FA2E089505975D
:1049A0000C94BE24CF93DF93EC018F810E943502DB
:1049B0009C01990F440B550B285532404109510970
:1049C000A4E6B0E00E944E3020E13FEF4FEF5FEFF2
:1049D0000E942F303987288764E170E080E090E002
:1049E0000E947E026885798577FF02C070E060E0F2
:1049F00079876887072E000C880B990B0E94FC2E84
:104A0000DF91CF91089505970C94D224CF92DF9235
:104A1000EF92FF920F931F93CF93DF93CDB7DEB743
:104A200061970FB6F894DEBF0FBECDBF8C01DC01DD
:104A30005E968D919C910E942F0840E06CECF801ED
:104A4000868D978D0E94DC07D80155964C9155971D
:104A500064E45E968D919C910E94DC07F801818D43
:104A6000882391F1E08DD8015A968C915A9788232A
:104A700009F457C055968C91811153C08FB7F894A3
:104A8000C0907F04D0908004E0908104F090820474
:104A90008FBFF801868D978D0E9489078130A1F024
:104AA0002FB7F89480917F0490918004A0918104A5
:104AB000B09182042FBF8C199D09AE09BF098E3EAB
:104AC0009240A105B10528F3D8015E96ED91FC91C5
:104AD0005F971386158614861286118610861782B4
:104AE0001682158214821382BE01665F7F4F5E9626
:104AF0008D919C910E94EC1981113CC060E070E0A6
:104B00008EEF92EC61960FB6F894DEBF0FBECDBF6C
:104B1000DF91CF911F910F91FF90EF90DF90CF9099
:104B20000895E9508EEE92E0E33038F4F0E0EE0FB5
:104B3000FF1FE65CFE4F808191816C01990FEE08AA
:104B4000FF08D80156968C915697882329F060E08B
:104B500057968C910E949301C701B6010E947E0274
:104B6000F8018689882309F4AFCF61E087890E9424
:104B70009301AACF67E0CE010A960E947207998935
:104B80008913BCCFAE014F5F5F4FBE01665F7F4FA1
:104B9000C80145960E946708882309F4AFCF6A814F
:104BA00070E0762F6627770F770F770F2981B8E0AF
:104BB0002B9F90011124262B372B8A858031E1F41D
:104BC00068856623C9F070E08F81FB01E81BF1095D
:104BD000CF019695982F8827979587950E948931C0
:104BE000CB018097B90153E0660F771F5A95E1F723
:104BF00060789C01260F371F2138F4EE3F070CF434
:104C00007DCFB901330F880B990B0E94FC2E20E059
:104C100030E040E05CE30E945B2F74CF05970C947A
:104C20000625CF92DF92EF92FF920F931F93CF93BF
:104C3000DF93EC0160E088850E94930183E090E0BF
:104C40000197F1F761E088850E94930183E290E08B
:104C50000197F1F760E088850E9493018F8190E0D1
:104C6000FC01EF52FE4F6491FC01EE54FE4FE491C3
:104C7000F0E0EE0FFF1FE458FE4F8591949100E4A1
:104C800012E42FE030E0462F0E947924611571056F
:104C90008105910529F06F5F7F4F8F4F9F4F9F7068
:104CA0000E94FC2E26E933E44BE05DE30E945B2F7B
:104CB00020E030E040E05FE30E945B2F0E9435314E
:104CC000CB84DC84E985FA8590E080E0CE16DF06AF
:104CD00059F40E94FA2EDF91CF911F910F91FF900E
:104CE000EF90DF90CF900895F12CE12C9B01AC0167
:104CF0002C193D094E095F09A4E6B0E00E944E3030
:104D00009F0150E040E02C193D094E095F090E94C7
:104D10002F30CA01B9010E94FC2EDDCF05970C94FB
:104D20001126EDE0F5E01382128288EE93E0A0E018
:104D3000B0E084839583A683B78323EC31E031838D
:104D400020832FEF3FEF35872487EDE5F5E01382D1
:104D5000128284839583A683B78385ED91E0918346
:104D60008083E9E6F5E087E795E09183808393838C
:104D7000828387E797E09583848397838683108671
:104D800015860895CF93DF93CDB7DEB7C75BD10902
:104D90000FB6F894DEBF0FBECDBF789484B58260A5
:104DA00084BD84B5816084BD85B5826085BD85B5CF
:104DB000816085BD80916E00816080936E0010924D
:104DC00081008091810082608093810080918100C8
:104DD0008160809381008091800081608093800059
:104DE0008091910082608093910080919100816018
:104DF00080939100809190008160809390008091D9
:104E0000C10084608093C1008091C1008260809362
:104E1000C1008091C10081608093C1008091C30076
:104E200081608093C3008091C00082608093C00045
:104E30008091C20081608093C20080917A0084607A
:104E400080937A0080917A00826080937A008091CA
:104E50007A00816080937A0080917A0080688093E4
:104E60007A001092940410924104109240048091B0
:104E7000D70081608093D70080EA8093D80089B5FD
:104E8000806189BD89B5826089BD09B400FEFDCF0E
:104E900061E070E080E090E00E947E028091D800A6
:104EA0008F7C80618093D8008091E000807F809328
:104EB000E0008091E1008E7E8093E1008DE08093A0
:104EC000E200559A209A8FEF9FEF90931A058093F6
:104ED00019058DE095E00E94B704892BD1F38CE28F
:104EE00090E00E94A3318C0144E153E068E00E940D
:104EF000CF108BE491E0D80111969C938E938DE5B1
:104F000091E016969C938E9315977801B5E1EB0E80
:104F1000F11CF80113A612A6168A60E087E00E9431
:104F20000402E8EDF1E08491E9EBF1E0E491F0E0D6
:104F3000EE0FFF1FE458FE4F259134911B861A8611
:104F4000198618861F821E821D821C8289833B83DC
:104F50002A831C861D861E868EE0FE013196D801AE
:104F6000179601900D928A95E1F7D80155961C92FB
:104F7000559756961C92569789E058968C93589759
:104F800081E059968C9359975A968C935A975B96D1
:104F90008C935B97C80107965F969C938E935E9760
:104FA0009B961C921E929A9752961C9252975496D8
:104FB0001C92549753961C92539751961C9251975A
:104FC00050961C9250971F961C921F971E961C92EB
:104FD0001E971D961C921D971C961C921C971B9643
:104FE0001C921B971A961C921A975C961C925C97BF
:104FF0005D961C92DD24D394BE016B597F4FF8015E
:10500000868D978D0E94EC19882309F47AC067E099
:10501000CE018B599F4F0E947207AD969FADAD9701
:105020008913EACFD8015C968C915C978F5F5C9670
:105030008C93A6968FADA697883231F008F048C0C1
:10504000803111F08232C1F6F801858D8F5F858F36
:105050008589811125C0868D978D0E942F08BE01FC
:105060006B597F4FD8015E968D919C910E941008DC
:1050700040E064EBF801868D978D0E94DC07D80133
:105080005E968D919C910E948907C82EF801868DAD
:10509000978D0E942F08C11003C0D8015596DC924D
:1050A000A6968FADA6978031F1F0AE014F5F5F4FAE
:1050B000BE016B597F4FC7010E946708882331F0FA
:1050C0008D818F3391F058F48F31B9F080E00EC0AC
:1050D0008B3309F4B9CF823409F08ECFB5CF8F3539
:1050E00071F08F3799F78CE001C08AE0F801908D5C
:1050F000981708F081CF808F7FCF89E0F7CF8BE0C2
:10510000F5CF10935504009354048AE090E00E9478
:10511000A331C255DF4F99838883CE5AD0402BE10B
:1051200033E042E160E00E94ED10C255DF4F28817C
:105130003981CE5AD0403093530420935204309397
:105140005704209356048AE090E00E94A331C05592
:10515000DF4F99838883C05BD04024E233E043E192
:1051600061E00E94ED10C055DF4F48815981C05B5E
:10517000D0405093510440935004509359044093AD
:1051800058048AE090E00E94A331CE54DF4F998307
:105190008883C25BD0402DE233E044E162E00E94AC
:1051A000ED10CE54DF4F88819981C25BD04090933F
:1051B0004F0480934E0490935B0480935A048AE0DA
:1051C00090E00E94A331CC54DF4F99838883C45B65
:1051D000D04026E333E045E163E00E94ED10CC547B
:1051E000DF4FA881B981C45BD040B0934D04A09338
:1051F0004C04B0935D04A0935C048DE090E00E94A9
:10520000A3318C014FE353E065E00E94CF1083E6A9
:1052100091E0F8019183808385E791E0968385830F
:1052200083E0878382E08087148613861286118646
:1052300010935F0400935E0487E090E00E94A33126
:105240006C0144E453E066E00E94CF108BE791E0EC
:10525000D60111969C938E9384E015968C9361E011
:105260000E940402F6011682D0924B04C0924A04B6
:10527000D0926104C092600488E090E00E94A33163
:105280008C0149E453E067E00E94CF108BE891E085
:10529000D80111969C938E938DE991E016969C937C
:1052A0008E93159786E117968C9310936304009361
:1052B000620489E090E00E94A3318C014EE453E047
:1052C0006AE00E94CF10F3EAAF2EF1E0BF2EF801A2
:1052D000B182A08286E08583D086C78261E00E9489
:1052E000040210934904009348041093650400934A
:1052F000640489E090E00E94A3317C0145E553E01D
:105300006BE00E94CF10D7011196BC92AE9288E05C
:1053100015968C9315971896DC92CE92179761E0AC
:105320000E940402F0924704E0924604F09267045F
:10533000E092660489E090E00E94A3314C014CE5C4
:1053400053E06CE00E94CF10F401B182A08289E0AA
:105350008583D086C78261E00E9404029092450452
:1053600080924404909269048092680489E090E0FD
:105370000E94A3311C0143E653E06DE00E94CF1070
:10538000D1011196BC92AE928AE015968C93159736
:105390001896DC92CE92179761E00E940402309238
:1053A00043042092420430926B0420926A0482E209
:1053B00090E00E94A3315C014AE653E064E10E9460
:1053C000CF1023EB31E0F5013183208334E13387C3
:1053D000AAE54A2E512C612C712CD50144865586A4
:1053E00066867786178F068FC255DF4FE881F98171
:1053F000CE5AD0409196FC93EE9390975C961C9277
:10540000B0927D04A0927C04B0926D04A0926C04D2
:1054100082E290E00E94A3316C0143E753E065E132
:105420000E94CF10E3EBF1E0D6011196FC93EE93CE
:10543000F4E11B96FC931B971C964D925D926D9226
:105440007C921F975F96FC92EE925E97C055DF4F5D
:10545000E881F981C05BD0409196FC93EE939097E0
:105460005C961C92D0927B04C0927A04D0926F0416
:10547000C0926E0482E290E00E94A3317C014CE76E
:1054800053E066E10E94CF10E3EBF1E0D701119603
:10549000FC93EE93F4E11B96FC931B971C964D92A4
:1054A0005D926D927C921F975F969C928E925E9712
:1054B000CE54DF4FE881F981C25BD0409196FC93D6
:1054C000EE9390975C961C92F0927904E0927804A7
:1054D000F0927104E092700482E290E00E94A331A5
:1054E0008C0145E853E067E10E94CF10E3EBF1E067
:1054F000D8011196FC93EE93F4E11B96FC931B9755
:105500001C964D925D926D927C921F975F963C9295
:105510002E925E97CC54DF4FE881F981C45BD04076
:105520009196FC93EE9390975C961C92109377045F
:10553000009376041093730400937204E4E5F4E09E
:10554000D5011696FC93EE931597D6011696FC930B
:10555000EE931597D7011696FC93EE931597D80105
:105560001696FC93EE93159760E08CE00E9404027F
:1055700090E080E00E9419308130A1F58EE893E040
:105580000E947110D12CEAE0CE2E0D2D10E0000FFC
:10559000111F0C5A1B4FF801808191810097F1F087
:1055A000DC01ED91FC910284F385E02D0995B82E84
:1055B000F12CE12C8C2D8E0DEB1468F490E00E9400
:1055C0001930D801ED91FC91EE0DFF1D8083BFEFE6
:1055D000EB1AFB0AEFCFCB0CD394D7CF8DE993E036
:1055E0000E9471100E9416058091BB049091BC042A
:1055F000009711F00E943F3286E090E00E94A331B4
:105600008C0188E6F80180838DE595E092838183A3
:10561000138280E290E0958384831093BC0400930E
:10562000BB040E94160581E0D80113968C93C80133
:105630000E94E5068E010B591F4FF8013296C055A6
:10564000DF4FF983E883C05BD0409E012F5F3F4F5F
:105650007901A8014B5F5F4FCE54DF4F59834883D8
:10566000C25BD040C8010896CC54DF4F9983888331
:10567000C45BD040D8011B96CA54DF4FB983A883BE
:10568000C65BD0406AE0462E512C612C712C80EA1A
:1056900093E00E947110CE0182589F4F0E947D1AA4
:1056A000CD57DF4F8881C358D0401F928F93CE577C
:1056B000DF4F8881C258D0401F928F93CF57DF4F62
:1056C0008881C158D0401F928F93C058DF4F888186
:1056D000C058D0401F928F93C158DF4F8881CF5759
:1056E000D0401F928F93EF968FADEF9790E080534D
:1056F000984F9F938F9389EA93E09F938F93FF92A4
:10570000EF920E94B133F80111821082138212824B
:1057100015821482F70101900020E9F73197AF015B
:105720004E195F09B701C8010E94E81FC8010E9415
:105730001A10D8018D919C910FB6F894DEBF0FBE60
:10574000CDBF009711F00E943F328DE095E00E949E
:10575000B704892B09F473C00E9433010E943301FE
:1057600089E695E0C656DF4F99838883CA59D040B1
:1057700028E0FE01E656FF4FDE01AE56BF4F019016
:105780000D922A95E1F728E0FE01EE56FF4FD70172
:1057900001900D922A95E1F719862DE035E03B87BF
:1057A0002A871D869F878E874AE062E775E0C701DA
:1057B0000E949F12009709F040C09C858091760559
:1057C000992309F40DC383FF0BC384E6F7011192FB
:1057D0008A95E9F744E650E0B7018DE095E00E9434
:1057E000760382E492E00E947110F701019000209C
:1057F000E9F73197EE19C258DF4FF982E882CE57A8
:10580000D040CE01029621E0BB24B3942E1708F0BD
:10581000C9C0DC013D91CD01303269F4AB2DB0E05F
:10582000AA0FBB1F4EE750E04C0F5D1FA40FB51F22
:105830008D939C93B3942F5FE9CF039731F2C0907F
:105840007C04D0907D04C7010E947D1AC7010E948C
:105850000A07AB01BC01C6010E946A1CC0907A0411
:10586000D0907B04C7010E947D1AC7010E940A07DD
:10587000AB01BC01C6010E946A1CC0907804D090A4
:105880007904C7010E947D1AC7010E940A07AB0173
:10589000BC01C6010E946A1CC0907604D0907704B7
:1058A000C7010E947D1AC7010E940A07AB01BC0113
:1058B000C6010E946A1C60ED77E080E090E00E94E3
:1058C0007E02C7010E947D1AC7010E940A07A30138
:1058D00092010E949030672B682B692B09F478C2E3
:1058E00084E5A82E84E0B82E9AE0392ED5018D915A
:1058F0009C91009709F461C2DC01ED91FC91028456
:10590000F385E02D0995282ED12CC12C832C8C0CED
:10591000C21408F04DC2D501ED91FC91EC0DFD1DB6
:10592000B081C255DF4FB883CE5AD040912CC4010C
:105930000E941930C255DF4FE881CE5AD040E81797
:1059400021F06E2FC4010E942130FFEFCF1ADF0A31
:10595000DDCF82E795E09A83898389E695E09C8391
:105960008B83B12CCB2CD12CCC0CDD1C96012C5A6A
:105970003B4F6901D901ED91FC91309709F45FCF5C
:1059800082810E946C1AF60180819181DC01ED9187
:10599000FC910480F581E02DB70109958111EBC0E0
:1059A000B394E0CF85EC93E00E947110C258DF4FB2
:1059B000C880D980CE57D0406BEC73E0C6010E94FE
:1059C0005F20882309F422C1BB2009F41BC1C05801
:1059D000DF4FC880C058D040CF57DF4FD880C15864
:1059E000D0406FEC73E0C6010E945F20882309F469
:1059F00049C00E94330134E5832E34E0932ED40154
:105A0000AD90BD904D01A114B10409F4ECC069E65C
:105A100075E082E795E00E947A0F6C01009749F0EB
:105A2000FC018481807880628483118210821382D9
:105A3000128249E655E069EF72E0C6010E941F1527
:105A4000BC01D50112968C910E94E608F501A38055
:105A5000B48049E655E06FE172E0C6010E941F156F
:105A6000009769F2A114B10441F4DC0114962C9161
:105A70001497207814962C93C2CFBC01C5010E94C4
:105A80005615BDCF6EE472E0C6010E945F20F6019C
:105A9000D12C9AE0882309F471C0CE0188559F4F1C
:105AA0000E947D1AC355DF4F8881CD5AD0401F9286
:105AB0008F93C455DF4F8881CC5AD0401F928F936B
:105AC000C555DF4F8881CB5AD0401F928F93C65562
:105AD000DF4F8881CA5AD0401F928F93C755DF4F3E
