:100000000C94F9000C9421010C9421010C94210111
:100010000C9421010C9421010C9421010C942101D8
:100020000C9421010C9421010C944E1E0C94BD1EC5
:100030000C9421010C9421010C9421010C942101B8
:100040000C9421010C9421010C9421010C942101A8
:100050000C9421010C9421010C9421010C94041E98
:100060000C9421010C9421010C9421010C94210188
:100070000C9421010C9421010C9421010C94210178
:100080000C9421010C9421010C9421010C94210168
:100090000C94EF200C9421010C9421010C9421016B
:1000A0000C9421010C9421010C942101CDCCCC3D68
:1000B0000AD7233C17B7D13877CC2B329595E62455
:1000C0001FB14F0A000020410000C84200401C46FA
:1000D00020BCBE4CCA1B0E5AAEC59D740000000069
:1000E0002300260029002C002F001F1C1F1E1F1E8E
:1000F0001F1F1E1F1E080B00020202000009040041
:100100000001020200000524001001052401010184
:10011000042402060524060001070581031000409F
:1001200009040100020A0000000705020240000065
:10013000070583024000000403090412010002EFD6
:100140000201404123368000010102030141726433
:1001500075696E6F204C4C430041726475696E6F17
:10016000204C656F6E6172646F0007060504010024
:10017000080A0B0C0D0900000000240027002A00CB
:100180002D00300000000000250028002B002E006C
:1001900031000404040404030405020202020403FF
:1001A0000202020206060606060604040202020411
:1001B0000404080201104080401020408040800864
:1001C00002040180402010020110801020404020D5
:1001D0000000000200090F0000030401000C0000F1
:1001E000000000000000000000000000000000000F
:1001F0004E2311241FBECFEFDAE0DEBFCDBF13E0E8
:10020000A0E0B1E0EEE8F3E602C005900D92A23E58
:10021000B107D9F727E0A2EEB3E001C01D92A736DF
:10022000B207E1F710E0C9EFD0E004C02197FE016A
:100230000E941E2DC83FD107C9F70E947F230C944E
:10024000C5310C940000E5E5F5E080819181938350
:1002500082838681978195838483108685858078C3
:100260008587089508950895FC018091800488236E
:1002700011F13FB7F89482E08093E9002091F200F9
:10028000822F90E01816190614F481E090E088237C
:1002900039F0289844E640937F044091F100408370
:1002A000222339F02091F200211103C02BE6209384
:1002B000E8003FBF08958FEF9FEF08952FB7F894A0
:1002C00083E08093E9009091E800892F807295FF88
:1002D00004C09091F20080E4891B2FBF08958091A3
:1002E000770481110DC082E08093730484E08093D1
:1002F0007404109276041092750481E08093770460
:1003000083E794E00895282F30E0F901E053FE4F91
:100310009491F901EF54FE4F84912E563E4FF9010E
:100320002491222309F430C09923E9F091509F30A1
:10033000D0F4E92FF0E0E156FE4F0C941E2DCD01D4
:10034000D101AE01C501C901B301B301B301D401AB
:10035000DA01DE01E201E801B301EC0190918000D5
:100360009F7790938000E22FF0E0EE0FFF1FEC5795
:10037000FE4FA591B4919FB7F894EC91611132C0F2
:1003800080958E238C939FBF0895909180009F7DD0
:10039000E8CF90918000977FE4CF94B59F7794BD8C
:1003A000E2CF94B59F7DFBCF909190009F77909383
:1003B0009000D9CF909190009F7DF9CF90919000BF
:1003C000977FF5CF9091C0009F779093C000CBCFDF
:1003D0009091C0009F7DF9CF9091C200977F90933C
:1003E000C200C1CF8E2BCECFCF93DF9390E0FC0124
:1003F000EF54FE4F24918E569E4FFC01849188232A
:10040000D1F090E0880F991FFC01EA58FE4FA591AA
:10041000B491FC01EC57FE4FC591D49161110EC00F
:100420009FB7F8948C91E22FE0958E238C932881CE
:10043000E223E8839FBFDF91CF9108958FB7F894AF
:10044000EC91E22BEC938FBFF6CF823108F0825112
:10045000E82FF0E0E659FE4FE49190917B008E2F5B
:10046000880F880F80729F7D892B80937B00E770B7
:10047000E064E0937C0080917A00806480937A004D
:1004800080917A0086FDFCCF809178009091790070
:1004900008953FB7F89480916F0490917004A091F3
:1004A0007104B091720426B5A89B05C02F3F19F0C6
:1004B0000196A11DB11D3FBFBA2FA92F982F8827E4
:1004C000BC01CD01620F711D811D911D42E0660FBF
:1004D000771F881F991F4A95D1F708958F929F9291
:1004E000AF92BF92CF92DF92EF92FF926B017C01AD
:1004F0000E9449024B015C01C114D104E104F104E2
:10050000B9F00E944902681979098A099B09683E75
:1005100073408105910580F321E0C21AD108E108FA
:10052000F10888EE880E83E0981EA11CB11CE4CF70
:10053000FF90EF90DF90CF90BF90AF909F908F9003
:100540000895409128045091290420912604309167
:10055000270442175307B4F49091E8009570E1F333
:100560009091E80092FD19C08093F10080912804D9
:100570009091290401968F739927892B19F48EEF96
:100580008093E8008091280490912904019690932B
:1005900029048093280481E0089580E00895DF9283
:1005A000EF92FF920F931F93CF93DF93D82E8A0180
:1005B000EB017B01E40EF51ECE15DF0559F0D7FEE9
:1005C00012C0FE0184910E94A10221968111F4CFF4
:1005D0000FEF1FEFC801DF91CF911F910F91FF9097
:1005E000EF90DF9008958881EECF0F931F93CF9304
:1005F000DF931F92CDB7DEB782E0898342E450E0FB
:1006000065EF70E080E80E94CF020E946F01DC017C
:1006100012960D911C910115110589F0D801ED91EB
:10062000FC910280F381E02DBE016F5F7F4FC80116
:10063000099597FD04C0F80100851185ECCF8981EB
:100640000F90DF91CF911F910F910895615030F07D
:100650002091F100FC0120830196F8CF289884E6D0
:1006600080937F040895CF92DF92EF92FF920F93D1
:100670001F93CF93DF93EC016A017B0110E000E050
:100680002FB7F89480916B0490916C04A0916D0445
:10069000B0916E042FBF88879987AA87BB87E881AE
:1006A000F9810284F385E02DCE01099597FF26C0DC
:1006B0002FB7F89480916B0490916C04A0916D0415
:1006C000B0916E042FBF488559856A857B85841B50
:1006D000950BA60BB70B4C815D816E817F818417D2
:1006E0009507A607B707D8F2C801DF91CF911F91F0
:1006F0000F91FF90EF90DF90CF900895F7018193D5
:100700007F010F5F1F4FC016D10609F0B9CFECCFA4
:100710008F929F92AF92BF92CF92DF92EF92FF9211
:100720000F931F93CF93DF936C017B018A0180911C
:100730000B01882309F45CC080918004882309F4AC
:1007400057C080912C0480FF05C08091E00082603A
:100750008093E000E801B12C8AEFA82E93E0892E67
:100760002AE3922E209711F4BB20D9F10E945E015A
:1007700081110AC0AA94AA20D9F161E070E080E05A
:1007800090E00E946E02EECF8C171D0611F00CF067
:100790008C2F9FB7F8948092E9002091E80025FD06
:1007A00002C09FBFDFCF282F30E0C21BD30BF70161
:1007B000815020F041914093F100FACFE20EF31EF8
:1007C000BB2021F09092E800B12CEBCF8091E800A3
:1007D00085FDE7CF9092E800BB24B394209709F3FE
:1007E000F3CF5D9884E680932B04101611063CF03D
:1007F00081E090E0F6019383828310E000E0C8017D
:10080000DF91CF911F910F91FF90EF90DF90CF90EC
:10081000BF90AF909F908F900895CF93DF931F92DA
:10082000CDB7DEB76983DC01ED91FC910280F381E5
:10083000E02D41E050E0BE016F5F7F4F09950F90C2
:10084000DF91CF91089583E08093E9008091F200D9
:10085000882319F08AE38093E80008950E945E01DE
:1008600090E00895CF93DF931F92CDB7DEB7FC01E0
:100870008485958597FD08C02FEF3FEF3587248746
:100880000F90DF91CF910895CE0101960E9434011F
:10089000019719F4898190E0F3CF8FEF9FEFF0CFAC
:1008A0000F931F93CF93DF931F92CDB7DEB78C01C9
:1008B000FC018485958597FF0BC0CE0101960E94AF
:1008C0003401019771F4898190E0F801958784875C
:1008D000F801848595850F90DF91CF911F910F913D
:1008E00008958FEF9FEFF1CFFC018485958597FDEB
:1008F0000BC09FB7F89482E08093E9008091F200EA
:100900009FBF90E0019608959FB7F89482E080938E
:10091000E9008091F2009FBF90E0089520910304C8
:10092000260F3327331F21323105ECF42091CF04F9
:10093000FC0190E080E0243069F082E00895A0910D
:1009400003042191AC014D515C4FA40FB52FB11D93
:100950002C930196861798F380910304680F609397
:10096000030480E0089581E008951092CF0481E0AF
:100970008093CE041092A90461E082E00E9483017A
:1009800061E083E00E948301E9EBF0E080818E7FEB
:10099000808380818D7F808388E48093B80085E4A4
:1009A0008093BC00089510928604109285041092E2
:1009B000D6041092F8040E94B50482E391E090936B
:1009C00084048093830483E391E090938204809372
:1009D00081040895CF93DF9391E09093E2038823FD
:1009E000B9F0C091B800D091BA008091BC008A7B68
:1009F0008093BC0060E082E00E94830160E083E0BD
:100A00000E9483010E94B504D093BA00C093B8003D
:100A1000DF91CF9108958F929F92AF92BF92CF9224
:100A2000DF92EF92FF920F931F93CF93DF93D091BA
:100A3000F804D13208F0D7C0182FC091F7040E94F3
:100A400049026B017C018091CF0481116BC082E06F
:100A50008093CF041093CE048FEF8093CD04109237
:100A6000CC04D093CB04A7EDB4E0EBEAF4E080E053
:100A7000D81391C01092AA048091AA04CC0FC82B5D
:100A8000C093AA048091A904813009F088C0109213
:100A9000A9040E9449026B017C018091AA04809301
:100AA000BB008091D1049091D204A091D304B09165
:100AB000D404892B8A2B8B2BA1F00E944902009130
:100AC000D1041091D2042091D3043091D4046C1934
:100AD0007D098E099F09061717072807390708F4AB
:100AE00042C08091BC0083FDD8CF85EC8093BC00D0
:100AF0000E9449026B017C018091CF04823009F48D
:100B000050C08091CD048F3F09F46FC08091CD0417
:100B1000803209F46CC08091CD04803309F469C03F
:100B200084E026C08091D1049091D204A091D30496
:100B3000B091D404892B8A2B8B2B09F484CF0E948B
:100B400049028090D1049090D204A090D304B09038
:100B5000D4046C197D098E099F0986169706A8068C
:100B6000B90608F070CF8091D0040E94EA0485E0B5
:100B70001092D6041092F8041092D504DF91CF9110
:100B80001F910F91FF90EF90DF90CF90BF90AF90AB
:100B90009F908F9008959D9191938F5F69CF85EE7F
:100BA000A5CF8091D1049091D204A091D304B091AB
:100BB000D404892B8A2B8B2B09F49ECF0E944902E7
:100BC0000091D1041091D2042091D3043091D40427
:100BD0006C197D098E099F09061717072807390721
:100BE00008F08ACFC0CF81E0C3CF80E0C1CF82E0E0
:100BF000BFCF83E0BDCF0895E09186048091850446
:100C0000E81730F4F0E0E957FB4F808190E0089559
:100C10008FEF9FEF089590918604809185042FEFC8
:100C20003FEF981748F4E92FF0E0E957FB4F208198
:100C300030E09F5F90938604C901089580918504F8
:100C400090918604891B990B0895CF92DF92EF92C1
:100C5000FF920F931F93CF93DF937C01CB018A0107
:100C60002091D504222389F0EB016B01C40ED51E1F
:100C7000CC15DD0569F06991D701ED91FC910190EA
:100C8000F081E02DC7010995F3CF642F0E948E04F7
:100C9000C801DF91CF911F910F91FF90EF90DF90EE
:100CA000CF900895CF93DF931F92CDB7DEB76983BE
:100CB0002091D5042223F9F02091F804203258F035
:100CC00021E030E0FC013383228390E080E00F904C
:100CD000DF91CF9108958091D604E82FF0E0E9529A
:100CE000FB4F998190838F5F8093D6048093F804A3
:100CF00081E090E0ECCF61E0CE0101960E948E048D
:100D0000F7CF90E080E008951F93CF93DF93EA013F
:100D1000122FDC0111968D919C91DC01ED91FC91DB
:100D20000280F381E02D0995C817D90729F4812F96
:100D30000E940B0591E0811190E0892FDF91CF9106
:100D40001F910895CF93DF93EC018B818823A1F04D
:100D5000888191E09093D5048093F7041092D60493
:100D60001092F80481E00E940B0591E0811190E05F
:100D7000892FDF91CF9108950E94D30481E08B8366
:100D8000CE010E94A206982F8111E2CFF1CFEF92FF
:100D9000FF920F931F93CF93DF93EC01698138810A
:100DA000432F50E02A81822F90E0EAEEF0E021E02C
:100DB000261730F47491870F911D2F5F3196F8CF6D
:100DC000633018F0337009F401966DE671E0469FC8
:100DD0009001479F300D569F300D1124215031094D
:100DE0004D5F5F4F5695479556954795240F351F94
:100DF000280F391FA8E1B0E00E94472C2B817B010E
:100E00008C01E20EF11C011D111DA8019701ACE33C
:100E1000B0E00E94E32B2C817B018C01E20EF11CDF
:100E2000011D111DA80197010E94E32B2D81620F66
:100E3000711D811D911DDF91CF911F910F91FF9029
:100E4000EF900895FC01908190539A3008F090E063
:100E5000818180532AE0929F800D1124089589E0BA
:100E6000089588E00895059608958DE00895059603
:100E70000895FB01309759F094819078986094839D
:100E800090E0B0E0A0E080839183A283B3830895D3
:100E9000AF92BF92CF92DF92EF92FF920F931F9388
:100EA000CF93DF9300D000D01F92CDB7DEB75C01A7
:100EB00029833A834B835C836D8329813A81211591
:100EC000310599F4F0E0E0E0CF010F900F900F9022
:100ED0000F900F90DF91CF911F910F91FF90EF90A6
:100EE000DF90CF90BF90AF9008954B815C81DC0183
:100EF000ED91FC91119712966D917C917A01E20E21
:100F0000F31ECF01840F951F86179707B8F4DC01F5
:100F10008C9181110DC0C9018F01E816F90661F0AD
:100F2000DC01CD90CD01D801DD908D01CD14A9F368
:100F300081918111FDCFE5CF309731F6CA0101963D
:100F4000860F971FD5011496ED91FC911597E81720
:100F5000F90720F481E018968C93B4CFF5019383C0
:100F600082836115710509F4ADCFF901DB01240F0E
:100F7000351F2E173F0719F081918D93FACF460F39
:100F8000571FDA011C92FB019FCF82E20895CF9395
:100F9000DF9300D000D000D0CDB7DEB7FC01848154
:100FA0008F77843039F0853091F01A8219821C8253
:100FB0001B8208C082819381208131813A832983F9
:100FC0009C838B8381E090E09E838D830AC0828125
:100FD0009381208131813A8329839C838B831E8274
:100FE0001D8229813A814B815C816D817E8180E007
:100FF00090E026960FB6F894DEBF0FBECDBFDF910E
:10100000CF910895CF93FC01892B49F194819F776B
:101010009830E1F040F4992311F19630A9F0C1E045
:101020008C2FCF9108959A3089F09C30C1F7C1E0A0
:1010300020E030E0A90160817181828193810E946A
:101040008A2A8111EDCF0BC0C081EACFC1E0808137
:101050009181A281B381892B8A2B8B2B09F7C0E068
:10106000DFCF87E0089580E008958AE0089505962F
:101070000895CF93DF93EC0188819981DC01ED9194
:10108000FC910190F081E02D09952A813B81820F2E
:10109000931F9B838A83DF91CF910895982F80338C
:1010A0006CF08A3324F08F3524F08B3724F481E000
:1010B000089581341CF081E09B350CF080E00895A8
:1010C000CF93DF93EC0188819981DC01ED91FC9154
:1010D0000280F381E02D09952A813B81820F931FC5
:1010E0009B838A83DF91CF9108958F929F92AF92D5
:1010F000BF92CF92DF92EF92FF920F931F93CF9305
:10110000DF93CDB7DEB766970FB6F894DEBF0FBE9C
:10111000CDBF6C018E01095E1F4F78018AE0882ED9
:10112000912CA12CB12CCB01BA01A50194010E94F4
:10113000252C942F852F605DF80162938F01A90102
:10114000692F782F411551056105710561F7A701D8
:101150004E1B5F0BBF01C6010E94600866960FB66A
:10116000F894DEBF0FBECDBFDF91CF911F910F91DD
:10117000FF90EF90DF90CF90BF90AF909F908F90B7
:1011800008950F931F93CF93DF931F92CDB7DEB7D0
:101190008C01FC018485811113C041E050E0BE0147
:1011A0006F5F7F4F818592850E943303892B81F089
:1011B000898190E097FD80E0F801838781E0848752
:1011C000F80183850F90DF91CF911F910F910895C2
:1011D0008FEF9FEFEFCF1F93CF93DF93EC01162F8D
:1011E0000E94C108811306C01C8681E0DF91CF9167
:1011F0001F91089580E0FACF0F931F93CF93DF9351
:101200008C01EB018991882369F0C8010E94C10813
:10121000882379F0FE013197908198130DC0F80171
:101220001486F0CF90E080E0DF91CF911F910F9175
:10123000089582E090E0F8CF83E090E0F5CFCF937F
:10124000DF93EC01CE010E94C1088B304CF4893051
:101250005CF4882359F081E0888790E080E00BC03F
:101260008D3011F08032B9F71C86ECCF8885811162
:1012700005C081E090E0DF91CF91089582E090E099
:10128000FACF0F931F93CF93DF93DB0112962D912B
:101290003C91EC01E881F9818A819B81DF01A20FF9
:1012A000B31FA817B907A8F44C9141110EC0EB0168
:1012B000A881B981EF018D01020F131FA017B1079B
:1012C00051F05D9149915417C9F341914111FDCFFE
:1012D000E5CFF0E0E0E0CF01DF91CF911F910F91DA
:1012E000089590E080E00895FC0124813581A901F2
:1012F0004F5F5F4F868197814817590748F4828175
:10130000938155834483FC01E20FF31F60830895AA
:101310000190F081E02D81E0808708959F92AF9247
:10132000BF92CF92DF92EF92FF920F931F93CF93D2
:10133000DF9300D000D01F92CDB7DEB78C010E94A2
:10134000C108D82ED8011C961C92F12CE12C60EF1C
:10135000C62EC8010E94C108F8011486D81609F4E7
:10136000B4C0811113C082E090E00F900F900F90F5
:101370000F900F90DF91CF911F910F91FF90EF9001
:10138000DF90CF90BF90AF909F9008958C3509F07B
:101390009AC0C8010E94C108882329F3E5ECF1E056
:1013A000853709F084C0D8011C961C9254E0952E14
:1013B000B12CA12CC8010E94C1088823A1F281345C
:1013C00034F48053803130F083E090E0CECF8F7DD5
:1013D0008753F8CF44E0AA0CBB1C4A95E1F7A82A32
:1013E000F80114869A949110E5CFC501985D811596
:1013F000944020F47501F3E0FF22ABCFC5019C5D62
:1014000081159440A8F483E0B822B701762F6627AF
:10141000770F770F6A297B2990E080E0019660388A
:1014200071058105910540F4C8010E94740991CFAE
:10143000B50190E080E0F3CF1982262F2F7320684A
:101440002A8326E096958795779567952A95D1F713
:101450006032710580F4606C6B835E01A4E0AA0EBB
:10146000B11CD5016E915D01662309F472CFC801EC
:101470000E947409F6CF262F2F7320682B8386E0F5
:10148000769567958A95E1F76031710538F4606E5D
:101490006C835E01B5E0AB0EB11CE3CF60686C837A
:1014A000CD825E01E6E0AE0EB11CDBCF32969081BC
:1014B000992309F489CF8913F9CF8181882309F40D
:1014C00083CFF8011486682FAFCF0190F081E02D13
:1014D0008085882319F084E090E047CF90E080E099
:1014E00044CF4F925F926F927F928F929F92AF9272
:1014F000BF92CF92DF92EF92FF920F931F93CF9301
:10150000DF93EB01DC012C912B32D9F12D32D1F597
:101510000196FF24F394FC01208130ED320F3A3024
:1015200018F02E3209F042C18C0160E070E0CB016E
:10153000F801219130ED832E820E39E0381520F12B
:101540006A3949E97407840749E1940738F5AAE044
:10155000B0E09B01AC010E94E32B912CB12CA12C9B
:1015600024013501409450946094709446165706B7
:101570006806790698F0680D791D8A1D9B1D8F01FC
:10158000D7CF0196F12CC7CF211108C0FF20E9F178
:1015900061307105810550E89507A0F0E12CBAE0B3
:1015A0008B2E912CA12CB12C6115710530E883078D
:1015B0009105B0F1A50194010E94252CCA01B90141
:1015C000E394F2CF2C8120782A602C839B01AC011C
:1015D00088279927DC01821B930BA40BB50B88830A
:1015E0009983AA83BB838F2DDF91CF911F910F9198
:1015F000FF90EF90DF90CF90BF90AF909F908F9033
:101600007F906F905F904F9008952C812078286094
:101610002C83688379838A839B83FF24F394E3CFAD
:10162000F801D8012D918D0130ED320F3A3010F4D0
:10163000E394F6CF2E3201F58F010F5F1F4FF801B3
:101640000F5F1F4F2081A0EDDA2ED20EB9E0BD153D
:1016500098F06C3CECEC7E07ECE08E07910578F797
:10166000AAE0B0E09B01AC010E94E32B6D0D711D5F
:10167000811D911DEA94E3CF20812F7D10E000E0D1
:10168000253409F05BC021812D32D1F53296CC246E
:10169000C394DF0110E000E02E2D0E2C000C330B64
:1016A0005AE0B52EFD01DD9040ED4D0D4A3008F0B9
:1016B00040C0B09EA001B19E500D11240D2DDD0C37
:1016C000110B00531109040F151FA801420F531FDE
:1016D000473251053CF38C81CC20C9F040E050E00A
:1016E00060E070E8F11003C040E050E0BA0180789B
:1016F0008C608C83488359836A837B83FC2C73CFF3
:101700002B3219F03196C12CC4CF3296FCCF40E079
:1017100050E060E87FEFF11004C040E050E060E886
:101720007FE780788C608C83488359836A837B83CE
:1017300074CFCC2019F01195019511092081211148
:1017400035C00E0D111DE7FC1A950E948F2A34EC4E
:10175000C32E30E0D32E101611063CF011950195E2
:1017600011094CEAC42E40E0D42EE12C01151105DC
:1017700091F000FF0CC024E0E29EF0011124EC0D7A
:10178000FD1D25913591459154910E94F02A1595A2
:101790000795E394EBCFF11090582C8120782C60C2
:1017A0002C83688379838A839B8337CFF12C1BCF6B
:1017B000CF92DF92EF92FF92CF93DF9300D000D0D1
:1017C0001F92CDB7DEB7FC0184818F778630B1F0F0
:1017D00028F4843008F590E080E012C08A3021F0CF
:1017E0008C3039F18830B9F780819181A281B38141
:1017F000009721E0A207B10518F0EDCF808190E0BD
:101800000F900F900F900F900F90DF91CF91FF905E
:10181000EF90DF90CF900895808191811D82BE016D
:101820006F5F7F4F0E94710ACE0101960E94D80B14
:10183000E7CFC080D180E280F38020E030E0A901D2
:10184000C701B6010E94F92C87FDC5CF20E03FEF0C
:101850004FE757E4C701B6010E948A2A18160CF414
:10186000BACFC701B6010E94CA2CCB01C9CFCF9213
:10187000DF92EF92FF92CF93DF9300D000D01F92C0
:10188000CDB7DEB7FC0184818F778630A9F020F4D4
:10189000843080F580E011C08A30D9F08C30B9F105
:1018A0008830C1F780819181A281B3818038910510
:1018B000A105B10578F701C080810F900F900F90BE
:1018C0000F900F90DF91CF91FF90EF90DF90CF902E
:1018D000089580819181A281B381AC01BD014058FE
:1018E0005F4F6F4F7F4F4F3F51056105710509F005
:1018F00088F6E3CF808191811D82BE016F5F7F4FAB
:101900000E94710ACE0101960E94370CD6CFC0808A
:10191000D180E280F38020E030E040E053ECC7016A
:10192000B6010E94F92C87FDB5CF20E030E04EEFE4
:1019300052E4C701B6010E948A2A18160CF4AACFF5
:10194000C701B6010E94C32C862FB7CFCF92DF927A
:10195000EF92FF92CF93DF9300D000D01F92CDB7CC
:10196000DEB7FC0184818F778630B1F020F48430BB
:1019700000F580E012C08A3021F08C3039F18830D7
:10198000C1F780819181A281B3818F3F9105A1052B
:10199000B10519F010F0EDCF80810F900F900F90EE
:1019A0000F900F90DF91CF91FF90EF90DF90CF904D
:1019B0000895808191811D82BE016F5F7F4F0E94DB
:1019C000710ACE0101960E94A60CE7CFC080D1809B
:1019D000E280F38020E030E0A901C701B6010E9457
:1019E000F92C87FDC6CF20E030E04FE753E4C70174
:1019F000B6010E948A2A18160CF4BBCFC701B601A3
:101A00000E94CA2C862FC9CFCF92DF92EF92FF920D
:101A1000CF93DF9300D000D01F92CDB7DEB7FC018B
:101A200084818F77863091F030F4843040F560E027
:101A300070E0CB010FC08A30C9F08C3069F188307A
:101A4000B1F7608171818281938104C0608170E00F
:101A500090E080E00F900F900F900F900F90DF912B
:101A6000CF91FF90EF90DF90CF900895808191818A
:101A7000A281B381B7FDDBCFBC01CD01EBCF80816B
:101A800091811D82BE016F5F7F4F0E94710ACE015E
:101A900001960E94040DDECFC080D180E280F380E9
:101AA00020E030E0A901C701B6010E94F92C87FDB2
:101AB000BECF2FEF3FEF4FE75FE4C701B6010E94B3
:101AC0008A2A18160CF4B3CFC701B6010E94CA2C9B
:101AD000C1CFCF93DF93DC01EB01EC81FD818A81E3
:101AE0009B810896E817F90740F481E08887F0E0C9
:101AF000E0E0CF01DF91CF9108953897FD83EC832B
:101B00003097B9F31296CD91DC911397209791F00D
:101B1000CF018C1B9D0B23E0959587952A95E1F7C6
:101B20008D831396FC93EE9312971582148217827D
:101B30001682DFCF1196FC93EE93F3CFFC018481E4
:101B4000982F9F7739F48078806484831182108283
:101B500013821282848186FF03C0CF010C94690D29
:101B600090E080E00895CF92DF92EF92FF920F9382
:101B70001F93CF93DF9300D000D0CDB7DEB76C01B9
:101B80008B01DC011296ED90FC90FA82E9827C8355
:101B90006B83BE016F5F7F4F0E944109009761F424
:101BA000F701E00FF11FCF010196D60113969C9328
:101BB0008E9312971082C7010F900F900F900F9085
:101BC000DF91CF911F910F91FF90EF90DF90CF9019
:101BD0000895FC012581222339F0F8E02F029001BD
:101BE0001124820F931F089590E080E00895EF92F2
:101BF000FF920F931F93CF93DF938C017B01FC0126
:101C0000C081D181209731F0CE010E94E90DE81604
:101C1000F906E9F4C7010E94E90D2097D1F020E010
:101C2000009741F09C012C1B3D0B43E03595279517
:101C30004A95E1F72D83892B19F4F801D383C283E8
:101C4000DF91CF911F910F91FF90EF900895EC01DC
:101C5000D9CFF80191838083EECFFC010190002061
:101C6000E9F73197AF01481B590BBC0189EF94E0AC
:101C70000C94880386ED91E00C942D0E8F929F9228
:101C8000AF92BF920F931F93CF93DF93CDB7DEB781
:101C9000A1970FB6F894DEBF0FBECDBF19A2423098
:101CA00008F44AE08E010F5D1F4F842E912CB12C59
:101CB000A12CA50194010E94252CE62FB901CA018F
:101CC000EA30F4F4E05DD801EE938D01232B242B50
:101CD000252B79F790E080E0109719F0CD010E9454
:101CE0002D0EA1960FB6F894DEBF0FBECDBFDF91CB
:101CF000CF911F910F91BF90AF909F908F900895BB
:101D0000E95CE1CFCF93DF93D0E0C0E0009719F01A
:101D10000E942D0EEC010E943A0E8C0F9D1FDF9148
:101D2000CF910895FF920F931F93CF93DF93EC0110
:101D3000F62E8A0186E191E09983888362E370E060
:101D400080E090E00E946E02C8010E94820EFA823A
:101D50001C830B83DF91CF911F910F91FF9008950A
:101D60001F93CF93DF93EC01142FA9010E94920ED1
:101D700086E291E09983888388E391E09E838D8356
:101D80001F8360E0812FDF91CF911F910C94F401AC
:101D90000F931F93CF93DF938C0189ED91E00E9405
:101DA0002D0ED8015E96ED91FC91838194810E9465
:101DB000820EF801C68DD78D8E81882379F060E080
:101DC0008D810E9483011E820F80D885C02D60E026
:101DD0008D810E9483018E8181508E83D8015D9612
:101DE0001C92DF91CF911F910F910895CF92DF92B6
:101DF000EF92FF920F931F93CF93DF93EC016A0151
:101E00007B0185EE91E00E942D0EEE8DFF8D83818A
:101E100094810E94820E4C855D856E857F854C0D78
:101E20005D1D6E1D7F1D488B598B6A8B7B8B0E8DC4
:101E30001F8DF8018681811112C061E085810E94A9
:101E4000830181E0F80186830781108561E0F80154
:101E500085810E948301F80186818F5F868381E0FE
:101E60008D8FDF91CF911F910F91FF90EF90DF90B9
:101E7000CF9008955F926F927F928F929F92AF92D0
:101E8000BF92CF92DF92EF92FF920F931F93CF9367
:101E9000DF9300D000D01F92CDB7DEB75C014A01BE
:101EA000FC011182108213821282FB01E080F1801A
:101EB000E114F10409F449C0F701C680D780C114C8
:101EC000D104D9F15480F60101900020E9F731974F
:101ED0003F016C187D08B401C5010E94690D8C0199
:101EE000009789F157FC12C0FC0184818F778483AD
:101EF000D782C682C801A401B7010E94C00F8823FF
:101F000011F1C7010E94E90D7C01D2CF2C2DDA829C
:101F1000C982462D7C826B821D823A815C8160E0A1
:101F2000C4010E9448079C01892B29F1F801948182
:101F30009068948337832683DDCFB401C5010E9466
:101F4000690D0097C1F680E001C081E00F900F900D
:101F50000F900F900F90DF91CF911F910F91FF90F5
:101F6000EF90DF90CF90BF90AF909F908F907F9039
:101F70006F905F900895B801C5010E94F70DE3CFFF
:101F8000AF92BF92CF92DF92EF92FF920F931F9387
:101F9000CF93DF93CDB7DEB72B970FB6F894DEBFA4
:101FA0000FBECDBF8C017A01FB0124812F77253034
:101FB000C9F198F4233009F47AC0F801848180785B
:101FC000282B2483FB0180819181A281B381F801B8
:101FD00080839183A283B38339C0FC019481203232
:101FE000F1F090789064203441F79483118210824C
:101FF00013821282A701C8010E943A0F2B960FB6D6
:10200000F894DEBF0FBECDBFDF91CF911F910F912E
:10201000FF90EF90DF90CF90BF90AF9008959078B1
:102020009062E3CFCB010E94C70729833A834B8399
:102030005C836D837E83D42EC52E49815A814115E0
:10204000510531F4F80184818078848381E0D6CF12
:102050008D819E81019751F4F8018481807884609C
:10206000848351834083D282C382F0CF242F588748
:102070004F834D2DD986CA8638855C2D60E0C70117
:102080000E9448079C01F801948190782115310540
:1020900061F09560948331832083D282C38281E092
:1020A000232B09F0ABCF80E0A9CF9483F8CFA28097
:1020B000B380C080D180DA82C982BC82AB82C11475
:1020C000D104B9F0BE016F5F7F4FCA010E94410980
:1020D000009739F5F7018281938195012F5F3F4F7A
:1020E000280F391F448155814217530738F481E086
:1020F0008087F801848180788483D5CF33832283DD
:102100000097B9F3F601DC01A6014A0D5B1DE41747
:10211000F50719F021912D93FACFFC01EA0DFB1D73
:102120001082F801248120782360248391838083A6
:10213000B382A2828BCFCF93DF936115710579F1C2
:10214000EB01DC018D919C91009759F1DC01169611
:10215000ED91FC91DE010D900020E9F71197AD01A2
:102160004C1B5D0B30E020E0309749F0DF010D9013
:102170000020E9F79D01215031092E1B3F0B241748
:10218000350751F4DE012C0F3D1F2A173B0749F09C
:102190005D9141915417C9F30E94E90DD5CF90E0AC
:1021A00080E0DF91CF9108959F92AF92BF92CF923E
:1021B000DF92EF92FF920F931F93CF93DF93EC0187
:1021C0007B01D42E0E941F098C01892B09F052C07B
:1021D000CE010E94C108863609F455C194F58732B4
:1021E00029F08B35D1F1823209F056C1E881F981AD
:1021F000828193819B838A8384819581228133812B
:10220000821B930B9F838E831D821C82892B11F46A
:1022100081E08087CE010E948E098C01892B51F5C7
:10222000AC80BD80B501888199810E94B30DF70112
:10223000248120782560248391838083B382A282C5
:1022400019C0843709F408C18B3709F453C08E369E
:1022500009F022C16DEB72E008C1F701848180783A
:10226000806484831182108213821282D1100FC085
:1022700005E010E0C801DF91CF911F910F91FF9011
:10228000EF90DF90CF90BF90AF909F9008951C8605
:10229000CE010E941F09009709F02DC16DE5CE0106
:1022A0000E94EB088111E6CFDA946D857E85C70127
:1022B0000E94690D009709F46EC04D2DBC01CE013E
:1022C0000E94D410009709F016C1CE010E941F0988
:1022D000009709F010C16DE5CE010E94EB08811155
:1022E000C9CF6CE2CE010E94EB088111DECF03E082
:1022F00010E0C0CFF70184818078806284831182EE
:10230000108213821282DD2009F4B2CF1C86CE0126
:102310000E941F09009709F0EEC06DE7CE010E94F0
:10232000EB088111A7CFBB24B394DA94E881F9813B
:10233000828193819B838A838481958122813381E9
:10234000821B930B9F838E831D821C82892B09F431
:10235000B086CE010E94C108873201F18232F1F0CD
:10236000CE010E94C108182F0E944E08882309F44C
:10237000BECF1C86612FCE010E947409CE010E943F
:10238000C108182F0E944E088111F3CFE881F9810E
:102390008085882351F004E010E06CCFCE010E94CC
:1023A0008E098C01892B09F065CFCE010E941F098F
:1023B0008C01892B09F05ECF6AE3CE010E94EB0805
:1023C000882309F494CFEA81FB818C819D81E80FF9
:1023D000F91F10820C811D816A817B81C7010E94D7
:1023E0009B10BC01892BA1F4B801888199810E94BE
:1023F000B30D8C016D857E85C7010E94690DFC01BE
:10240000892B49F284818068848317830683BF0106
:102410004D2DCE010E94D4108C01892B09F02ACFBA
:10242000CE010E941F098C01892B09F023CF6DE793
:10243000CE010E94EB0881111DCF6CE2CE010E94FB
:10244000EB08882309F453CFCE010E941F098C01A9
:10245000892B09F46BCF0ECFF701848180788660D9
:10246000848381E0808361EF71E0CE01DF91CF91C1
:102470001F910F91FF90EF90DF90CF90BF90AF90A2
:102480009F900C94FC08F701848180788660848397
:10249000108266EF71E0E9CFCE010E94C1085E01B3
:1024A000FFE0AF0EB11CD12C9A2CCB2C803374F0F2
:1024B0008A3374F49FE3D91699F01C86D394F501FE
:1024C00081935F01CE010E94C108F0CF8B3291F35E
:1024D00093ED980F923070F3982F9F7D953451F3C0
:1024E000CD0DD11D1F86B701892D9C2D0E94710A2B
:1024F0008111C0CEFCCE8C01BDCE009729F0FC012D
:10250000248125FD0C949B1090E080E008958F922B
:102510009F92AF92BF92CF92DF92EF92FF92CF93B2
:10252000DF93EC01FB0169EE72E0808191810E94F2
:102530007D12FC01892B51F08A8194819F7798301C
:1025400009F44DC030F4963009F45BC030E020E06F
:1025500022C09A3081F19C30C9F7C080D180E280DE
:10256000F380682F70E090E080E00E948F2A4B019A
:102570005C01AC019B01C701B6010E948A2A87FD5C
:1025800045C0A5019401C701B6010E94F92C181697
:102590001CF522E030E081E02130310509F080E0D7
:1025A000DF91CF91FF90EF90DF90CF90BF90AF90F1
:1025B0009F908F900895408151816281738190E056
:1025C000B0E0A0E0481759076A077B07FCF08417C2
:1025D0009507A607B707ECF221E030E0DCCF408199
:1025E00051816281738190E0B0E0A0E04817590703
:1025F0006A077B0758F084179507A607B70760F7A7
:10260000C8CF408150E070E060E0EDCF24E030E0E2
:10261000C2CFEF92FF920F931F93CF93DF937C0172
:10262000EB010E948712182F882381F16CEF71E073
:10263000888199810E947D120E940208882369F096
:102640006CEF71E0888199810E947D12009731F1D1
:102650000E94D80BF7019287818766E072E088813B
:1026600099810E947D120E940208082F882371F030
:1026700066E072E0888199810E947D12009789F05E
:102680000E94D80BF70194878387102F812FDF9149
:10269000CF911F910F91FF90EF90089590E080E00F
:1026A000D9CF90E080E0EECFEF92FF920F931F938F
:1026B000CF93DF93EC01892B49F490E080E0DF9128
:1026C000CF911F910F91FF90EF9008958C81982FDB
:1026D0009F7739F4807880628C83198218821B82FC
:1026E0001A828C8185FFE9CF6115710531F37A017A
:1026F0008B01CE010E949B10009709F7B701CE0114
:102700000E94690D0097D9F2FC0124812F77248360
:1027100017830683D4CFCF93DF93DC01FB01948131
:1027200090781097A1F0ED0109900020E9F721972A
:10273000CA1BDB0B94609483B183A083D383C283D1
:1027400081E0AB2B09F480E0DF91CF910895948371
:10275000F7CF6115710549F0009729F4FB018481D9
:102760008078848308950C948B130895EF92FF92E0
:102770000F931F93CF93DF937C018B01CB010996BD
:102780000E949E0DEC01892B41F08C818078806243
:102790008C83198218821B821A82A80169EE72E06A
:1027A000CE010E945413BC01F70182810E943907B7
:1027B000F701E380F480A80161E172E0CE010E949C
:1027C0005413BC01C7010E94A913BE01C801DF91C7
:1027D000CF911F910F91FF90EF900895CF92DF92CC
:1027E000EF92FF92CF93DF93EC010E94B6136B013F
:1027F0007C01AC0166E172E0C6010E945413FC0149
:10280000892B31F08E8194819078966094838083B7
:10281000C701B601DF91CF91FF90EF90DF90CF908D
:1028200008958F929F92AF92BF92CF92DF92EF92D4
:10283000FF92CF93DF93EC010E94B6136B017C01F2
:10284000E881F9810484F585E02DCE0109954B01DD
:102850005C01A70166E172E0C6010E945413FC010D
:10286000892B41F0948190789C609483808291823E
:10287000A282B382C701B601DF91CF91FF90EF90A2
:10288000DF90CF90BF90AF909F908F9008958F92E0
:102890009F92AF92BF92CF92DF92EF92FF92CF932F
:1028A000DF93EC010E94B6136B017C01AC016CEF6D
:1028B00071E0C6010E945413FC01892B69F029853F
:1028C0003A859481907898609483C901B0E0A0E043
:1028D00080839183A283B383A70166E072E0C6017F
:1028E0000E945413FC01892B69F02B853C8594814F
:1028F000907898609483C901B0E0A0E080839183D0
:10290000A283B383E881F9810484F585E02DCE01AB
:1029100009954B015C01A70166E172E0C6010E94C6
:102920005413FC01892B41F0948190789C6094832E
:1029300080829182A282B382C701B601DF91CF91DA
:10294000FF90EF90DF90CF90BF90AF909F908F90CF
:102950000895CF92DF92EF92FF92CF93DF93EC0135
:102960000E94B6136B017C01AC0166E172E0C60106
:102970000E945413BC018E810E943907C701B60121
:10298000DF91CF91FF90EF90DF90CF900895CF929D
:10299000DF92EF92FF92CF93DF93EC010E94B61388
:1029A0006B017C01E881F9810484F585E02DCE017D
:1029B0000995A70166E172E0C6010E945413FC016B
:1029C000892B71F028853985948190789A60948359
:1029D000C901330FAA0BBB0B80839183A283B383FE
:1029E000C701B601DF91CF91FF90EF90DF90CF90BC
:1029F0000895FB0101900020E9F73197AF01461BD4
:102A0000570B0C9460081F93CF93DF93E5ECF1E034
:102A10001281112379F0329621816213F9CFEC01F2
:102A20006CE50E943908612FCE01DF91CF911F9193
:102A30000C9439086111F9CF6CE172E0DF91CF910C
:102A40001F910C94F9142F923F924F925F926F92C4
:102A50007F928F929F92AF92BF92CF92DF92EF922E
:102A6000FF920F931F93CF93DF93CDB7DEB76C9791
:102A70000FB6F894DEBF0FBECDBF8C011B01DC0189
:102A800014968C9114978F77863009F499C268F563
:102A90008230A0F11296ED90FC901397CC90119695
:102AA000DC90843008F05DC2A701B601C1010E942C
:102AB0006008F101828193816C960FB6F894DEBFB5
:102AC0000FBECDBFDF91CF911F910F91FF90EF907F
:102AD000DF90CF90BF90AF909F908F907F906F903E
:102AE0005F904F903F902F9008958C3069F160F483
:102AF000883009F460C28A3009F446C26DEB72E096
:102B0000C1010E94F914ECC1803209F4F3C1803490
:102B1000A9F76BE5C1010E943908F8010081118114
:102B20000115110509F4E1C1B101C8010E94231585
:102B3000C8010E94E90D8C01892B09F4D6C16CE211
:102B4000C1010E943908ECCFF801C080D180E28039
:102B5000F380A7019601C701B6010E948A2A81115C
:102B6000CDCF20E030E0A901C701B6010E948A2A3A
:102B7000882379F0A7019601C701B6010E94572C5E
:102B80009B01AC01C701B6010E948A2A882309F47F
:102B9000B5CF20E030E0A901C701B6010E948A2A22
:102BA00087FF08C06DE2C1010E943908F7FAF0946E
:102BB000F7F8F09420E836E948E15BE4C701B60194
:102BC0000E94F92C87FD88C074E1A72EB12C00E289
:102BD00010E0188E1F8AF501EC53FF4F6591759137
:102BE00085919491A70196010E948A2A18169CF05B
:102BF000F501E455FF4F2591359145915491C70159
:102C0000B6010E94F02A6B017C012F89388D200FBC
:102C1000311F388F2F8B1595079534E0A31AB10813
:102C20008CEFA8168FEFB806B1F655245A9420E021
:102C300030E0A901C701B6010E94F92C18160CF06A
:102C400052C02CEA35EC47E257E3C701B6010E94B7
:102C50008A2A18160CF447C0A52DB4E0AB02C001B7
:102C60001124B12CA12CFC01E455FF4F3F019C0124
:102C70002C533F4F49013FEF531609F434C0F30181
:102C8000EA0DFB1D659175918591949120E030E0EE
:102C900040E251E40E94F02AA70196010E94F92C1B
:102CA00018169CF4F401EA0DFB1D25913591459110
:102CB0005491C701B6010E94F02A6B017C018F89F3
:102CC000988D801B910B988F8F8B159507955A9433
:102CD00094E0A91AB108CFCF00E210E055E0552EDC
:102CE000188E1F8AA4CFC701B6010E94CA2C4B01BF
:102CF0005C012B013C0106E080E492E4AFE0B0E02F
:102D0000898F9A8FAB8FBC8F102F01509AE0491694
:102D1000510461047104C8F0698D7A8D8B8D9C8D8E
:102D20002AE030E040E050E00E94252C298F3A8FC5
:102D30004B8F5C8FC301B2012AE030E040E050E0ED
:102D40000E94252C29013A01DFCFC501B4010E9460
:102D50008F2A9B01AC01C701B6010E94562C6B0162
:102D60007C01698D7A8D8B8D9C8D0E948F2A9B01B1
:102D7000AC01C701B6010E94F02A2B013C010E9460
:102D8000CA2C6B017C010E948F2A9B01AC01C301FC
:102D9000B2010E94562C9B01AC010E94572C0E944C
:102DA000CA2CC60ED71EE81EF91E898D9A8DAB8DD2
:102DB000BC8DC816D906EA06FB06D8F09FEF891A23
:102DC000990AA90AB90AAF89B88DAB2B39F1BAE0D3
:102DD0008B169104A104B10408F1EF89F88D3196A6
:102DE000F88FEF8BC12CD12C7601812C912C5401C2
:102DF00083942AE0422E512C612C712CC701B6011C
:102E0000A30192010E94252C672B682B692B51F49A
:102E1000111644F469017A011150F0CFC12CD12C64
:102E20007601E7CFB501A401C1010E947508112305
:102E300071F14E01F1E18F0E911C012F54019AE0C6
:102E4000492E512C612C712C015068F0C701B6013C
:102E5000A30192010E94252C605DD4016E934D0167
:102E600069017A01F1CF812F90E0BC0160957095E6
:102E7000F501E81BF90B31978EE280834427552733
:102E8000461B570B6A0D7B1DC1010E946008EF892C
:102E9000F88DEF2B29F165E6C1010E9439080F89F1
:102EA000188D17FF07C06DE2C1010E943908119506
:102EB00001951109FE0177969F018AE0E82EF12C19
:102EC000C801B7010E940A2D805D82938B01672B98
:102ED000B9F7A9014E1B5F0BBF01C1010E94600839
:102EE000D10112968D919C91E7CD6DE5C1010E94B3
:102EF0003908F6CF6BE7C1010E943908F80100815B
:102F000011810115110559F1D8011696CC9016972B
:102F10001796DC9062E2C1010E9439087601F70140
:102F200061917F01662321F0C1010E940315F7CF53
:102F300062E2C1010E9439086AE3C1010E943908B6
:102F4000B101C8010E942315C8010E94E90D8C013E
:102F5000892B29F06CE2C1010E943908D2CF6DE7BC
:102F6000C5CF62E2C1010E9439088601E00EF11E60
:102F7000E016F10639F0F80161918F01C1010E945C
:102F80000315F6CF62E2B2CFCD90DD90ED90FC90CC
:102F9000B701A601F7FE0BC06DE2C1010E9439081E
:102FA00044275527BA014C195D096E097F09C101F3
:102FB0000E9475087ECD4D915D916D917C91F7CF0A
:102FC0008C9161EF71E0811102C066EF71E0C10187
:102FD0000E94F9146ECD2F923F924F925F926F92A2
:102FE0007F928F929F92AF92BF92CF92DF92EF9299
:102FF000FF920F931F93CF93DF9300D000D000D0A8
:103000001F92CDB7DEB77C0119828090A704909003
:10301000A804D40114968D919C911597892B09F4DD
:1030200018C18C9191E09093D5048093F70410928D
:10303000D6041092F80420E041E050E0BE016F5F3A
:103040007F4FC4010E948406882309F402C1B12C79
:10305000A12CA7E02A2E312CF401848195816101F5
:10306000CA18DB088C159D0508F46C01D4010C917D
:103070000E9449022B013C018091CF04811173C051
:103080001C2D113208F010E2B1E0B093CF0421E022
:10309000C1018C199D09A816B90608F420E02093F7
:1030A000CE04EFEFE093CD041092CC048FEF810FAC
:1030B0008093CB04F1E0F093AA048091AA04000F5E
:1030C000082B0093AA048091A904813009F094C0D0
:1030D0001092A9040E9449022B013C018091AA048C
:1030E0008093BB008091D1049091D204A091D3042D
:1030F000B091D404892B8A2B8B2BA1F00E9449021A
:103100002091D1043091D2044091D3045091D40441
:10311000641975098609970926173707480759075B
:1031200008F442C08091BC0083FDD8CF85EC809329
:10313000BC000E9449022B013C018091CF048130E8
:1031400009F45EC08091CC04811710F41091CC0476
:10315000ABEAB4E0E7E8F4E080E0811751F19D913B
:1031600091938F5FFACF8091D1049091D204A09176
:10317000D304B091D404892B8A2B8B2B09F47CCFF8
:103180000E9449022091D1043091D2044091D3048D
:103190005091D404641975098609970926173707D1
:1031A0004807590708F068CF8091D0040E94EA04CC
:1031B00010E010928604109385041C151D0409F07C
:1031C00048C001E010E00C0F1D1F0A0D1B1D380147
:1031D000C801861997098C159D05A0F5F401818118
:1031E0009281DC01ED91FC910284F385E02D09953B
:1031F000F80181938F01ECCFA5EEA093BC0099CF8D
:103200008091D1049091D204A091D304B091D404C0
:10321000892B8A2B8B2B09F490CF0E944902209195
:10322000D1043091D2044091D3045091D404641954
:10323000750986099709261737074807590708F0BF
:103240007CCFB2CFAC0CBD1CF7E0AF16B10408F4D4
:1032500003CFE981EF77FA811B814D815E818F81F8
:10326000282F30E094E0359527959A95E1F7922F35
:10327000990F990F291B220F280FD7012C93852F07
:1032800090E024E0959587952A95E1F7982F990F7E
:10329000990F891B880F850F11968C931197642FB6
:1032A00070E034E0759567953A95E1F7862F880FC1
:1032B000880F681B660F640F12966C931297412F4C
:1032C00050E064E0559547956A95E1F7842F880FA3
:1032D000880F481B440F410F13964C9313972F2FC1
:1032E00030E074E0359527957A95E1F7822F880FC5
:1032F000880F281B220F2F0F14962C9314978E2FB4
:1033000090E0F4E095958795FA95E1F7982F990F5D
:10331000990F891B880F8E0F15968C93C7012796DE
:103320000FB6F894DEBF0FBECDBFDF91CF911F91D6
:103330000F91FF90EF90DF90CF90BF90AF909F9054
:103340008F907F906F905F904F903F902F90089557
:10335000CF92DF92EF92FF92CF93DF936C01990FA0
:10336000EE08FF08F7FE1DC06DE289EF94E00E94B1
:103370000D04EC0166277727CB016C197D098E09B6
:103380009F094AE00E943E0EC80FD91F0E943A0EC4
:103390008C0F9D1FDF91CF91FF90EF90DF90CF902A
:1033A00008954AE0C701B6010E943E0EEC01EECF3F
:1033B0008F929F92AF92BF92CF92DF92EF92FF9245
:1033C0000F931F93CF93DF93EC018B010E94B613F1
:1033D0006B017C01AC0163E272E0C6010E945413F0
:1033E000FC01892B61F04C855D856E857F8594811C
:1033F0009078986094834083518362837383A7019C
:103400006EE272E0C6010E945413FC01892B61F048
:10341000488959896A897B899481907898609483D6
:103420004083518362837383A7016AE372E0C6011C
:103430000E945413FC01892B31F08D8D948190787A
:10344000966094838083A70168E472E0C6010E94BD
:103450005413FC01892B61F04C895D896E897F8949
:1034600094819078986094834083518362837383BE
:10347000A70164E572E0C6010E945413FC01892B88
:1034800061F0488D598D6A8D7B8D9481907898601C
:1034900094834083518362837383A7016FE572E055
:1034A000C6010E945413BC018B850E943907A701F5
:1034B0006CE672E0C6010E945413FC01892B31F0C6
:1034C0008C8D9481907896609483808386E792E0D7
:1034D0000E94820E89859A850E94A81989859A85FD
:1034E0008134910559F4A7016DE772E0C6010E948D
:1034F0005413BC0182E892E00E94A91389859A8541
:103500008435910559F4A7016DE772E0C6010E9468
:103510005413BC0187E892E00E94A91389859A851B
:103520008D34910559F4A7016DE772E0C6010E9440
:103530005413BC018DE892E00E94A9138E8D9F8DDB
:10354000009709F448C0DC01ED91FC910280F38101
:10355000E02DB80109954B01A70164E972E0C601AD
:103560000E945413009739F08114910479F5FC01FD
:1035700024812078248388A199A10097B1F1DC01EE
:10358000ED91FC910280F381E02DB80109954B018A
:10359000A70168EA72E0C6010E945413009739F04F
:1035A00081149104E9F4FC01248120782483C7016B
:1035B000B601DF91CF911F910F91FF90EF90DF90B7
:1035C000CF90BF90AF909F908F900895A701B401C6
:1035D0000E94C00FD0CF8AE992E00E94820ECBCF2A
:1035E000A701B4010E94C00FE2CF81EB92E00E94DC
:1035F000820EDDCF4F925F926F927F928F929F9259
:10360000AF92BF92CF92DF92EF92FF920F931F93F0
:10361000CF93DF93EC016A017B0189859A8584351C
:10362000910509F063C0888D998DAA8DBB8D0C8999
:103630001D892E893F89C016D106E206F30628F0BF
:103640008C159D05AE05BF0520F52C013D01401AE6
:10365000510A620A730AAC01BD014A015B01801A7A
:10366000910AA20AB30A4C155D056E057F0528F480
:10367000440D551D661D771DF0CF4C8B5D8B6E8BF9
:103680007F8B880D991DAA1DBB1D888F998FAA8FCE
:10369000BB8F8C899D89AE89BF89C816D906EA0679
:1036A000FB06A8F04C855D856E857F85840F951F90
:1036B000A61FB71F8C159D05AE05BF0540F08D8D6B
:1036C000811105C0B701A601CE010E94F60E8D8DB5
:1036D000882361F088899989AA89BB898C159D0501
:1036E000AE05BF0518F4CE010E94C80E89859A85E3
:1036F0008134910569F56B8570E090E080E00E946F
:10370000912A4B015C0188A199A1DC01ED91FC910A
:103710000484F585E02D09959B01AC01C501B40138
:103720000E94F92C87FD05C0B701A601CE010E94B9
:10373000F60E8D8D882361F088899989AA89BB89C5
:103740008C159D05AE05BF0518F4CE010E94C80E6C
:1037500089859A858D349105E9F582EC92E00E9485
:103760002D0E6A8170E090E080E04AE00E943E0EFB
:103770000E943A0E8BEC92E00E942D0E8C8D90E010
:103780000E94A8198C8D882331F0B701A601CE01C3
:103790000E94F60E1C8E8D8D8823E1F08889998910
:1037A000AA89BB898C159D05AE05BF0598F4CE018D
:1037B000DF91CF911F910F91FF90EF90DF90CF900D
:1037C000BF90AF909F908F907F906F905F904F9041
:1037D0000C94C80EDF91CF911F910F91FF90EF9045
:1037E000DF90CF90BF90AF909F908F907F906F9021
:1037F0005F904F900895FF920F931F93CF93DF93A5
:10380000EC01F62E08811981C8010E94AE2BF81632
:1038100021F06F2DC8010E94B62BCE01DF91CF9110
:103820001F910F91FF900895BF92CF92DF92EF9278
:10383000FF920F931F93CF93DF9300D000D000D05F
:10384000CDB7DEB78C017B010E948712B82E88238A
:1038500009F4C7C063E272E0D7018D919C910E9488
:103860007D12009709F4CEC00E94040DF801648710
:1038700075878687978768E472E0D7018D919C9160
:103880000E947D12009709F4C1C00E94040DF80146
:10389000648B758B868B978B64E572E0D7018D9175
:1038A0009C910E947D12009709F4B4C00E94040DFF
:1038B000F801608F718F828F938F6FE572E0D7016F
:1038C0008D919C910E947D12009709F4A7C00E94DF
:1038D000A60CF801838767ED72E0D7018D919C916A
:1038E0000E947D12009709F49BC00E94370CF801DA
:1038F000A581B681ED91FD91309719F092818913E0
:10390000F9CFD8015F96FC93EE935E9760EE72E07C
:10391000F701808191810E947D12009709F482C095
:103920000E94370CF801A581B681ED91FD91309789
:1039300019F092818913F9CFD8019196FC93EE93F7
:1039400090976DE772E0F701808191810E947D126E
:10395000D12CC12C009731F00E94C70729833A83EC
:10396000C980DA8062E872E0C6010E94142F892BB8
:1039700039F481E490E0D8011A969C938E931997BC
:1039800067E872E0C6010E94142F892B29F484E5B0
:1039900090E0F801928781876DE872E0C6010E948D
:1039A000142F892B39F48DE490E0D8011A969C935A
:1039B0008E931997F701E080F180E114F10489F00A
:1039C0006CE672E0C7010E949B10892B51F06CE6F7
:1039D00072E0C7010E947D120E940208D8015C9625
:1039E0008C938B2D26960FB6F894DEBF0FBECDBFFD
:1039F000DF91CF911F910F91FF90EF90DF90CF90CB
:103A0000BF90089560E070E0CB0130CF60E070E0DF
:103A1000CB013DCF60E070E0CB014ACF80E059CFD1
:103A200080E065CF80E07ECFDC0199E0FB01019072
:103A30000D929A95E1F70895FC0199E0DB01019060
:103A40000D929A95E1F70895DC0198E0FB01019051
:103A50000D929A95E1F70895FC0198E0DB01019041
:103A60000D929A95E1F70895DC019DE0FB0101902C
:103A70000D929A95E1F70895FC019DE0DB0101901C
:103A80000D929A95E1F70895DC0192E2FB01019015
:103A90000D929A95E1F70895FC0192E2DB01019005
:103AA0000D929A95E1F70895DC0197E0FB010190F2
:103AB0000D929A95E1F70895FC0197E0DB010190E2
:103AC0000D929A95E1F70895DC019AE0FB010190CF
:103AD0000D929A95E1F70895FC019AE0DB010190BF
:103AE0000D929A95E1F70895AF92BF92CF92DF922F
:103AF000EF92FF920F931F93CF93DF9300D000D0EC
:103B000000D01F92CDB7DEB710E000E08CEEC82EDB
:103B100082E0D82ECE0101965C01F12CE12CC80187
:103B20008E0D9F1D0E94AE2B1F928F93DF92CF921E
:103B3000BF92AF920E94242FC5010E942D0E60E219
:103B400089EF94E00E940D049FEFE91AF90A0F90A3
:103B50000F900F900F900F900F9082E3E816F104F2
:103B6000F1F60E943A0E0C5E1F4F003991E01907E2
:103B7000A1F627960FB6F894DEBF0FBECDBFDF913A
:103B8000CF911F910F91FF90EF90DF90CF90BF905A
:103B9000AF9008950E94062F85ED8093BC00809120
:103BA000D1049091D204A091D304B091D40407968B
:103BB000A11DB11D23E0B695A795979587952A95E8
:103BC000D1F72091BC0024FD03C01092CF040895CA
:103BD0004091D1045091D2046091D3047091D404E7
:103BE000452B462B472B69F30097A105B10541F002
:103BF0002AE22A95F1F700C00197A109B109E1CFA6
:103C00008091D0040C94EA041F920F920FB60F9289
:103C100011242F933F938F939F93AF93BF938091E2
:103C20006B0490916C04A0916D04B0916E0430917E
:103C30006A0423E0230F2D3758F50196A11DB11D0D
:103C400020936A0480936B0490936C04A0936D049A
:103C5000B0936E0480916F0490917004A0917104F0
:103C6000B09172040196A11DB11D80936F049093D1
:103C70007004A0937104B0937204BF91AF919F91AF
:103C80008F913F912F910F900FBE0F901F9018951D
:103C900026E8230F0296A11DB11DD2CF1F920F92CD
:103CA0000FB60F9211248F939F938091E100909112
:103CB000E100937F9093E10083FF0FC01092E90031
:103CC00091E09093EB001092EC0092E39093ED0062
:103CD0001092800498E09093F00082FF22C093E05D
:103CE0009093E9009091F200992319F09AE3909350
:103CF000E80090912B04992341F090912B0491506E
:103D000090932B04911101C05D9A90917F049923A7
:103D100041F090917F04915090937F04911101C0E4
:103D2000289A84FF18C08091E2008E7E8160809383
:103D3000E2008091E1008F7E8093E10080912C046D
:103D40008E7E806180932C049F918F910F900FBE87
:103D50000F901F90189580FFF7CF8091E2008E7E24
:103D600080618093E2008091E1008E7E8093E1008B
:103D700080912C048E7E8160E5CF1F920F920FB64A
:103D80000F921124CF92DF92EF92FF920F931F9325
:103D90002F933F934F935F936F937F938F939F9353
:103DA000AF93BF93EF93FF93CF93DF93CDB7DEB77E
:103DB0006C97DEBFCDBF1092E9008091E80083FFD1
:103DC00025C068E0CE0145960E94260382EF8093CD
:103DD000E8008D8987FF39C09091E80090FFFCCF03
:103DE000982F907609F034C19E894F89588D2F897C
:103DF000F88C911131C0803861F580912D04809349
:103E0000F1001092F1008EEF8093E8006C960FB6EF
:103E1000F894DEBF0FBECDBFDF91CF91FF91EF9140
:103E2000BF91AF919F918F917F916F915F914F91D2
:103E30003F912F911F910F91FF90EF90DF90CF90C6
:103E40000F900FBE0F901F9018959EEF9093E80073
:103E5000C7CF1092F100D5CF913059F48111D3CF53
:103E60004130510581F680912D048D7F80932D0482
:103E7000CACF933049F48111C6CF4130510519F6AC
:103E800080912D048260F2CF953041F48091E8005A
:103E900080FFFCCF20682093E300B5CF963009F077
:103EA000A9C00B8D1C8D22E01092E900109229040C
:103EB00010922804F2122EC01092270410922604A9
:103EC0000E94F5021F8299E09983FA8291E09E8315
:103ED00090EA98879AEF99872091280430912904D5
:103EE000275F3F4F3C832B838D831092E900109214
:103EF000290410922804109327040093260449E013
:103F000050E0BE016F5F7F4F80E00E94CF020E94B1
:103F1000F50279CF10932704009326040E946F01C5
:103F2000DC0112960D911C910115110509F451C186
:103F3000D801ED91FC910480F581E02DBE016B5E0E
:103F40007F4FC8010995009709F03EC1F80100852F
:103F50001185EACFF3E0FF120EC08F89882309F4A0
:103F600040C0823061F440E860E189E591E00E9460
:103F70005322811148CF81E28093EB0047CF8130FB
:103F800029F440E86BE08DE491E0F1CF833099F7BC
:103F90000E946F01DC011296ED90FC908E010F5F84
:103FA0001F4F6801E114F10479F0D701ED91FC9104
:103FB0000680F781E02DB801C7010995080F111D92
:103FC000F701E084F184EECFD8011C92F601019054
:103FD0000020E9F73197BF016C197D0940E0C60167
:103FE000C6CF67E371E0FB01449150E080E80E9496
:103FF000CF0209CF973009F4BECF983021F481E089
:104000008093F10000CF993009F0FDCE837009F064
:10401000B2CFEBE3F1E081E031E096E3219122239E
:1040200071F08093E9003093EB00DF0111972C9140
:104030002093EC009093ED008F5F873079F78EE747
:104040008093EA001092EA008F8980938004DBCE8F
:104050008B8D9C8D1092E9001092290410922804F7
:104060009093270480932604898D811192C08E89B4
:104070009D89913A49F4813209F07DCF47E050E0C3
:1040800064E071E080E0B3CF913209F074CF833205
:1040900069F48F89988DB0E0A0E08093000190933F
:1040A0000101A0930201B0930301ADCE803269F407
:1040B0008091E80082FFFCCF67E084E091E00E94FD
:1040C00026038BEF8093E8009ECE823209F09BCED0
:1040D0008F8980930B01EEEFFFE7859194918B3FE1
:1040E0009C4D51F1E0E0F8E08091040190910501D0
:1040F000A0910601B0910701803B9440A105B10554
:10410000F1F480910B0180FD1AC0EE3F8AE0F807C0
:1041100089F587E797E7918380838091600080939A
:104120002A0488E19BE00FB6F894A895809360007C
:104130000FBE9093600067CEEEEFFAE0D5CF80819E
:1041400091818737974709F05ECEA89580916000EE
:1041500088618093600080912A0480936000EE3F24
:104160002AE0F20789F08091FE0A9091FF0A91837C
:10417000808349CE808191818737980751F290934F
:10418000FF0A8093FE0AC5CF1092FF0A1092FE0A22
:104190003ACE0E946F01DC0112960D911C9101151F
:1041A000110509F4E8CED801ED91FC910190F08160
:1041B000E02DBE016B5E7F4FC8010995811123CEB2
:1041C000F80100851185EBCF181619060CF41BCEEB
:1041D000D2CEF1E0FF12BECE6BE371E004CF1F92AE
:1041E0000F920FB60F9211242F933F934F935F932B
:1041F0006F937F938F939F93AF93BF93EF93FF93AF
:104200008091B900887F803609F44AC0F0F5883281
:1042100009F4A7C018F5803109F49BC0B8F48823CD
:1042200009F4F9C0883009F494C0FF91EF91BF916F
:10423000AF919F918F917F916F915F914F913F913E
:104240002F910F900FBE0F901F901895883109F491
:1042500088C0803251F78093CD0414C0803409F4B3
:104260009DC040F48033B9F38833F9F68093CD04D0
:1042700085ECB0C0803509F485C0883509F496C056
:10428000883499F60E94CC1DD0CF883909F48CC0AF
:1042900038F5883729F050F4883611F0803729F640
:1042A00083E08093CF041092250457C0883809F426
:1042B0007BC0803919F0803809F0B7CF8091250490
:1042C000803208F071C0E091250481E08E0F809368
:1042D00025048091BB00F0E0EB5FFB4F80833DC085
:1042E000803B39F0E0F4803A09F479C0883A09F06B
:1042F0009CCF84E08093CF041092040410920304B6
:10430000E0918304F0918404099580910304811164
:104310000FC081E0809303041092E30309C0803C46
:1043200009F4A6CF883C09F4A3CF883B09F07DCFE0
:10433000E091040481E08E0F80930404F0E0ED51DD
:10434000FC4F80818093BB00909104048091030412
:1043500029C08091AA048093BB0085EC8093BC00A7
:1043600064CF9091CC048091CB04981758F5E091DC
:10437000CC0481E08E0F8093CC04F0E0E555FB4F38
:104380008081E9CFE091CC0481E08E0F8093CC0452
:104390008091BB00F0E0E555FB4F80839091CC0409
:1043A0008091CB049817C8F285E8D8CFE091CC046F
:1043B00081E08E0F8093CC048091BB00F0E0E55546
:1043C000FB4F80838091CE0481115CCF81E080938C
:1043D000A90484EA8093BC001092CF0426CF85EC18
:1043E0008093BC001092CF0480912504803230F479
:1043F000E0912504F0E0EB5FFB4F10826091250413
:1044000070E0E0918104F091820485E094E00995E8
:10441000109225040ACF1092CD0434CFCF92DF92B0
:10442000EF92FF920F931F93E82FF92F05C00150D1
:1044300011092109310961F1908196239417B9F38B
:1044400005C0015011092109310911F1908196230C
:104450009413F7CFC12CD12CE12CF12C0AC08FEF93
:10446000C81AD80AE80AF80A0C151D052E053F05DA
:1044700079F080818623841791F36C2D7D2D8E2D0C
:104480009F2D1F910F91FF90EF90DF90CF90089597
:1044900060E070E080E090E01F910F91FF90EF905E
:1044A000DF90CF900895EF92FF920F931F93CF93D9
:1044B000DF93F82E192FE62E042F81E0860F880F48
:1044C0000E94A10283E00E94A102CF2DD12FEC0E09
:1044D000FD2EF11CCE15DF05B9F007FF13C0FE015C
:1044E00084910E94A102182F80E00E94A1028123E2
:1044F00021968111EFCFDF91CF911F910F91FF9006
:10450000EF9008958881EDCF81E0F5CFFC018781A0
:104510000E94250297FD0396959587959595879519
:10452000682F70E090E080E00E948F2A0895059740
:104530000C948622CF93DF93EC018F810E94250299
:104540009C01990F440B550B2855324041095109E4
:10455000A4E6B0E00E94E32B20E13FEF4FEF5FEFD6
:104560000E94C42B3987288764E170E080E090E0E6
:104570000E946E026885798577FF02C070E060E076
:1045800079876887072E000C880B990B0E94912A67
:10459000DF91CF91089505970C949A22CF92DF92E4
:1045A000EF92FF920F931F93CF93DF93EC0160E0A4
:1045B00088850E94830183E090E00197F1F761E034
:1045C00088850E94830183E290E00197F1F760E023
:1045D00088850E9483018F8190E0FC01EF54FE4F9B
:1045E0006491FC01EE56FE4FE491F0E0EE0FFF1FE8
:1045F000E452FF4F8591949100E412E42FE030E003
:10460000462F0E940E22611571058105910529F042
:104610006F5F7F4F8F4F9F4F9F700E94912A26E9B7
:1046200033E44BE05DE30E94F02A20E030E040E01C
:104630005FE30E94F02A0E94CA2CCB84DC84E985C7
:10464000FA8590E080E0CE16DF0659F40E948F2AAA
:10465000DF91CF911F910F91FF90EF90DF90CF905E
:104660000895F12CE12C9B01AC012C193D094E0958
:104670005F09A4E6B0E00E94E32B9F0150E040E018
:104680002C193D094E095F090E94C42BCA01B901CA
:104690000E94912ADDCF05970C94CE22E9EFF4E039
:1046A0001382128288EE93E0A0E0B0E084839583C9
:1046B000A683B78325EA31E0318320832FEF3FEFD4
:1046C00035872487E9E4F5E0138212828483958399
:1046D000A683B78387EB91E091838083E5E5F5E0DE
:1046E00083E695E0918380839383828383E697E0DA
:1046F0009583848397838683108615860895CF9348
:10470000DF93CDB7DEB7CF5AD1090FB6F894DEBF2D
:104710000FBECDBF789484B5826084BD84B58160BE
:1047200084BD85B5826085BD85B5816085BD80917C
:104730006E00816080936E001092810080918100F4
:1047400082608093810080918100816080938100EC
:1047500080918000816080938000809191008260D0
:10476000809391008091910081608093910080916D
:1047700090008160809390008091C100846080935C
:10478000C1008091C10082608093C1008091C1000E
:1047900081608093C1008091C30081608093C300D9
:1047A0008091C00082608093C0008091C2008160CF
:1047B0008093C20080917A00846080937A00809117
:1047C0007A00826080937A0080917A008160809381
:1047D0007A0080917A00806880937A001092800439
:1047E00010922D0410922C048091D7008160809348
:1047F000D70080EA8093D80089B5806189BD89B5EA
:10480000826089BD09B400FEFDCF61E070E080E008
:1048100090E00E946E028091D8008F7C806180932E
:10482000D8008091E000807F8093E0008091E100DB
:104830008E7E8093E1008DE08093E200559A209A6D
:104840008FEF9FEF909306058093050589EF94E025
:104850000E947404892BD1F30E94741D8AE090E0B9
:104860000E94242DC855DF4F99838883C85AD040B1
:1048700024EF32E042E160E00E94B00EC855DF4F05
:1048800088819981C85AD04090933F0480933E0418
:1048900090934304809342048AE090E00E94242D88
:1048A000C655DF4F99838883CA5AD0402DEF32E036
:1048B00043E161E00E94B00EC655DF4FA881B98187
:1048C000CA5AD040B0933D04A0933C04B093450431
:1048D000A09344048AE090E00E94242DC455DF4F49
:1048E00099838883CC5AD04026E033E044E162E0EB
:1048F0000E94B00EC455DF4FE881F981CC5AD040F8
:10490000F0933B04E0933A04F0934704E0934604A9
:104910008AE090E00E94242DC255DF4F998388835E
:10492000CE5AD0402FE033E045E163E00E94B00E64
:10493000C255DF4F88819981CE5AD0409093390477
:104940008093380490934904809348048DE090E06C
:104950000E94242D8C0148E153E065E00E94920EF4
:1049600085E491E0D80111969C938E9387E591E0C0
:1049700016969C938E93159783E017968C931797B2
:1049800082E018968C9318971C961C921E921B9787
:104990001A961C921E92199710934B0400934A0486
:1049A00087E090E00E94242D6C014DE153E066E029
:1049B0000E94920E8DE591E0F6019183808384E060
:1049C000858361E00E94F401D60116961C92D09274
:1049D0003704C0923604D0924D04C0924C0488E053
:1049E00090E00E94242D8C0142E253E067E00E9497
:1049F000920E8DE691E0F801918380838FE791E03C
:104A00009683858386E1878310934F0400934E0439
:104A100089E090E00E94242D8C0147E253E06AE097
:104A20000E94920EE5E8AE2EE1E0BE2ED80111966E
:104A3000BC92AE9286E015968C9315971896DC92F0
:104A4000CE92179761E00E94F40110933504009311
:104A50003404109351040093500489E090E00E94C4
:104A6000242D7C014EE253E06BE00E94920EF70190
:104A7000B182A08288E08583D086C78261E00E94EF
:104A8000F401F0923304E0923204F0925304E09285
:104A9000520489E090E00E94242D4C0145E353E04C
:104AA0006CE00E94920ED4011196BC92AE9289E005
:104AB00015968C9315971896DC92CE92179761E015
:104AC0000E94F40190923104809230049092550437
:104AD0008092540489E090E00E94242D1C014CE354
:104AE00053E06DE00E94920EF101B182A0828AE053
:104AF0008583D086C78261E00E94F40130922F0442
:104B000020922E04309257042092560482E290E0C4
:104B10000E94242D5C0143E453E064E10E94920E64
:104B2000E5E9F1E0D5011196FC93EE93F4E11B96D3
:104B3000FC931B97FAE54F2E512C612C712C1C967F
:104B40004D925D926D927C921F975F961C930E938F
:104B50005E97C855DF4FE881F981C85AD0409196D9
:104B6000FC93EE9390975C961C92B0926904A0928D
:104B70006804B0925904A092580482E290E00E9426
:104B8000242D6C014CE453E065E10E94920EE5E9AE
:104B9000F1E0D6011196FC93EE93F4E11B96FC93A1
:104BA0001B971C964D925D926D927C921F975F961B
:104BB000FC92EE925E97C655DF4FE881F981CA5AA2
:104BC000D0409196FC93EE9390975C961C92D09275
:104BD0006704C0926604D0925B04C0925A0482E2D9
:104BE00090E00E94242D7C0145E553E066E10E949F
:104BF000920EE5E9F1E0D7011196FC93EE93F4E112
:104C00001B96FC931B971C964D925D926D927C9225
:104C10001F975F969C928E925E97C455DF4FE881F6
:104C2000F981CC5AD0409196FC93EE9390975C9684
:104C30001C92F0926504E0926404F0925D04E092AC
:104C40005C0482E290E00E94242D8C014EE553E04A
:104C500067E10E94920EE5E9F1E0D8011196FC931C
:104C6000EE93F4E11B96FC931B971C964D925D927C
:104C70006D927C921F975F963C922E925E97C255E2
:104C8000DF4FE881F981CE5AD0409196FC93EE93A4
:104C900090975C961C9210936304009362041093A7
:104CA000410400934004E0E4F4E0D5011696FC933F
:104CB000EE931597D6011696FC93EE931597D701B0
:104CC0001696FC93EE931597D8011696FC93EE93E7
:104CD000159760E08CE00E94F40187E693E00E9463
:104CE000820E90E080E00E94AE2B813021F58AE6B2
:104CF00093E00E94820EB12C74E1E72EF12C0B2D73
:104D000010E0000F111F005C1B4FF80180819181A2
:104D1000892B09F0DAC08AE090E00E94AE2B8093E4
:104D2000A7048BE090E00E94AE2B8093A80487E656
:104D300093E00E94820E0E94D3048091A704909178
:104D4000A804009711F00E94C02D86E090E00E9418
:104D5000242D8C0188E6F801808389E495E0928314
:104D60008183138280E290E0958384831093A8046A
:104D70000093A7040E94D30481E0D80113968C937A
:104D8000C8010E94A2068E010B591F4FF8013296EE
:104D9000C855DF4FF983E883C85AD040CE01019649
:104DA0007C01D8011596C655DF4FB983A883CA5A2E
:104DB000D040F8013896C455DF4FF983E883CC5AC8
:104DC000D0401801FBE02F0E311C5AE0452E512C2B
:104DD000612C712C83E893E00E94820EC7010E942F
:104DE000EB17C7010E94C7064AE00E943E0E0E94D0
:104DF0003A0E89EF94E00E947404892B09F492C062
:104E00000E9423010E94230185E595E0C656DF4FED
:104E100099838883CA59D04028E0FE01E656FF4FA7
:104E2000DE01AE56BF4F01900D922A95E1F728E0C2
:104E3000FE01EE56FF4FD70101900D922A95E1F742
:104E4000198629EF34E03B872A871D869F878E8746
:104E50004AE06EE575E0C7010E94D410009709F0A2
:104E60005EC09C8580916205992309F44EC383FF3F
:104E70004CC384E6F70111928A95E9F744E650E0C5
:104E8000B70189EF94E00E943303C258DF4FF982E3
:104E9000E882CE57D040D701BB24B3948D918823AC
:104EA00009F4E2C08032D1F7EB2DF0E0EE0FFF1FE6
:104EB0008EE790E08C0F9D1FE80FF91FB183A08350
:104EC000FD0131971082B394E9CF89E793E00E9406
:104ED0002D0ED801ED91FC91838194810E94820E68
:104EE0006701FC2CFE18F80180819181DC01ED91B5
:104EF000FC910284F385E02D0995F81668F4C6014B
:104F00000E94AE2BD801ED91FC91EF0DF11D808335
:104F1000BFEFCB1ADB0AE5CFB3947601F0CE03974F
:104F200009F4A7CFC0906804D0906904C7010E941B
:104F3000EB17C7010E94C706AB01BC01C6010E9466
:104F4000FA1AC0906604D0906704C7010E94EB175C
:104F5000C7010E94C706AB01BC01C6010E94FA1A34
:104F6000C0906404D0906504C7010E94EB17C7018C
:104F70000E94C706AB01BC01C6010E94FA1AC0908C
:104F80006204D0906304C7010E94EB17C7010E941E
:104F9000C706AB01BC01C6010E94FA1A60ED77E0BA
:104FA00080E090E00E946E02C7010E94EB17C701EB
:104FB0000E94C706A30192010E94252C672B682B33
:104FC000692B09F494C280E4A82E84E0B82E94E101
:104FD000992E80E0D5012D913C91232B09F46FC2CD
:104FE000C92CD82E8C2C8918F50180819181DC0187
:104FF000ED91FC910284F385E02D0995881608F067
:105000007EC2D501ED91FC91E80DF11D8080C601B5
:105010000E94AE2B881621F0682DC6010E94B62B87
:10502000BFEFCB1ADB0ADECF8EE595E09A8389834A
:1050300085E595E09C838B83D12CED2DF0E0EE0F80
:10504000FF1FE05CFB4F80819181009709F46ACFDC
:10505000DC01ED91FC910480F581E02DB70109950B
:105060008111DAC0D394E9CFC258DF4FC880D9800C
:10507000CE57D0406CE873E0C6010E94142F892BF4
:1050800009F021C1BB2009F41EC1C058DF4FC88000
:10509000C058D040CF57DF4FD880C158D04060E9CA
:1050A00073E0C6010E94142F892B09F049C00E94A9
:1050B000230120E4822E24E0922ED401AD90BD90F5
:1050C0004D01A114B10409F4E6C065E575E08EE573
:1050D00095E00E949E0D6C01009749F0FC018481CF
:1050E000807880628483118210821382128245E567
:1050F00055E069EE72E0C6010E945413BC01D5016F
:1051000012968C910E943907F501A380B48045E581
:1051100055E061E172E0C6010E945413009769F204
:10512000A114B10441F4DC0114962C911497207859
:1051300014962C93C2CFBC01C5010E948B13BDCF26
:1051400069E272E0C6010E94142F892B09F06AC03F
:10515000CE018E559F4F0E94EB17C955DF4F8881B6
:10516000C75AD0401F928F93CA55DF4F8881C65AC5
:10517000D0401F928F93CB55DF4F8881C55AD040C6
:105180001F928F93CC55DF4F8881C45AD0401F9215
:105190008F93CD55DF4F8881C35AD0401F928F9394
:1051A000CE55DF4F8881C25AD04090E08053984F4F
:1051B0009F938F9384E993E09F938F931F930F9313
:1051C0000E94242FF80101900020E9F731976F0128
:1051D000C01AD10AB6016F5F7F4F90E080E00E9455
:1051E000492E5C010FB6F894DEBF0FBECDBF00970D
:1051F000B1F0DC011C92B8010E941D2FA601B5017F
:1052000089EF94E00E9488030E943A0EA114B10431
:1052100019F0C5010E94C02D87E693E04DC1D12C45
:10522000C12CECCF60EB73E0C6010E94142F892BD8
:1052300009F440C0F60190E02AE0819130ED380F8A
:105240003A30D8F1E0E4F4E0C190D190C114D10437
:1052500029F0D60112968C918913F6CFD601ED91E3
:10526000FC910190F081E02DC6010995009739F07D
:10527000DC01ED91FC910190F081E02D09950E94F7
:105280002301D601ED91FC910280F381E02D65E5CB
:1052900075E0C601099589EF94E0F8019183808358
:1052A00013821282B8018EE595E00E9423150E94B8
:1052B0003A0EB2CF0E94741DAFCF929F800D112481
:1052C00090ED980FBACF65EB73E0C6010E94142FE2
:1052D000892B09F0EFC0C058DF4FC880D980C05873
:1052E000D04069E272E0C6010E94142F892B09F0B8
:1052F000B3C0CE57DF4F68817981C258D04084E176
:10530000EDECF3E0D80101900D928A95E1F7D80118
:105310000D900020E9F7AD0141505109FB010190CA
:105320000020E9F73197E61BF70B401B510BE41700
:10533000F50708F4AF01C8010E940B2FC855DF4FD5
:1053400088819981C85AD0400E942207D82EC6551C
:10535000DF4F88819981CA5AD0400E942207C82E07
:10536000C455DF4F88819981CC5AD0400E942207D2
:10537000B82EC1010E942207A82EC8010E960E94D5
:105380002207982EC80141960E942207382F86E0F6
:10539000F80111928A95E9F72AE0832F622F0E9483
:1053A000FE2C982F880F890F880F830FD801119634
:1053B0008C931197892D0E94FE2C982F990F890F9D
:1053C000880F980E12969C9212978A2D0E94FE2C9E
:1053D000982F990F890F880FA80E1396AC921397E8
:1053E0008B2D0E94FE2C982F990F890F880FB80ED5
:1053F0001596BC9215978C2D0E94FE2C982F990F14
:10540000890F880FC80E1696CC9216978D2D0E9484
:10541000FE2C982F990F890F880FD80E1796DC92C3
:105420008091A7049091A804FC0124813581283043
:10543000310508F4F1CE208131E03093D50420937A
:10544000F7041092D6041092F80421E048E050E0EE
:10545000B8010E948406E0CE69EB73E0C6010E94A9
:10546000142F892B41F4D8011D921C926FEFC801B3
:105470000E94FB1BD1CEBB20E9F06BE072E0C601BD
:105480000E94142F6C01892BA9F4C6010E94AE2B37
:105490008F3F21F06FEFC6010E94B62BBFEFCB1AF2
:1054A000DB0AC114E4E0DE0681F781EC93E00E94A0
:1054B000820EB2CE89EC93E00E94820E33CD6091D1
:1054C000A7048AE090E09A838983C7010E94FB1BAE
:1054D0006091A8048BE090E09A838983C7010E94C1
:1054E000FB1B1A82198261E0C7010E94FB1B80E04E
:1054F00090E0892B09F46ECC0E9400004FCCE2E0D2
:10550000AE0EB11C9C2C8D2D65CD85FD8DCD90E012
:1055100080E08CCD0E94CC2A08F481E00895E894C4
:1055200009C097FB3EF490958095709561957F4FEB
:105530008F4F9F4F9923A9F0F92F96E9BB27939599
:10554000F695879577956795B795F111F8CFFAF4A9
:10555000BB0F11F460FF1BC06F5F7F4F8F4F9F4FDA
:1055600016C0882311F096E911C0772321F09EE838
:10557000872F762F05C0662371F096E8862F70E09E
:1055800060E02AF09A95660F771F881FDAF7880F78
:105590009695879597F90895990F0008550FAA0BCE
:1055A000E0E8FEEF16161706E807F907C0F0121636
:1055B0001306E407F50798F0621B730B840B950B39
:1055C00039F40A2661F0232B242B252B21F408958E
:1055D0000A2609F4A140A6958FEF811D811D08952B
:1055E0000E94032B0C94742B0E94662B38F00E94AF
:1055F0006D2B20F0952311F00C945D2B0C94632BF4
:1056000011240C94A82B0E94852B70F3959FC1F355
:10561000950F50E0551F629FF001729FBB27F00D60
:10562000B11D639FAA27F00DB11DAA1F649F6627B5
:10563000B00DA11D661F829F2227B00DA11D621F04
:10564000739FB00DA11D621F839FA00D611D221FBE
:10565000749F3327A00D611D231F849F600D211DA2
:10566000822F762F6A2F11249F5750409AF0F1F025
:1056700088234AF0EE0FFF1FBB1F661F771F881F8E
:1056800091505040A9F79E3F510580F00C945D2B3E
:105690000C94A82B5F3FE4F3983ED4F3869577955E
:1056A0006795B795F795E7959F5FC1F7FE2B880F34
:1056B000911D9695879597F9089597F99F6780E8CA
:1056C00070E060E008959FEF80EC089500240A9454
:1056D0001616170618060906089500240A941216CD
:1056E0001306140605060895092E0394000C11F400
:1056F000882352F0BB0F40F4BF2B11F460FF04C0AD
:105700006F5F7F4F8F4F9F4F089557FD9058440F05
:10571000551F59F05F3F71F04795880F97FB991F10
:1057200061F09F3F79F087950895121613061406CD
:10573000551FF2CF4695F1DF08C01616170618065A
:10574000991FF1CF86957105610508940895E89435
:10575000BB2766277727CB0197F90895F999FECFE4
:1057600092BD81BDF89A992780B50895262FF999A1
:10577000FECF1FBA92BD81BD20BD0FB6F894FA9A34
:10578000F99A0FBE01960895052E97FB1EF400941A
:105790000E94DB2B57FD07D00E94252C07FC03D06D
:1057A0004EF40C94DB2B50954095309521953F4F4E
:1057B0004F4F5F4F089590958095709561957F4FFD
:1057C0008F4F9F4F08950E94472CA59F900DB49F27
:1057D000900DA49F800D911D112408952F923F924A
:1057E0004F925F926F927F928F929F92AF92BF92F1
:1057F000CF92DF92EF92FF920F931F93CF93DF939D
:10580000CDB7DEB7CA1BDB0B0FB6F894DEBF0FBEF9
:10581000CDBF09942A88398848885F846E847D8446
:105820008C849B84AA84B984C884DF80EE80FD8048
:105830000C811B81AA81B981CE0FD11D0FB6F894BE
:10584000DEBF0FBECDBFED010895A1E21A2EAA1B47
:10585000BB1BFD010DC0AA1FBB1FEE1FFF1FA21720
:10586000B307E407F50720F0A21BB30BE40BF50B1D
:10587000661F771F881F991F1A9469F760957095A6
:10588000809590959B01AC01BD01CF010895A29F29
:10589000B001B39FC001A39F700D811D1124911D04
:1058A000B29F700D811D1124911D08955058BB2782
:1058B000AA270E946E2C0C94742B0E94662B38F041
:1058C0000E946D2B20F039F49F3F19F426F40C94BC
:1058D000632B0EF4E095E7FB0C945D2BE92F0E94FF
:1058E000852B58F3BA17620773078407950720F0D2
:1058F00079F4A6F50C94A72B0EF4E0950B2EBA2F95
:10590000A02D0B01B90190010C01CA01A0011124C5
:10591000FF27591B99F0593F50F4503E68F11A1671
:10592000F040A22F232F342F4427585FF3CF469502
:1059300037952795A795F0405395C9F77EF41F1624
:10594000BA0B620B730B840BBAF09150A1F0FF0FEE
:10595000BB1F661F771F881FC2F70EC0BA0F621FDA
:10596000731F841F48F4879577956795B795F795CA
:105970009E3F08F0B0CF9395880F08F09927EE0F5F
:105980009795879508950E94CA2C6894B1110C943C
:10599000A82B08950E948D2B88F09F5798F0B92F5F
:1059A0009927B751B0F0E1F0660F771F881F991F54
:1059B0001AF0BA95C9F714C0B13091F00E94A72B24
:1059C000B1E008950C94A72B672F782F8827B85F34
:1059D00039F0B93FCCF3869577956795B395D9F7AC
:1059E0003EF490958095709561957F4F8F4F9F4FB6
:1059F00008950E94CC2A08F48FEF0895991B79E04E
:105A000004C0991F961708F0961B881F7A95C9F74E
:105A100080950895AA1BBB1B51E107C0AA1FBB1F9D
:105A2000A617B70710F0A61BB70B881F991F5A952A
:105A3000A9F780959095BC01CD010895EE0FFF1F49
:105A40000590F491E02D09940F931F93CF93DF936A
:105A50008230910510F482E090E0E0916507F091CA
:105A6000660730E020E0B0E0A0E0309799F421151F
:105A7000310509F44AC0281B390B24303105D8F50B
:105A80008A819B816115710589F1FB019383828372
:105A9000FE0111C0408151810281138148175907CD
:105AA000E0F04817590799F4109761F012960C939B
:105AB000129713961C933296CF01DF91CF911F91CD
:105AC0000F9108950093650710936607F4CF211591
:105AD000310551F04217530738F0A901DB019A0153
