:100000000C9409010C9431010C9431010C943101D0
:100010000C9431010C9431010C9431010C94310198
:100020000C9431010C9431010C947C1C0C94EB1C4D
:100030000C9431010C9431010C9431010C94310178
:100040000C9431010C9431010C9431010C94310168
:100050000C9431010C9431010C9431010C94321C3C
:100060000C9431010C9431010C9431010C94310148
:100070000C9431010C9431010C9431010C94310138
:100080000C9431010C9431010C9431010C94310128
:100090000C941D1F0C9431010C9431010C9431010E
:1000A0000C9431010C9431010C943101CDCCCC3D38
:1000B0000AD7233C17B7D13877CC2B329595E62455
:1000C0001FB14F0A000020410000C84200401C46FA
:1000D00020BCBE4CCA1B0E5AAEC59D74005EBCE26D
:1000E000613FDD83C29C7E20A3FD1F41009D23BE96
:1000F00046DB65F88C11AF32CA57E974080B000271
:1001000002020000090400000102020000052400B0
:100110001001052401010104240206052406000142
:100120000705810310004009040100020A000000D5
:100130000705020240000007058302400000040397
:10014000090412010002EF02014041233680000140
:100150000102030141726475696E6F204C4C4300CB
:1001600041726475696E6F204C656F6E6172646F69
:1001700000000000002300260029002C002F001F93
:100180001C1F1E1F1E1F1F1E1F1E07060504010029
:10019000080A0B0C0D0900000000240027002A00AB
:1001A0002D00300000000000250028002B002E004C
:1001B00031000404040404030405020202020403DF
:1001C00002020202060606060606040402020204F1
:1001D0000404080201104080401020408040800844
:1001E00002040180402010020110801020404020B5
:1001F0000000000200090F0000030401000C0000D1
:1002000000000000000000000000000000000000EE
:10021000542211241FBECFEFDAE0DEBFCDBF14E0C1
:10022000A0E0B1E0ECE4F6E602C005900D92AC333C
:10023000B107D9F727E0ACE3B4E001C01D92AF3BB2
:10024000B207E1F711E0C9E0D1E004C02197FE0157
:100250000E94942FC830D107C9F70E9485220C94C0
:1002600024330C940000EDEAF5E0808191819383C2
:1002700082838681978195838483108685858078A3
:100280008587089508950895FC018091F8048823D6
:1002900011F13FB7F89482E08093E9002091F200D9
:1002A000822F90E01816190614F481E090E088235C
:1002B00039F0289844E64093F7044091F1004083D8
:1002C000222339F02091F200211103C02BE6209364
:1002D000E8003FBF08958FEF9FEF08952FB7F89480
:1002E00083E08093E9009091E800892F807295FF68
:1002F00004C09091F20080E4891B2FBF0895809183
:10030000EF0481110DC082E08093EB0484E08093C0
:10031000EC041092EE041092ED0481E08093EF045F
:100320008BEE94E00895282F30E0F901E051FE4F64
:100330009491F901EF52FE4F84912E543E4FF901F2
:100340002491222309F430C09923E9F091509F3081
:10035000D0F4E92FF0E0E155FE4F0C94942FDD012D
:10036000E101BE01D501D901C301C301C301E4010B
:10037000EA01EE01F201F801C301FC019091800055
:100380009F7790938000E22FF0E0EE0FFF1FEC5577
:10039000FE4FA591B4919FB7F894EC91611132C0D2
:1003A00080958E238C939FBF0895909180009F7DB0
:1003B000E8CF90918000977FE4CF94B59F7794BD6C
:1003C000E2CF94B59F7DFBCF909190009F77909363
:1003D0009000D9CF909190009F7DF9CF909190009F
:1003E000977FF5CF9091C0009F779093C000CBCFBF
:1003F0009091C0009F7DF9CF9091C200977F90931C
:10040000C200C1CF8E2BCECFCF93DF9390E0FC0103
:10041000EF52FE4F24918E549E4FFC01849188230D
:10042000D1F090E0880F991FFC01EA56FE4FA5918C
:10043000B491FC01EC55FE4FC591D49161110EC0F1
:100440009FB7F8948C91E22FE0958E238C932881AE
:10045000E223E8839FBFDF91CF9108958FB7F8948F
:10046000EC91E22BEC938FBFF6CF823108F08251F2
:10047000E82FF0E0E657FE4FE49190917B008E2F3D
:10048000880F880F80729F7D892B80937B00E77097
:10049000E064E0937C0080917A00806480937A002D
:1004A00080917A0086FDFCCF809178009091790050
:1004B00008953FB7F8948091E7049091E804A091E3
:1004C000E904B091EA0426B5A89B05C02F3F19F0B6
:1004D0000196A11DB11D3FBFBA2FA92F982F8827C4
:1004E000BC01CD01620F711D811D911D42E0660F9F
:1004F000771F881F991F4A95D1F708958F929F9271
:10050000AF92BF92CF92DF92EF92FF926B017C018C
:100510000E9459024B015C01C114D104E104F104B1
:10052000B9F00E945902681979098A099B09683E45
:1005300073408105910580F321E0C21AD108E108DA
:10054000F10888EE880E83E0981EA11CB11CE4CF50
:10055000FF90EF90DF90CF90BF90AF909F908F90E3
:100560000895409182045091830420918004309139
:10057000810442175307B4F49091E8009570E1F3B9
:100580009091E80092FD19C08093F100809182045F
:100590009091830401968F739927892B19F48EEF1C
:1005A0008093E80080918204909183040196909357
:1005B00083048093820481E0089580E00895EF929F
:1005C000FF920F931F93CF93DF93F82E192FE62EF0
:1005D000042F81E0860F880F0E94B10283E00E9401
:1005E000B102CF2DD12FEC0EFD2EF11CCE15DF0563
:1005F000B9F007FF13C0FE0184910E94B102182FC9
:1006000080E00E94B102812321968111EFCFDF911A
:10061000CF911F910F91FF90EF9008958881EDCFBA
:1006200081E0F5CFDF92EF92FF920F931F93CF936C
:10063000DF93D82E8A01EB017B01E40EF51ECE1567
:10064000DF0559F0D7FE12C0FE0184910E94B1026D
:1006500021968111F4CF0FEF1FEFC801DF91CF91E9
:100660001F910F91FF90EF90DF9008958881EECF5A
:100670000F931F93CF93DF931F92CDB7DEB782E026
:10068000898342E450E06CEF70E080E80E9412033E
:100690000E947F01DC0112960D911C91011511053C
:1006A00089F0D801ED91FC910280F381E02DBE012B
:1006B0006F5F7F4FC801099597FD04C0F801008561
:1006C0001185ECCF89810F90DF91CF911F910F9110
:1006D0000895615030F02091F100FC0120830196D3
:1006E000F8CF289884E68093F7040895CF93DF939A
:1006F000EC012FB7F8948091E3049091E404A09169
:10070000E504B091E6042FBF88879987AA87BB8745
:10071000E881F9810284F385E02DCE01099597FFE8
:100720001EC02FB7F8948091E3049091E404A09147
:10073000E504B091E6042FBF488559856A857B851D
:10074000841B950BA60BB70B4C815D816E817F815D
:1007500084179507A607B707D8F28FEF9FEFDF91B1
:10076000CF9108958F929F92AF92BF92CF92DF92D6
:10077000EF92FF920F931F93CF93DF936C017B0156
:100780008A0180910B01882309F45CC08091F804F0
:10079000882309F457C08091860480FF05C08091AA
:1007A000E00082608093E000E801B12C8AEFA82E7F
:1007B00093E0892E2AE3922E209711F4BB20D9F1E1
:1007C0000E946E0181110AC0AA94AA20D9F161E0A9
:1007D00070E080E090E00E947E02EECF8C171D0654
:1007E00011F00CF08C2F9FB7F8948092E9002091C3
:1007F000E80025FD02C09FBFDFCF282F30E0C21BDD
:10080000D30BF701815020F041914093F100FACFD2
:10081000E20EF31EBB2021F09092E800B12CEBCF4A
:100820008091E80085FDE7CF9092E800BB24B39467
:10083000209709F3F3CF5D9884E680938504101622
:1008400011063CF081E090E0F6019383828310E092
:1008500000E0C801DF91CF911F910F91FF90EF90C1
:10086000DF90CF90BF90AF909F908F900895CF93DF
:10087000DF931F92CDB7DEB76983DC01ED91FC9168
:100880000280F381E02D41E050E0BE016F5F7F4FB9
:1008900009950F90DF91CF91089583E08093E9004F
:1008A0008091F200882319F08AE38093E80008958C
:1008B0000E946E0190E00895CF93DF931F92CDB711
:1008C000DEB7FC018485958597FD08C02FEF3FEFCB
:1008D000358724870F90DF91CF910895CE0101963F
:1008E0000E944401019719F4898190E0F3CF8FEFC2
:1008F0009FEFF0CF0F931F93CF93DF931F92CDB74E
:10090000DEB78C01FC018485958597FF0BC0CE0175
:1009100001960E944401019771F4898190E0F801E9
:1009200095878487F801848595850F90DF91CF9115
:100930001F910F9108958FEF9FEFF1CFFC018485F8
:10094000958597FD0BC09FB7F89482E08093E900EE
:100950008091F2009FBF90E0019608959FB7F894B0
:1009600082E08093E9008091F2009FBF90E00895BB
:1009700020915D04260F3327331F21323105ECF41B
:1009800020912705FC0190E080E0243069F082E0AE
:100990000895A0915D042191AC01435C5B4FA40FCD
:1009A000B52FB11D2C930196861798F380915D04A5
:1009B000680F60935D0480E0089581E008951092CF
:1009C000270581E0809326051092010561E082E011
:1009D0000E94930161E083E00E949301E9EBF0E063
:1009E00080818E7F808380818D7F808388E4809367
:1009F000B80085E48093BC0008951092FE04109224
:100A0000FD0410922E05109250050E94DF0482E42E
:100A100091E09093FC048093FB0483E491E0909335
:100A2000FA048093F9040895CF93DF9391E09093B3
:100A30003C048823B9F0C091B800D091BA008091ED
:100A4000BC008A7B8093BC0060E082E00E9493013E
:100A500060E083E00E9493010E94DF04D093BA001B
:100A6000C093B800DF91CF9108958F929F92AF927B
:100A7000BF92CF92DF92EF92FF920F931F93CF938B
:100A8000DF93D0915005D13208F0D7C0182FC09114
:100A90004F050E9459026B017C018091270581114D
:100AA0006BC082E080932705109326058FEF80931B
:100AB000250510922405D0932305AFE2B5E0E3E0CD
:100AC000F5E080E0D81391C01092020580910205F4
:100AD000CC0FC82BC093020580910105813009F02D
:100AE00088C0109201050E9459026B017C0180911F
:100AF00002058093BB008091290590912A05A09161
:100B00002B05B0912C05892B8A2B8B2BA1F00E94F1
:100B100059020091290510912A0520912B05309149
:100B20002C056C197D098E099F09061717072807E0
:100B3000390708F442C08091BC0083FDD8CF85EC12
:100B40008093BC000E9459026B017C0180912705B3
:100B5000823009F450C0809125058F3F09F46FC0A1
:100B600080912505803209F46CC080912505803381
:100B700009F469C084E026C08091290590912A0576
:100B8000A0912B05B0912C05892B8A2B8B2B09F476
:100B900084CF0E9459028090290590902A05A09048
:100BA0002B05B0902C056C197D098E099F098616BE
:100BB0009706A806B90608F070CF809128050E9414
:100BC000140585E010922E051092500510922D0507
:100BD000DF91CF911F910F91FF90EF90DF90CF9019
:100BE000BF90AF909F908F9008959D9191938F5F4C
:100BF00069CF85EEA5CF8091290590912A05A09116
:100C00002B05B0912C05892B8A2B8B2B09F49ECFB9
:100C10000E9459020091290510912A0520912B0567
:100C200030912C056C197D098E099F09061717074D
:100C30002807390708F08ACFC0CF81E0C3CF80E012
:100C4000C1CF82E0BFCF83E0BDCF0895E091FE0425
:100C50008091FD04E81730F4F0E0E056FB4F80810E
:100C600090E008958FEF9FEF08959091FE0480919A
:100C7000FD042FEF3FEF981748F4E92FF0E0E0561E
:100C8000FB4F208130E09F5F9093FE04C9010895DF
:100C90008091FD049091FE04891B990B0895CF92D9
:100CA000DF92EF92FF920F931F93CF93DF937C011C
:100CB000CB018A0120912D05222389F0EB016B01E4
:100CC000C40ED51ECC15DD0569F06991D701ED91F3
:100CD000FC910190F081E02DC7010995F3CF642FBD
:100CE0000E94B804C801DF91CF911F910F91FF902E
:100CF000EF90DF90CF900895CF93DF931F92CDB701
:100D0000DEB7698320912D052223F9F0209150054B
:100D1000203258F021E030E0FC013383228390E060
:100D200080E00F90DF91CF91089580912E05E82FFC
:100D3000F0E0E15DFA4F998190838F5F80932E05FB
:100D40008093500581E090E0ECCF61E0CE01019608
:100D50000E94B804F7CF90E080E008951F93CF93EE
:100D6000DF93EA01122FDC0111968D919C91DC0139
:100D7000ED91FC910280F381E02D0995C817D90708
:100D800029F4812F0E94350591E0811190E0892F8F
:100D9000DF91CF911F910895CF93DF93EC018B8169
:100DA0008823A1F0888191E090932D0580934F05D1
:100DB00010922E051092500581E00E94350591E0B9
:100DC000811190E0892FDF91CF9108950E94FD0459
:100DD00081E08B83CE010E94CC06982F8111E2CF57
:100DE000F1CFFC01908190539A3008F090E081811E
:100DF00080532AE0929F800D11240895DC0180E049
:100E0000615090F09D919827E92FEF70F0E0E45247
:100E1000FF4F2491E92FE295EF70F0E0E451FF4F8E
:100E2000E491822F8E27ECCF0895DC012C9111964E
:100E3000ED91FC91F8948181822B81839281322FF4
:100E400030959323928387E090E00197F1F78181B9
:100E50008323818383E290E00197F1F79081789476
:100E6000EFECF0E03197F1F7922381E009F480E0B4
:100E70000895FC0190810180F281E02D292F2095B9
:100E800060FF14C0F8948281822382838181892B40
:100E90008183A3E2B0E01197F1F78281982B9283CE
:100EA000789487ED90E00197F1F70895F8948281A6
:100EB000822382838181892B8183AFEFB0E01197F8
:100EC000F1F78281982B928378948FE090E0EBCFBA
:100ED000DF92EF92FF920F931F93CF93DF93EC017A
:100EE000D62EE42E08E010E0FF24F39461E08D2D6F
:100EF0008F2109F460E0CE010E943907FF0C0150F8
:100F00001109A1F7E11010C0F894E981FA819181EB
:100F10008881809589238183E981FA819281888102
:100F20008095892382837894DF91CF911F910F91CF
:100F3000FF90EF90DF900895EF92FF920F931F9331
:100F4000CF93DF938C017B0140E065E50E94680749
:100F5000E70188E0E80EF11C699140E0C8010E94B9
:100F60006807CE15DF05C1F7DF91CF911F910F9173
:100F7000FF90EF900895FC0190810180F281E02DB7
:100F8000F8948181292F20958223818378943DE7ED
:100F900043E050E0315029F1DA011197F1F78081F7
:100FA0008923C1F3F8948281822382838181892BF2
:100FB00081837894ABE7B7E01197F1F7F8948181DA
:100FC00082238183A3E1B1E01197F1F78081982317
:100FD00081E009F080E07894E3E6F6E03197F1F7FC
:100FE000089580E008954F925F926F927F928F9262
:100FF0009F92AF92BF92CF92DF92EF92FF920F93A8
:101000001F93CF93DF938C017B01EA01FC01818563
:1010100092850E94BB078823D9F1B701F801818529
:1010200092850E949C0740E06EEBF80181859285D5
:101030000E9468076E015E01F9E0AF0EB11C7E01EF
:10104000F8018184928488E0682E712C512C44240C
:101050004394C4010E94150781115428440CF1E007
:101060006F1A7108B1F7F70151927F01AE16BF06F2
:1010700039F7F801818592850E94BB07813041F4E0
:10108000F60181916F01811105C0EE15FF05C1F7D1
:1010900090E008C068E0CE010E94FE0691E028853D
:1010A0002813F6CF892FDF91CF911F910F91FF90D9
:1010B000EF90DF90CF90BF90AF909F908F907F90F8
:1010C0006F905F904F900895059608950596089546
:1010D00005960895CF93FC0194819F779830E1F0B5
:1010E00040F4992311F19630A9F0C1E08C2FCF91F3
:1010F00008959A3089F09C30C1F7C1E020E030E0DB
:10110000A90160817181828193810E94022D8111E8
:10111000EDCF0BC0C081EACFC1E080819181A28177
:10112000B381892B8A2B8B2B09F7C0E0DFCFFB0122
:10113000309759F0948190789860948390E0B0E073
:10114000A0E080839183A283B3830895AF92BF927E
:10115000CF92DF92EF92FF920F931F93CF93DF9383
:1011600000D000D01F92CDB7DEB75C0129833A834F
:101170004B835C836D8329813A812115310599F474
:10118000F0E0E0E0CF010F900F900F900F900F90E4
:10119000DF91CF911F910F91FF90EF90DF90CF9053
:1011A000BF90AF9008954B815C81DC01ED91FC9183
:1011B000119712966D917C917A01E20EF31ECF0188
:1011C000840F951F86179707B8F4DC018C91811165
:1011D0000DC0C9018F01E816F90661F0DC01CD9060
:1011E000CD01D801DD908D01CD14A9F3819181113C
:1011F000FDCFE5CF309731F6CA010196860F971FD4
:10120000D5011496ED91FC911597E817F90720F494
:1012100081E018968C93B4CFF50193838283611596
:10122000710509F4ADCFF901DB01240F351F2E172D
:101230003F0719F081918D93FACF460F571FDA01BE
:101240001C92FB019FCFCF93DF9300D000D000D042
:10125000CDB7DEB7FC0184818F77843039F08530DB
:1012600091F01A8219821C821B8208C082819381AC
:10127000208131813A8329839C838B8381E090E0B4
:101280009E838D830AC082819381208131813A833C
:1012900029839C838B831E821D8229813A814B8105
:1012A0005C816D817E8180E090E026960FB6F89497
:1012B000DEBF0FBECDBFDF91CF91089580E00895CE
:1012C00005960895CF93DF93EC0188819981DC0125
:1012D000ED91FC910190F081E02D09952A813B81EF
:1012E000820F931F9B838A83DF91CF910895982F5C
:1012F00080336CF08A3324F08F3524F08B3724F45C
:1013000081E0089581341CF081E09B350CF080E091
:101310000895CF93DF93EC0188819981DC01ED91F1
:10132000FC910280F381E02D09952A813B81820F97
:10133000931F9B838A83DF91CF9108958F929F9211
:10134000AF92BF92CF92DF92EF92FF920F931F93D3
:10135000CF93DF93CDB7DEB766970FB6F894DEBFB5
:101360000FBECDBF6C018E01095E1F4F78018AE070
:10137000882E912CA12CB12CCB01BA01A50194018E
:101380000E94872E942F852F605DF80162938F0154
:10139000A901692F782F411551056105710561F784
:1013A000A7014E1B5F0BBF01C6010E94890966960B
:1013B0000FB6F894DEBF0FBECDBFDF91CF911F9166
:1013C0000F91FF90EF90DF90CF90BF90AF909F90E4
:1013D0008F900895CF93DF93EC018C8581110CC021
:1013E00089859A850E94760397FD0AC0992797FD03
:1013F00080E08B8781E08C878B85DF91CF9108958A
:101400008FEF9FEFF4CF1F93CF93DF93EC01162F55
:101410000E94EA09811306C01C8681E0DF91CF910A
:101420001F91089580E0FACF0F931F93CF93DF931E
:101430008C01EB018991882369F0C8010E94EA09B7
:10144000882379F0FE013197908198130DC0F8013F
:101450001486F0CF90E080E0DF91CF911F910F9143
:10146000089582E090E0F8CF83E090E0F5CFCF934D
:10147000DF93EC01CE010E94EA098B304CF48930F5
:101480005CF4882359F081E0888790E080E00BC00D
:101490008D3011F08032B9F71C86ECCF8885811130
:1014A00005C081E090E0DF91CF91089582E090E067
:1014B000FACF0F931F93CF93DF93DB0112962D91F9
:1014C0003C91EC01E881F9818A819B81DF01A20FC7
:1014D000B31FA817B907A8F44C9141110EC0EB0136
:1014E000A881B981EF018D01020F131FA017B10769
:1014F00051F05D9149915417C9F341914111FDCFCC
:10150000E5CFF0E0E0E0CF01DF91CF911F910F91A7
:10151000089590E080E00895FC0124813581A901BF
:101520004F5F5F4F868197814817590748F4828142
:10153000938155834483FC01E20FF31F6083089578
:101540000190F081E02D81E0808708959F92AF9215
:10155000BF92CF92DF92EF92FF920F931F93CF93A0
:10156000DF9300D000D01F92CDB7DEB78C010E9470
:10157000EA09D82ED8011C961C92F12CE12C60EFC0
:10158000C62EC8010E94EA09F8011486D81609F48B
:10159000B4C0811113C082E090E00F900F900F90C3
:1015A0000F900F90DF91CF911F910F91FF90EF90CF
:1015B000DF90CF90BF90AF909F9008958C3509F049
:1015C0009AC0C8010E94EA09882329F3E3EDF1E0FB
:1015D000853709F084C0D8011C961C9254E0952EE2
:1015E000B12CA12CC8010E94EA098823A1F2813400
:1015F00034F48053803130F083E090E0CECF8F7DA3
:101600008753F8CF44E0AA0CBB1C4A95E1F7A82AFF
:10161000F80114869A949110E5CFC501985D811563
:10162000944020F47501F3E0FF22ABCFC5019C5D2F
:1016300081159440A8F483E0B822B701762F66277D
:10164000770F770F6A297B2990E080E00196603858
:1016500071058105910540F4C8010E948C0A91CF63
:10166000B50190E080E0F3CF1982262F2F73206818
:101670002A8326E096958795779567952A95D1F7E1
:101680006032710580F4606C6B835E01A4E0AA0E89
:10169000B11CD5016E915D01662309F472CFC801BA
:1016A0000E948C0AF6CF262F2F7320682B8386E0AA
:1016B000769567958A95E1F76031710538F4606E2B
:1016C0006C835E01B5E0AB0EB11CE3CF60686C8348
:1016D000CD825E01E6E0AE0EB11CDBCF329690818A
:1016E000992309F489CF8913F9CF8181882309F4DB
:1016F00083CFF8011486682FAFCF0190F081E02DE1
:101700008085882319F084E090E047CF90E080E066
:1017100044CF4F925F926F927F928F929F92AF923F
:10172000BF92CF92DF92EF92FF920F931F93CF93CE
:10173000DF93EB01DC012C912B32D9F12D32D1F565
:101740000196FF24F394FC01208130ED320F3A30F2
:1017500018F02E3209F042C18C0160E070E0CB013C
:10176000F801219130ED832E820E39E0381520F1F9
:101770006A3949E97407840749E1940738F5AAE012
:10178000B0E09B01AC010E94452E912CB12CA12C04
:101790002401350140945094609470944616570685
:1017A0006806790698F0680D791D8A1D9B1D8F01CA
:1017B000D7CF0196F12CC7CF211108C0FF20E9F146
:1017C00061307105810550E89507A0F0E12CBAE081
:1017D0008B2E912CA12CB12C6115710530E883075B
:1017E0009105B0F1A50194010E94872ECA01B901AB
:1017F000E394F2CF2C8120782A602C839B01AC01EA
:1018000088279927DC01821B930BA40BB50B8883D7
:101810009983AA83BB838F2DDF91CF911F910F9165
:10182000FF90EF90DF90CF90BF90AF909F908F9000
:101830007F906F905F904F9008952C812078286062
:101840002C83688379838A839B83FF24F394E3CF7B
:10185000F801D8012D918D0130ED320F3A3010F49E
:10186000E394F6CF2E3201F58F010F5F1F4FF80181
:101870000F5F1F4F2081A0EDDA2ED20EB9E0BD150B
:1018800098F06C3CECEC7E07ECE08E07910578F765
:10189000AAE0B0E09B01AC010E94452E6D0D711DC8
:1018A000811D911DEA94E3CF20812F7D10E000E09F
:1018B000253409F05BC021812D32D1F53296CC243C
:1018C000C394DF0110E000E02E2D0E2C000C330B32
:1018D0005AE0B52EFD01DD9040ED4D0D4A3008F087
:1018E00040C0B09EA001B19E500D11240D2DDD0C05
:1018F000110B00531109040F151FA801420F531FAC
:10190000473251053CF38C81CC20C9F040E050E0D7
:1019100060E070E8F11003C040E050E0BA01807868
:101920008C608C83488359836A837B83FC2C73CFC0
:101930002B3219F03196C12CC4CF3296FCCF40E047
:1019400050E060E87FEFF11004C040E050E060E854
:101950007FE780788C608C83488359836A837B839C
:1019600074CFCC2019F01195019511092081211116
:1019700035C00E0D111DE7FC1A950E94072D34ECA1
:10198000C32E30E0D32E101611063CF011950195B0
:1019900011094CEAC42E40E0D42EE12C01151105AA
:1019A00091F000FF0CC024E0E29EF0011124EC0D48
:1019B000FD1D25913591459154910E94682D1595F5
:1019C0000795E394EBCFF11090582C8120782C6090
:1019D0002C83688379838A839B8337CFF12C1BCF39
:1019E000CF92DF92EF92FF92CF93DF9300D000D09F
:1019F0001F92CDB7DEB7FC0184818F778630B1F0BE
:101A000028F4843008F590E080E012C08A3021F09C
:101A10008C3039F18830B9F780819181A281B3810E
:101A2000009721E0A207B10518F0EDCF808190E08A
:101A30000F900F900F900F900F90DF91CF91FF902C
:101A4000EF90DF90CF900895808191811D82BE013B
:101A50006F5F7F4F0E94890BCE0101960E94F00CB0
:101A6000E7CFC080D180E280F38020E030E0A901A0
:101A7000C701B6010E945B2F87FDC5CF20E03FEF75
:101A80004FE757E4C701B6010E94022D18160CF467
:101A9000BACFC701B6010E942C2FCB01C9CFCF927C
:101AA000DF92EF92FF92CF93DF9300D000D01F928E
:101AB000CDB7DEB7FC0184818F778630A9F020F4A2
:101AC000843080F580E011C08A30D9F08C30B9F1D3
:101AD0008830C1F780819181A281B38180389105DE
:101AE000A105B10578F701C080810F900F900F908C
:101AF0000F900F90DF91CF91FF90EF90DF90CF90FC
:101B0000089580819181A281B381AC01BD014058CB
:101B10005F4F6F4F7F4F4F3F51056105710509F0D2
:101B200088F6E3CF808191811D82BE016F5F7F4F78
:101B30000E94890BCE0101960E944F0DD6CFC08026
:101B4000D180E280F38020E030E040E053ECC70138
:101B5000B6010E945B2F87FDB5CF20E030E04EEF4D
:101B600052E4C701B6010E94022D18160CF4AACF48
:101B7000C701B6010E94252F862FB7CFCF92DF92E3
:101B8000EF92FF92CF93DF9300D000D01F92CDB79A
:101B9000DEB7FC01892B39F084818F77863091F094
:101BA00030F4843040F560E070E0CB010FC08A3043
:101BB000C9F08C3069F18830B1F760817181828120
:101BC000938104C0608170E090E080E00F900F90FE
:101BD0000F900F900F90DF91CF91FF90EF90DF90DB
:101BE000CF90089580819181A281B381B7FDDBCF31
:101BF000BC01CD01EBCF808191811D82BE016F5F61
:101C00007F4F0E94890BCE0101960E94BE0DDECF50
:101C1000C080D180E280F38020E030E0A901C701DC
:101C2000B6010E945B2F87FDBECF2FEF3FEF4FE73E
:101C30005FE4C701B6010E94022D18160CF4B3CF61
:101C4000C701B6010E942C2FC1CFCF93DF93DC01D7
:101C5000EB01EC81FD818A819B810896E817F907E9
:101C600040F481E08887F0E0E0E0CF01DF91CF91A0
:101C700008953897FD83EC833097B9F31296CD9190
:101C8000DC911397209791F0CF018C1B9D0B23E0E3
:101C9000959587952A95E1F78D831396FC93EE939E
:101CA00012971582148217821682DFCF1196FC9349
:101CB000EE93F3CFFC018481982F9F7739F48078DD
:101CC000806484831182108213821282848186FF51
:101CD00003C0CF010C94250E90E080E00895CF92D0
:101CE000DF92EF92FF920F931F93CF93DF9300D079
:101CF00000D0CDB7DEB76C018B01DC011296ED9000
:101D0000FC90FA82E9827C836B83BE016F5F7F4F18
:101D10000E94590A009761F4F701E00FF11FCF010B
:101D20000196D60113969C938E9312971082C70149
:101D30000F900F900F900F90DF91CF911F910F9107
:101D4000FF90EF90DF90CF900895FC012581222332
:101D500039F0F8E02F0290011124820F931F0895AB
:101D600090E080E00895EF92FF920F931F93CF933E
:101D7000DF938C017B01FC01C081D181209731F080
:101D8000CE010E94A50EE816F906E9F4C7010E94EB
:101D9000A50E2097D1F020E0009741F09C012C1B6C
:101DA0003D0B43E0359527954A95E1F72D83892B27
:101DB00019F4F801D383C283DF91CF911F910F9162
:101DC000FF90EF900895EC01D9CFF80191838083C3
:101DD000EECFFC0101900020E9F73197AF01481BDD
:101DE000590BBC0181E595E00C94B2038F929F9250
:101DF000AF92BF920F931F93CF93DF93CDB7DEB710
:101E0000A1970FB6F894DEBF0FBECDBF19A2423026
:101E100008F44AE08E010F5D1F4F842E912CB12CE7
:101E2000A12CA50194010E94872EE62FB901CA01B9
:101E3000EA30F4F4E05DD801EE938D01232B242BDE
:101E4000252B79F790E080E0109719F0CD010E94E2
:101E5000E90EA1960FB6F894DEBF0FBECDBFDF919D
:101E6000CF911F910F91BF90AF909F908F90089549
:101E7000E95CE1CF84EE91E00C94E90ECF93DF931F
:101E80000E94E90EEC010E943A0F8C0F9D1FDF911A
:101E9000CF910895FF920F931F93CF93DF93EC019F
:101EA000F62E8A0186E191E09983888368EC70E0E0
:101EB00080E090E00E947E02C8010E943E0FFA82FC
:101EC0001C830B83DF91CF911F910F91FF90089599
:101ED0001F93CF93DF93EC01142FA9010E944A0FA7
:101EE00084E291E09983888384E391E09E838D83EB
:101EF0001F8360E0812FDF91CF911F910C9404022A
:101F00005F926F927F928F929F92AF92BF92CF9289
:101F1000DF92EF92FF920F931F93CF93DF9300D046
:101F200000D01F92CDB7DEB75C014A01FC011182DF
:101F3000108213821282FB01E080F180E114F1042F
:101F400009F449C0F701C680D780C114D104D9F182
:101F50005480F60101900020E9F731973F016C1899
:101F60007D08B401C5010E94250E8C01009789F1FE
:101F700057FC12C0FC0184818F778483D782C6828C
:101F8000C801A401B7010E940610882311F1C701FE
:101F90000E94A50E7C01D2CF2C2DDA82C982462D5B
:101FA0007C826B821D823A815C8160E0C4010E9468
:101FB000A6089C01892B29F1F801948190689483EB
:101FC00037832683DDCFB401C5010E94250E00971B
:101FD000C1F680E001C081E00F900F900F900F904C
:101FE0000F90DF91CF911F910F91FF90EF90DF90B5
:101FF000CF90BF90AF909F908F907F906F905F90A9
:102000000895B801C5010E94B30EE3CFAF92BF920D
:10201000CF92DF92EF92FF920F931F93CF93DF93B4
:10202000CDB7DEB72B970FB6F894DEBF0FBECDBF8E
:102030008C017A01FB0124812F772530C9F198F4B6
:10204000233009F47AC0F80184818078282B248316
:10205000FB0180819181A281B381F801808391830A
:10206000A283B38339C0FC0194812032F1F09078CF
:102070009064203441F7948311821082138212827B
:10208000A701C8010E94800F2B960FB6F894DEBFFF
:102090000FBECDBFDF91CF911F910F91FF90EF90B9
:1020A000DF90CF90BF90AF90089590789062E3CF8B
:1020B000CB010E94230929833A834B835C836D8380
:1020C0007E83D42EC52E49815A814115510531F4A4
:1020D000F80184818078848381E0D6CF8D819E81D0
:1020E000019751F4F801848180788460848351835E
:1020F0004083D282C382F0CF242F58874F834D2D47
:10210000D986CA8638855C2D60E0C7010E94A60882
:102110009C01F801948190782115310561F095605A
:10212000948331832083D282C38281E0232B09F000
:10213000ABCF80E0A9CF9483F8CFA280B380C080DA
:10214000D180DA82C982BC82AB82C114D104B9F0D9
:10215000BE016F5F7F4FCA010E94590A009739F58F
:10216000F7018281938195012F5F3F4F280F391F1F
:10217000448155814217530738F481E08087F80184
:10218000848180788483D5CF338322830097B9F309
:10219000F601DC01A6014A0D5B1DE417F50719F0F5
:1021A00021912D93FACFFC01EA0DFB1D1082F8015D
:1021B000248120782360248391838083B382A28248
:1021C0008BCFCF93DF936115710579F1EB01DC01C2
:1021D0008D919C91009759F1DC011696ED91FC913F
:1021E000DE010D900020E9F71197AD014C1B5D0B4E
:1021F00030E020E0309749F0DF010D900020E9F752
:102200009D01215031092E1B3F0B2417350751F436
:10221000DE012C0F3D1F2A173B0749F05D914191CC
:102220005417C9F30E94A50ED5CF90E080E0DF914E
:10223000CF9108959F92AF92BF92CF92DF92EF928B
:10224000FF920F931F93CF93DF93EC017B01D42E6A
:102250000E94370A8C01892B09F052C0CE010E94DE
:10226000EA09863609F455C194F5873229F08B3591
:10227000D1F1823209F056C1E881F98182819381DE
:102280009B838A838481958122813381821B930B76
:102290009F838E831D821C82892B11F481E08087AD
:1022A000CE010E94A60A8C01892B51F5AC80BD801D
:1022B000B501888199810E946F0EF70124812078F1
:1022C0002560248391838083B382A28219C08437DE
:1022D00009F408C18B3709F453C08E3609F022C1C6
:1022E00064E872E008C1F7018481807880648483A7
:1022F0001182108213821282D1100FC005E010E00B
:10230000C801DF91CF911F910F91FF90EF90DF9067
:10231000CF90BF90AF909F9008951C86CE010E94F1
:10232000370A009709F02DC16DE5CE010E94030A1E
:102330008111E6CFDA946D857E85C7010E94250E56
:10234000009709F46EC04D2DBC01CE010E941A11F8
:10235000009709F016C1CE010E94370A009709F0D4
:1023600010C16DE5CE010E94030A8111C9CF6CE254
:10237000CE010E94030A8111DECF03E010E0C0CF3E
:10238000F7018481807880628483118210821382B5
:102390001282DD2009F4B2CF1C86CE010E94370ADA
:1023A000009709F0EEC06DE7CE010E94030A81118B
:1023B000A7CFBB24B394DA94E881F9818281938119
:1023C0009B838A838481958122813381821B930B35
:1023D0009F838E831D821C82892B09F4B086CE01D7
:1023E0000E94EA09873201F18232F1F0CE010E94A7
:1023F000EA09182F0E947709882309F4BECF1C86AA
:10240000612FCE010E948C0ACE010E94EA09182F8A
:102410000E9477098111F3CFE881F98180858823B3
:1024200051F004E010E06CCFCE010E94A60A8C01AE
:10243000892B09F065CFCE010E94370A8C01892BC8
:1024400009F05ECF6AE3CE010E94030A882309F4F3
:1024500094CFEA81FB818C819D81E80FF91F108266
:102460000C811D816A817B81C7010E94E110BC0142
:10247000892BA1F4B801888199810E946F0E8C018B
:102480006D857E85C7010E94250EFC01892B49F2CE
:1024900084818068848317830683BF014D2DCE011C
:1024A0000E941A118C01892B09F02ACFCE010E94BB
:1024B000370A8C01892B09F023CF6DE7CE010E94EA
:1024C000030A81111DCF6CE2CE010E94030A88230A
:1024D00009F453CFCE010E94370A8C01892B09F4ED
:1024E0006BCF0ECFF701848180788660848381E092
:1024F000808367EE71E0CE01DF91CF911F910F9144
:10250000FF90EF90DF90CF90BF90AF909F900C9492
:10251000140AF701848180788660848310826CEECF
:1025200071E0E9CFCE010E94EA095E01FFE0AF0E43
:10253000B11CD12C9A2CCB2C803374F08A3374F4D8
:102540009FE3D91699F01C86D394F50181935F011E
:10255000CE010E94EA09F0CF8B3291F393ED980FF0
:10256000923070F3982F9F7D953451F3CD0DD11D8E
:102570001F86B701892D9C2D0E94890B8111C0CE29
:10258000FCCE8C01BDCE009729F0FC01248125FDF5
:102590000C94E11090E080E008958F929F92AF92AA
:1025A000BF92CF92DF92EF92FF92CF93DF93EC0135
:1025B000FB0166E174E0808191810E94C312FC01FD
:1025C0008A81309711F480E02EC094819F779830F3
:1025D00009F447C038F49630B1F7408150E070E01C
:1025E00060E043C09A3051F19C3069F7C080D180DF
:1025F000E280F380682F70E090E080E00E94072D79
:102600004B015C01AC019B01C701B6010E94022D88
:1026100087FDD9CFA5019401C701B6010E945B2FA8
:1026200018168CF281E0DF91CF91FF90EF90DF9050
:10263000CF90BF90AF909F908F900895408151812F
:102640006281738190E0B0E0A0E0481759076A0703
:102650007B070CF4B8CF84179507A607B70714F7C4
:10266000B2CF408151816281738190E0B0E0A0E0FF
:10267000481759076A077B0708F4A5CF8417950701
:10268000A607B70778F69FCFEF92FF920F931F939D
:10269000CF93DF937C01EB010E94CD12182F88238A
:1026A000A1F162EF71E0888199810E94C3120097C5
:1026B00089F00E946A08882369F062EF71E08881DE
:1026C00099810E94C312009741F10E94F00CF7011A
:1026D000928781876CEF71E0888199810E94C31293
:1026E000009799F00E946A08082F882371F06CEF18
:1026F00071E0888199810E94C312009789F00E943D
:10270000F00CF70194878387102F812FDF91CF91F1
:102710001F910F91FF90EF90089590E080E0D7CF48
:1027200090E080E0EECFEF92FF920F931F93CF9354
:10273000DF93EC01892B49F490E080E0DF91CF91A9
:102740001F910F91FF90EF9008958C81982F9F77A4
:1027500039F4807880628C83198218821B821A82F5
:102760008C8185FFE9CF6115710531F37A018B0109
:10277000CE010E94E110009709F7B701CE010E9437
:10278000250E0097D9F2FC0124812F77248317832B
:102790000683D4CFCF93DF93DC01FB019481907843
:1027A0001097A1F0ED0109900020E9F72197CA1BCD
:1027B000DB0B94609483B183A083D383C28381E0D5
:1027C000AB2B09F480E0DF91CF9108959483F7CF8C
:1027D000EF92FF920F931F93CF93DF937C018B01B6
:1027E000CB0109960E945A0EEC01892B41F08C8195
:1027F000807880628C83198218821B821A82A801D9
:1028000066E174E0CE010E949313BC01F70182815E
:102810000E949708F701E380F480A80167E072E066
:10282000CE010E949313009739F0E114F10469F48A
:10283000FC01248120782483BE01C801DF91CF915F
:102840001F910F91FF90EF900895BC01C7010E9466
:10285000CA13F2CFCF92DF92EF92FF92CF93DF9322
:10286000EC010E94E8136B017C01AC016CE072E0AA
:10287000C6010E949313FC01892B31F08E81948153
:102880009078966094838083C701B601DF91CF91E1
:10289000FF90EF90DF90CF9008958F929F92AF922C
:1028A000BF92CF92DF92EF92FF92CF93DF93EC0132
:1028B0000E94E8136B017C01E881F9810284F385B1
:1028C000E02DCE0109954B015C01A7016CE072E09F
:1028D000C6010E949313FC01892B41F094819078EA
:1028E0009C60948380829182A282B382C701B601E8
:1028F000DF91CF91FF90EF90DF90CF90BF90AF909E
:102900009F908F9008958F929F92AF92BF92CF9297
:10291000DF92EF92FF92CF93DF93EC010E94E813D6
:102920006B017C01E881F9810284F385E02DCE0101
:1029300009954B015C01A7016CE072E0C6010E94A1
:102940009313FC01892B41F0948190789C609483CF
:1029500080829182A282B382C701B601DF91CF91BA
:10296000FF90EF90DF90CF90BF90AF909F908F90AF
:1029700008958F929F92AF92BF92CF92DF92EF9283
:10298000FF92CF93DF93EC010E94E8136B017C016F
:10299000AC0162EF71E0C6010E949313FC01892B28
:1029A00069F029853A859481907898609483C9016B
:1029B000B0E0A0E080839183A283B383A7016CEF92
:1029C00071E0C6010E949313FC01892B69F02B85ED
:1029D0003C859481907898609483C901B0E0A0E030
:1029E00080839183A283B383E881F9810284F38594
:1029F000E02DCE0109954B015C01A7016CE072E06E
:102A0000C6010E949313FC01892B41F094819078B8
:102A10009C60948380829182A282B382C701B601B6
:102A2000DF91CF91FF90EF90DF90CF90BF90AF906C
:102A30009F908F9008958F929F92AF92BF92CF9266
:102A4000DF92EF92FF920F931F93CF93DF93EC01EE
:102A50008B010E94E8136B017C01AC0162E172E022
:102A6000C6010E949313FC01892B61F04C855D85A2
:102A70006E857F859481907898609483408351839C
:102A800062837383A7016DE172E0C6010E94931314
:102A9000FC01892B61F0488959896A897B89948175
:102AA0009078986094834083518362837383A701F5
:102AB00069E272E0C6010E949313FC01892B31F098
:102AC0008C8D94819078966094838083A70167E3CE
:102AD00072E0C6010E949313FC01892B61F04C89BE
:102AE0005D896E897F899481907898609483408312
:102AF000518362837383A70163E472E0C6010E947D
:102B00009313FC01892B61F0488D598D6A8D7B8D63
:102B10009481907898609483408351836283738317
:102B2000A7016EE472E0C6010E949313BC018B857D
:102B30000E9497088D8D9E8D009709F448C0DC0196
:102B4000ED91FC910280F381E02DB80109954B01D4
:102B5000A7016BE572E0C6010E949313009739F05C
:102B60008114910479F5FC012481207824838F8DD0
:102B700098A10097B1F1DC01ED91FC910280F38105
:102B8000E02DB80109954B01A7016FE672E0C6017F
:102B90000E949313009739F081149104E9F4FC0129
:102BA000248120782483C701B601DF91CF911F9142
:102BB0000F91FF90EF90DF90CF90BF90AF909F90DC
:102BC0008F900895A701B4010E940610D0CF81E62E
:102BD00092E00E943E0FCBCFA701B4010E940610E5
:102BE000E2CF88E792E00E943E0FDDCFCF92DF92E6
:102BF000EF92FF92CF93DF93EC010E94E8136B01F9
:102C00007C01AC016CE072E0C6010E949313BC0130
:102C10008E810E949708C701B601DF91CF91FF9086
:102C2000EF90DF90CF900895CF92DF92EF92FF92D6
:102C3000CF93DF93EC010E94E8136B017C01E881E4
:102C4000F9810284F385E02DCE010995A7016CE09E
:102C500072E0C6010E949313FC01892B71F0288554
:102C60003985948190789A609483C901330FAA0BB7
:102C7000BB0B80839183A283B383C701B601DF912D
:102C8000CF91FF90EF90DF90CF900895FB010190DE
:102C90000020E9F73197AF01461B570B0C948909C7
:102CA0001F93CF93DF93E3EDF1E01281112379F0CD
:102CB000329621816213F9CFEC016CE50E94620922
:102CC000612FCE01DF91CF911F910C9462096111A8
:102CD000F9CF69E872E0DF91CF911F910C9446160D
:102CE0002F923F924F925F926F927F928F929F921C
:102CF000AF92BF92CF92DF92EF92FF920F931F930A
:102D0000CF93DF93CDB7DEB76C970FB6F894DEBFE5
:102D10000FBECDBF8C011B01DC0114968C91149762
:102D20008F77863009F499C268F58230A0F1129647
:102D3000ED90FC901397CC901196DC90843008F0C5
:102D40005DC2A701B601C1010E948909F10182811A
:102D500093816C960FB6F894DEBF0FBECDBFDF91A6
:102D6000CF911F910F91FF90EF90DF90CF90BF9088
:102D7000AF909F908F907F906F905F904F903F901B
:102D80002F9008958C3069F160F4883009F460C2A6
:102D90008A3009F446C264E872E0C1010E94461616
:102DA000ECC1803209F4F3C18034A9F76BE5C101AD
:102DB0000E946209F801008111810115110509F4D1
:102DC000E1C1B101C8010E947016C8010E94A50EA0
:102DD0008C01892B09F4D6C16CE2C1010E94620901
:102DE000ECCFF801C080D180E280F380A70196018A
:102DF000C701B6010E94022D8111CDCF20E030E045
:102E0000A901C701B6010E94022D882379F0A7010C
:102E10009601C701B6010E94B92E9B01AC01C70102
:102E2000B6010E94022D882309F4B5CF20E030E0DE
:102E3000A901C701B6010E94022D87FF08C06DE2FB
:102E4000C1010E946209F7FAF094F7F8F09420E8C3
:102E500036E948E15BE4C701B6010E945B2F87FDBC
:102E600088C074E1A72EB12C00E210E0188E1F8AF2
:102E7000F501EC53FF4F6591759185919491A701F0
:102E800096010E94022D18169CF0F501E455FF4FA3
:102E90002591359145915491C701B6010E94682D45
:102EA0006B017C012F89388D200F311F388F2F8BBC
:102EB0001595079534E0A31AB1088CEFA8168FEF8B
:102EC000B806B1F655245A9420E030E0A901C701B4
:102ED000B6010E945B2F18160CF052C02CEA35EC9C
:102EE00047E257E3C701B6010E94022D18160CF401
:102EF00047C0A52DB4E0AB02C0011124B12CA12C18
:102F0000FC01E455FF4F3F019C012C533F4F490109
:102F10003FEF531609F434C0F301EA0DFB1D659130
:102F200075918591949120E030E040E251E40E9457
:102F3000682DA70196010E945B2F18169CF4F401DE
:102F4000EA0DFB1D2591359145915491C701B601BC
:102F50000E94682D6B017C018F89988D801B910BDD
:102F6000988F8F8B159507955A9494E0A91AB108FC
:102F7000CFCF00E210E055E0552E188E1F8AA4CF67
:102F8000C701B6010E942C2F4B015C012B013C01B3
:102F900006E080E492E4AFE0B0E0898F9A8FAB8FD7
:102FA000BC8F102F01509AE049165104610471043E
:102FB000C8F0698D7A8D8B8D9C8D2AE030E040E0E1
:102FC00050E00E94872E298F3A8F4B8F5C8FC30170
:102FD000B2012AE030E040E050E00E94872E290153
:102FE0003A01DFCFC501B4010E94072D9B01AC015E
:102FF000C701B6010E94B82E6B017C01698D7A8DE4
:103000008B8D9C8D0E94072D9B01AC01C701B601E1
:103010000E94682D2B013C010E942C2F6B017C012A
:103020000E94072D9B01AC01C301B2010E94B82E82
:103030009B01AC010E94B92E0E942C2FC60ED71EF8
:10304000E81EF91E898D9A8DAB8DBC8DC816D906E8
:10305000EA06FB06D8F09FEF891A990AA90AB90A6D
:10306000AF89B88DAB2B39F1BAE08B169104A1046E
:10307000B10408F1EF89F88D3196F88FEF8BC12CF0
:10308000D12C7601812C912C540183942AE0422E7C
:10309000512C612C712CC701B601A30192010E9431
:1030A000872E672B682B692B51F4111644F46901A4
:1030B0007A011150F0CFC12CD12C7601E7CFB501A8
:1030C000A401C1010E949E09112371F14E01F1E199
:1030D0008F0E911C012F54019AE0492E512C612C26
:1030E000712C015068F0C701B601A30192010E9442
:1030F000872E605DD4016E934D0169017A01F1CF95
:10310000812F90E0BC0160957095F501E81BF90BEB
:1031100031978EE2808344275527461B570B6A0D53
:103120007B1DC1010E948909EF89F88DEF2B29F1E0
:1031300065E6C1010E9462090F89188D17FF07C05B
:103140006DE2C1010E946209119501951109FE010C
:1031500077969F018AE0E82EF12CC801B7010E9402
:103160006C2F805D82938B01672BB9F7A9014E1BF1
:103170005F0BBF01C1010E948909D10112968D9197
:103180009C91E7CD6DE5C1010E946209F6CF6BE726
:10319000C1010E946209F801008111810115110528
:1031A00059F1D8011696CC9016971796DC9062E2EA
:1031B000C1010E9462097601F70161917F016623D6
:1031C00021F0C1010E945016F7CF62E2C1010E94B6
:1031D00062096AE3C1010E946209B101C8010E944B
:1031E0007016C8010E94A50E8C01892B29F06CE293
:1031F000C1010E946209D2CF6DE7C5CF62E2C10171
:103200000E9462098601E00EF11EE016F10639F017
:10321000F80161918F01C1010E945016F6CF62E260
:10322000B2CFCD90DD90ED90FC90B701A601F7FEF6
:103230000BC06DE2C1010E94620944275527BA0103
:103240004C195D096E097F09C1010E949E097ECD5E
:103250004D915D916D917C91F7CF8C9167EE71E00E
:10326000811102C06CEE71E0C1010E9446166ECD64
:10327000CF92DF92EF92FF92CF93DF936C01990F81
:10328000EE08FF08F7FE1DC06DE281E595E00E94A3
:103290003704EC0166277727CB016C197D098E096D
:1032A0009F094AE00E94F60EC80FD91F0E943A0FEC
:1032B0008C0F9D1FDF91CF91FF90EF90DF90CF900B
:1032C00008954AE0C701B6010E94F60EEC01EECF68
:1032D000BF92CF92DF92EF92FF920F931F93CF9303
:1032E000DF93EC01B62EC72E8D85811105C0CE016E
:1032F0000E94BB0781110EC01B861D861C8680E0C4
:10330000DF91CF911F910F91FF90EF90DF90CF90C1
:10331000BF90089540E060EFCE010E94680701E091
:10332000E12CD12C11E0CE010E941507F82ECE0120
:103330000E94150791E0F91218C0813099F51134F7
:10334000D8F2DB86D11002C081E08D878B81882383
:1033500099F22396EB2DFC2DCF010896299121930C
:10336000E817F907D9F781E0CBCFEE2DF0E0F8129E
:103370000FC08B851817A0F4DE01AE0FBF1F139688
:103380008C91802379F4F12C193008F41C87D12E0C
:10339000EC0FFD1F8381902F9095892383830AC0B2
:1033A0008113F1CFFE01EE0DF11D8381802B83830C
:1033B000FF24F3946F2DCE010E9439071F5F000F89
:1033C00011F4E39401E087E08E1508F0ACCFB7CF9D
:1033D0000F931F93CF93DF93CDB7DEB728970FB628
:1033E000F894DEBF0FBECDBFDC018E010F5F1F4F13
:1033F00086E0F80111928A95E9F715963C911597A8
:103400002AE0832F622F0E94602F982F880F890F48
:10341000880F830F8A8314963C911497832F0E9400
:10342000602F982F880F890F880F830F8B83139637
:103430003C911397832F0E94602F982F880F890F3C
:10344000880F830F8C8312963C911297832F0E94D2
:10345000602F982F880F890F880F830F8E83119606
:103460003C911197832F0E94602F982F880F890F0E
:10347000880F830F8F833C91832F0E94602F982F9A
:10348000880F890F880F830F88878091FF049091A0
:103490000005FC01248135812830310580F0208130
:1034A00031E030932D0520934F0510922E05109298
:1034B000500521E048E050E0B8010E94AE06289691
:1034C0000FB6F894DEBF0FBECDBFDF91CF911F9135
:1034D0000F9108950F931F93CF93DF9300D0CDB733
:1034E000DEB780E992E00E94E90E8091BB079091DF
:1034F000BC078E010F5F1F4F009709F5C8018F5B56
:1035000097409A83898340E1B801012E000C880B13
:10351000990B0E94F60E89819A810E9438198CE9D4
:1035200092E00E94E90EC8018F5B97400E94381913
:103530000F900F90DF91CF911F910F9108959801F7
:10354000281B390BC9018554984F9A838983E3CF8F
:10355000DF92EF92FF920F931F93CF93DF9300D0F0
:1035600000D000D0CDB7DEB78C017B010E94CD1218
:10357000D82E882309F4A9C062E172E0D7018D91A9
:103580009C910E94C3120E94BE0DF801648775874A
:103590008687978767E372E0D7018D919C910E949F
:1035A000C3120E94BE0DF801648B758B868B978BBE
:1035B00063E472E0D7018D919C910E94C3120E9436
:1035C000BE0DF801608F718F828F938F6EE472E071
:1035D000D7018D919C910E94C3120E94BE0DF801EB
:1035E000638769EA72E0D7018D919C910E94C312B2
:1035F000009709F479C00E944F0DF801A581B681AA
:10360000ED91FD91309719F092818913F9CFD8018E
:103610005E96FC93EE935D9762EB72E0F70180811A
:1036200091810E94C312009709F460C00E944F0D5F
:10363000F801A581B681ED91FD91309719F0928145
:103640008913F9CFD8019096FC93EE935F976EE4BF
:1036500072E0F701808191810E94C3120E94BE0D29
:103660006EEB72E0D7018D919C910E94C312F12CF8
:10367000E12C009731F00E94230929833A83E980E5
:10368000FA8063EC72E0C7010E946530892B19F063
:10369000F8011286118668EC72E0C7010E9465305D
:1036A000892B39F081E090E0D8011A969C938E9393
:1036B00019976EEC72E0C7010E946530892B29F0E2
:1036C00082E090E0F801928781878D2D26960FB6D3
:1036D000F894DEBF0FBECDBFDF91CF911F910F9148
:1036E000FF90EF90DF90089580E087CF80E0A0CF3B
:1036F000DC0199E0FB0101900D929A95E1F70895A4
:10370000FC0199E0DB0101900D929A95E1F7089593
:10371000DC0198E0FB0101900D929A95E1F7089584
:10372000FC0198E0DB0101900D929A95E1F7089574
:10373000DC019CE2FB0101900D929A95E1F708955E
:10374000FC019CE2DB0101900D929A95E1F708954E
:10375000DC019DE0FB0101900D929A95E1F708953F
:10376000FC019DE0DB0101900D929A95E1F708952F
:10377000DC0191E2FB0101900D929A95E1F7089529
:10378000FC0191E2DB0101900D929A95E1F7089519
:10379000DC0197E0FB0101900D929A95E1F7089505
:1037A000FC0197E0DB0101900D929A95E1F70895F5
:1037B000DC019AE0FB0101900D929A95E1F70895E2
:1037C000FC019AE0DB0101900D929A95E1F70895D2
:1037D0000E94573085ED8093BC008091290590911F
:1037E0002A05A0912B05B0912C050796A11DB11DAE
:1037F00023E0B695A795979587952A95D1F72091BF
:10380000BC0024FD03C010922705089540912905AE
:1038100050912A0560912B0570912C05452B462B64
:10382000472B69F30097A105B10541F02AE22A95DB
:10383000F1F700C00197A109B109E1CF80912805F6
:103840000C941405FB0101900020E9F73197AF01BA
:10385000461B570B0E94753021E0892B09F020E0B0
:10386000822F08951F920F920FB60F9211242F935B
:103870003F938F939F93AF93BF938091E304909175
:10388000E404A091E504B091E6043091E20423E061
:10389000230F2D3758F50196A11DB11D2093E20489
:1038A0008093E3049093E404A093E504B093E604CA
:1038B0008091E7049091E804A091E904B091EA04B2
:1038C0000196A11DB11D8093E7049093E804A09395
:1038D000E904B093EA04BF91AF919F918F913F911A
:1038E0002F910F900FBE0F901F90189526E8230F71
:1038F0000296A11DB11DD2CF1F920F920FB60F924B
:1039000011248F939F938091E1009091E100937F28
:103910009093E10083FF0FC01092E90091E0909333
:10392000EB001092EC0092E39093ED001092F804FB
:1039300098E09093F00082FF22C093E09093E9001A
:103940009091F200992319F09AE39093E8009091F6
:103950008504992341F090918504915090938504BA
:10396000911101C05D9A9091F704992341F09091D3
:10397000F70491509093F704911101C0289A84FFA5
:1039800018C08091E2008E7E81608093E200809179
:10399000E1008F7E8093E100809186048E7E8061BD
:1039A000809386049F918F910F900FBE0F901F9070
:1039B000189580FFF7CF8091E2008E7E8061809322
:1039C000E2008091E1008E7E8093E1008091860488
:1039D0008E7E8160E5CF1F920F920FB60F92112459
:1039E000CF92DF92EF92FF920F931F932F933F930B
:1039F0004F935F936F937F938F939F93AF93BF93F7
:103A0000EF93FF93CF93DF93CDB7DEB76C97DEBF15
:103A1000CDBF1092E9008091E80083FF25C068E0E7
:103A2000CE0145960E94690382EF8093E8008D895C
:103A300087FF39C09091E80090FFFCCF982F9076D7
:103A400009F034C19E894F89588D2F89F88C9111C6
:103A500031C0803861F5809187048093F100109225
:103A6000F1008EEF8093E8006C960FB6F894DEBFFD
:103A70000FBECDBFDF91CF91FF91EF91BF91AF917D
:103A80009F918F917F916F915F914F913F912F9176
:103A90001F910F91FF90EF90DF90CF900F900FBE8E
:103AA0000F901F9018959EEF9093E800C7CF10924B
:103AB000F100D5CF913059F48111D3CF4130510568
:103AC00081F6809187048D7F80938704CACF9330DD
:103AD00049F48111C6CF4130510519F68091870410
:103AE0008260F2CF953041F48091E80080FFFCCFF6
:103AF00020682093E300B5CF963009F0A9C00B8D64
:103B00001C8D22E01092E90010928304109282042E
:103B1000F2122EC010928104109280040E94380389
:103B20001F8299E09983FA8291E09E8390EA9887B8
:103B30009AEF99872091820430918304275F3F4F49
:103B40003C832B838D831092E900109283041092A2
:103B50008204109381040093800449E050E0BE0188
:103B60006F5F7F4F80E00E9412030E94380379CF7D
:103B700010938104009380040E947F01DC0112965F
:103B80000D911C910115110509F451C1D801ED9158
:103B9000FC910480F581E02DBE016B5E7F4FC80172
:103BA0000995009709F03EC1F80100851185EACF1B
:103BB000F3E0FF120EC08F89882309F440C08230E1
:103BC00061F440E860E180E691E00E94DF0281114B
:103BD00048CF81E28093EB0047CF813029F440E861
:103BE0006BE084E591E0F1CF833099F70E947F018B
:103BF000DC011296ED90FC908E010F5F1F4F680163
:103C0000E114F10479F0D701ED91FC910680F78180
:103C1000E02DB801C7010995080F111DF701E084D7
:103C2000F184EECFD8011C92F60101900020E9F753
:103C30003197BF016C197D0940E0C601C6CF6EE324
:103C400071E0FB01449150E080E80E94120309CF2B
:103C5000973009F4BECF983021F481E08093F100D1
:103C600000CF993009F0FDCE837009F0B2CFEDE3BB
:103C7000F1E081E031E096E32191222371F080931D
:103C8000E9003093EB00DF0111972C912093EC00B9
:103C90009093ED008F5F873079F78EE78093EA008D
:103CA0001092EA008F898093F804DBCE8B8D9C8D77
:103CB0001092E90010928304109282049093810480
:103CC00080938004898D811192C08E899D89913A5B
:103CD00049F4813209F07DCF47E050E064E071E0C3
:103CE00080E0B3CF913209F074CF833269F48F89C9
:103CF000988DB0E0A0E08093000190930101A09323
:103D00000201B0930301ADCE803269F48091E800E6
:103D100082FFFCCF67E084E091E00E9469038BEFB3
:103D20008093E8009ECE823209F09BCE8F898093EB
:103D30000B01EEEFFFE7859194918B3F9C4D51F184
:103D4000E0E0F8E08091040190910501A091060166
:103D5000B0910701803B9440A105B105F1F4809139
:103D60000B0180FD1AC0EE3F8AE0F80789F587E76E
:103D700097E791838083809160008093840488E139
:103D80009BE00FB6F894A895809360000FBE9093C7
:103D9000600067CEEEEFFAE0D5CF80819181873762
:103DA000974709F05ECEA895809160008861809366
:103DB00060008091840480936000EE3F2AE0F20767
:103DC00089F08091FE0A9091FF0A9183808349CE09
:103DD000808191818737980751F29093FF0A8093F1
:103DE000FE0AC5CF1092FF0A1092FE0A3ACE0E9438
:103DF0007F01DC0112960D911C910115110509F44A
:103E0000E8CED801ED91FC910190F081E02DBE014A
:103E10006B5E7F4FC8010995811123CEF8010085A3
:103E20001185EBCF181619060CF41BCED2CEF1E09B
:103E3000FF12BECE62E471E004CF1F920F920FB664
:103E40000F9211242F933F934F935F936F937F9320
:103E50008F939F93AF93BF93EF93FF938091B9009C
:103E6000887F803609F44AC0F0F5883209F4A7C08B
:103E700018F5803109F49BC0B8F4882309F4F9C01F
:103E8000883009F494C0FF91EF91BF91AF919F9159
:103E90008F917F916F915F914F913F912F910F90F3
:103EA0000FBE0F901F901895883109F488C080329A
:103EB00051F78093250514C0803409F49DC040F467
:103EC0008033B9F38833F9F68093250585ECB0C0CB
:103ED000803509F485C0883509F496C0883499F690
:103EE0000E94EA1BD0CF883909F48CC038F5883796
:103EF00029F050F4883611F0803729F683E080935A
:103F0000270510927F0457C0883809F47BC0803998
:103F100019F0803809F0B7CF80917F04803208F023
:103F200071C0E0917F0481E08E0F80937F048091C7
:103F3000BB00F0E0E15AFB4F80833DC0803B39F08D
:103F4000E0F4803A09F479C0883A09F09CCF84E023
:103F50008093270510925E0410925D04E091FB04AB
:103F6000F091FC04099580915D0481110FC081E0FE
:103F700080935D0410923D0409C0803C09F4A6CFF3
:103F8000883C09F4A3CF883B09F07DCFE0915E0423
:103F900081E08E0F80935E04F0E0E35CFB4F808154
:103FA0008093BB0090915E0480915D0429C0809154
:103FB00002058093BB0085EC8093BC0064CF909198
:103FC000240580912305981758F5E091240581E098
:103FD0008E0F80932405F0E0ED5FFA4F8081E9CFEA
:103FE000E091240581E08E0F809324058091BB0031
:103FF000F0E0ED5FFA4F80839091240580912305D6
:104000009817C8F285E8D8CFE091240581E08E0F9B
:10401000809324058091BB00F0E0ED5FFA4F808330
:104020008091260581115CCF81E08093010584EAAF
:104030008093BC001092270526CF85EC8093BC00AE
:104040001092270580917F04803230F4E0917F0444
:10405000F0E0E15AFB4F108260917F0470E0E09144
:10406000F904F091FA048FE594E0099510927F0429
:104070000ACF1092250534CFCF92DF92EF92FF92B4
:104080000F931F93E82FF92F05C001501109210943
:10409000310961F1908196239417B9F305C001505D
:1040A00011092109310911F1908196239413F7CF59
:1040B000C12CD12CE12CF12C0AC08FEFC81AD80AE0
:1040C000E80AF80A0C151D052E053F0579F08081D8
:1040D0008623841791F36C2D7D2D8E2D9F2D1F919E
:1040E0000F91FF90EF90DF90CF90089560E070E027
:1040F00080E090E01F910F91FF90EF90DF90CF90C4
:104100000895FC0187810E94350297FD03969595DD
:10411000879595958795682F70E090E080E00E94E4
:10412000072D089505970C948120CF93DF93EC0120
:104130008F810E9435029C01990F440B550B285525
:10414000324041095109A4E6B0E00E94452E20E129
:104150003FEF4FEF5FEF0E94262E3987288764E1FB
:1041600070E080E090E00E947E026885798577FFAC
:1041700002C070E060E079876887072E000C880B2A
:10418000990B0E94092DDF91CF91089505970C940A
:104190009520CF92DF92EF92FF920F931F93CF93D0
:1041A000DF93CDB7DEB761970FB6F894DEBF0FBED1
:1041B000CDBF8C01DC015E968D919C910E94BB0766
:1041C00040E06CECF801868D978D0E946807D8015D
:1041D00055964C91559764E45E968D919C910E9402
:1041E0006807F801818D882391F1E08DD8015A96F6
:1041F0008C915A97882309F457C055968C91811158
:1042000053C08FB7F894C090E304D090E404E090DA
:10421000E504F090E6048FBFF801868D978D0E942B
:1042200015078130A1F02FB7F8948091E3049091A5
:10423000E404A091E504B091E6042FBF8C199D0918
:10424000AE09BF098E3E9240A105B10528F3D80101
:104250005E96ED91FC915F97138615861486128603
:104260001186108617821682158214821382BE016F
:10427000665F7F4F5E968D919C910E9468198111B7
:104280003CC060E070E08EEF92EC61960FB6F8945F
:10429000DEBF0FBECDBFDF91CF911F910F91FF9079
:1042A000EF90DF90CF900895E9508EEE92E0E330EA
:1042B00038F4F0E0EE0FFF1FEA5CFE4F8081918141
:1042C0006C01990FEE08FF08D80156968C9156970D
:1042D000882329F060E057968C910E949301C701D2
:1042E000B6010E947E02F8018689882309F4AFCFC7
:1042F00061E087890E949301AACF67E0CE010A9608
:104300000E94FE0699898913BCCFAE014F5F5F4FB3
:10431000BE01665F7F4FC80145960E94F307882360
:1043200009F4AFCF6A8170E0762F6627770F770F99
:10433000770F2981B8E02B9F90011124262B372B72
:104340008A858031E1F468856623C9F070E08F8149
:10435000FB01E81BF109CF019695982F88279795C7
:1043600087950E94802FCB018097B90153E0660F9B
:10437000771F5A95E1F760789C01260F371F213887
:10438000F4EE3F070CF47DCFB901330F880B990B86
:104390000E94092D20E030E040E05CE30E94682D9F
:1043A00074CF05970C94C920CF92DF92EF92FF92C1
:1043B0000F931F93CF93DF93EC0160E088850E94F9
:1043C000930183E090E00197F1F761E088850E9416
:1043D000930183E290E00197F1F760E088850E9405
:1043E00093018F8190E0FC01EF52FE4F6491FC013C
:1043F000EE54FE4FE491F0E0EE0FFF1FEF58FE4F3A
:104400008591949100E412E42FE030E0462F0E9461
:104410003C20611571058105910529F06F5F7F4F83
:104420008F4F9F4F9F700E94092D26E933E44BE088
:104430005DE30E94682D20E030E040E05FE30E94F1
:10444000682D0E942C2FCB84DC84E985FA8590E0CE
:1044500080E0CE16DF0611F1F12CE12C9B01AC01BE
:104460002C193D094E095F09A4E6B0E00E94452ED3
:104470009F0150E040E02C193D094E095F090E9460
:10448000262ECA01B9010E94092DDF91CF911F91FB
:104490000F91FF90EF90DF90CF9008950E94072D2D
:1044A000F4CF05970C94D421E1E5F5E01382128254
:1044B00088EE93E0A0E0B0E084839583A683B78381
:1044C00023EB31E0318320832FEF3FEF35872487C3
:1044D000E1EAF5E01382128284839583A683B78391
:1044E00085EC91E091838083EDEAF5E08BEB95E03C
:1044F00091838083938382838BEB97E0958384837E
:1045000097838683108615860895CF93DF93CDB762
:10451000DEB7CD5AD1090FB6F894DEBF0FBECDBFBE
:10452000789484B5826084BD84B5816084BD85B58E
:10453000826085BD85B5816085BD80916E0081609A
:1045400080936E0010928100809181008260809340
:104550008100809181008160809381008091800042
:1045600081608093800080919100826080939100AF
:104570008091910081608093910080919000816092
:10458000809390008091C10084608093C1008091ED
:10459000C10082608093C1008091C10081608093DE
:1045A000C1008091C30081608093C3008091C000EE
:1045B00082608093C0008091C20081608093C200BD
:1045C00080917A00846080937A0080917A00826082
:1045D00080937A0080917A00816080937A00809144
:1045E0007A00806880937A001092F8041092870411
:1045F000109286048091D70081608093D70080EA72
:104600008093D80089B5806189BD89B5826089BDF4
:1046100009B400FEFDCF61E070E080E090E00E9410
:104620007E028091D8008F7C80618093D800809139
:10463000E000807F8093E0008091E1008E7E809397
:10464000E1008DE08093E200559A209A8FEF9FEF72
:1046500090935E0580935D0581E595E00E949E0440
:10466000892BD1F764EF71E080E090E00E947E0238
:104670000E946A1A64EF71E080E090E00E947E027E
:1046800068EE73E080E090E00E947E0285ED92E0AB
:104690000E943E0F0E946A1A8CE290E00E94A12BB9
:1046A0008C0144EE52E068E00E944A0F87E491E0FA
:1046B000D80111969C938E9387E591E016969C9372
:1046C0008E9315977801B5E1EB0EF11CF80113A656
:1046D00012A6168A60E087E00E940402E8EDF1E08D
:1046E0008491E9EBF1E0E491F0E0EE0FFF1FEF5869
:1046F000FE4F259134911B861A86198618861F82D3
:104700001E821D821C8289833B832A831C861D8610
:104710001E868EE09E012F5F3F4FC855DF4F3983C5
:104720002883C85AD040F901D801179601900D92FC
:104730008A95E1F7D80155961C92559756961C928A
:10474000569789E058968C93589781E059968C93A8
:1047500059975A968C935A975B968C935B97C8019E
:1047600007965F969C938E935E979B961C921E92E3
:104770009A9752961C92529754961C92549753961D
:104780001C92539751961C92519750961C92509799
:104790001F961C921F971E961C921E971D961C9288
:1047A0001D971C961C921C971B961C921B971A9681
:1047B0001C921A975C961C925C975D961C921E0147
:1047C000B5E62B0E311CDD24D394B101F801868DA2
:1047D000978D0E946819882309F475C067E0C101AC
:1047E0000E94FE06D10117969C9117978913EDCF71
:1047F000F801848D8F5F848F8C91883231F008F0BE
:1048000049C0803111F0823201F7D8015D968C9158
:104810005D978F5F5D968C935D9755968C915597BC
:10482000811123C05E968D919C910E94BB07B101BE
:10483000F801868D978D0E949C0740E064EBD801BB
:104840005E968D919C910E946807F801868D978DE8
:104850000E941507C82ED8015E968D919C910E94EA
:10486000BB07C11002C0F801D58AD1018C918031FB
:10487000E1F0AE014F5F5F4FB101C7010E94F30746
:10488000882331F08D818F3391F058F48F31B9F056
:1048900080E00EC08B3309F4B8CF823409F095CF95
:1048A000B4CF8F3571F08F3799F78CE001C08AE073
:1048B000F801908D981708F088CF808F86CF89E017
:1048C000F7CF8BE0F5CF1093C1040093C0048AE0CA
:1048D00090E00E94A12B8C012BEE32E042E161E0DE
:1048E0000E94680F10939F0400939E041093C304CA
:1048F0000093C2048AE090E00E94A12B8C0124EF77
:1049000032E043E162E00E94680F10939D0400933F
:104910009C041093C5040093C4048AE090E00E94B4
:10492000A12B8C012DEF32E044E163E00E94680F7F
:1049300010939B0400939A041093C7040093C60439
:104940008AE090E00E94A12B8C0126E033E045E153
:1049500064E00E94680F10939904009398041093E8
:10496000C9040093C80460ED77E080E090E00E9405
:104970007E028FE093E00E943E0F0E946A1A8DE053
:1049800090E00E94A12B8C014AE153E065E00E9477
:104990004A0F8DE591E0D80111969C938E938DE698
:1049A00091E016969C938E93159783E017968C93BF
:1049B000179782E018968C9318971C961C921E925B
:1049C0001B971A961C921E9219971093CB04009372
:1049D000CA0487E090E00E94A12B8C014FE153E0D4
:1049E00066E00E944A0F83E791E0F801918380839B
:1049F00084E0858361E00E940402D80116961C922F
:104A000010939704009396041093CD040093CC0464
:104A100088E090E00E94A12B8C0144E253E067E023
:104A20000E944A0F81E891E0F8019183808381E937
:104A300091E09683858386E187831093CF0400936A
:104A4000CE0460ED77E080E090E00E947E0289E293
:104A500093E00E943E0F0E946A1A89E090E00E9453
:104A6000A12B8C01E0909604F090970445E353E06D
:104A700069E00E944A0F57E9C52E51E0D52ED801B2
:104A80001196DC92CE9286E015968C931597189627
:104A9000FC92EE92179761E00E9404021093950435
:104AA000009394041093D1040093D00489E090E023
:104AB0000E94A12B8C014CE353E06AE00E944A0F54
:104AC000F801D182C08288E08583F086E78261E0C8
:104AD0000E94040210939304009392041093D30451
:104AE0000093D20489E090E00E94A12B8C0143E462
:104AF00053E06BE00E944A0FD8011196DC92CE92EF
:104B000089E015968C9315971896FC92EE9217975C
:104B100061E00E94040210939104009390041093AA
:104B2000D5040093D40489E090E00E94A12B8C016D
:104B30004AE453E06CE00E944A0FF801D182C0823F
:104B40008AE08583F086E78261E00E940402109388
:104B50008F0400938E041093D7040093D60460ED65
:104B600077E080E090E00E947E0281E593E00E9481
:104B70003E0F0E946A1A81E290E00E94A12B6C0114
:104B8000E0909E04F0909F0400919404109195048D
:104B90004FE553E064E10E944A0F65EA862E61E02A
:104BA000962ED60111969C928E92E4E11B96EC9380
:104BB0001B977AE5472E512C612C712C1C964D9237
:104BC0005D926D927C921F975E961C930E935D97FB
:104BD0009096FC92EE925F97D0928D04C0928C04D6
:104BE000D092D904C092D80481E290E00E94A12B17
:104BF0007C01A0909C04B0909D04009192041091BF
:104C0000930448E653E065E10E944A0FF701918260
:104C1000808224E123874486558666867786168FB0
:104C2000058FB0A2A78EF0928B04E0928A04F092D6
:104C3000DB04E092DA0481E290E00E94A12B8C0177
:104C4000E0919A04F0919B04C655DF4FF983E88305
:104C5000CA5AD040A0909004B090910441E753E02C
:104C600066E10E944A0FD80111969C928E92E4E16F
:104C70001B96EC931B971C964D925D926D927C92C5
:104C80001F975E96BC92AE925D97C655DF4FE88146
:104C9000F981CA5AD0409096FC93EE935F97109397
:104CA0008904009388041093DD040093DC0481E2FE
:104CB00090E00E94A12B5C0120919804309199040E
:104CC000C655DF4F39832883CA5AD04040918E049D
:104CD00050918F04C455DF4F59834883CC5AD0403C
:104CE0004AE753E067E10E944A0FD50111969C9272
:104CF0008E92E4E11B96EC931B971C964D925D926D
:104D00006D927C921F97C455DF4FE881F981CC5A90
:104D1000D0405E96FC93EE935D97C655DF4F288199
:104D20003981CA5AD04090963C932E935F97B092A7
:104D3000DF04A092DE04E0ECF4E0D6011696FC93CA
:104D4000EE931597D7011696FC93EE931597D8011D
:104D50001696FC93EE931597D5011696FC93EE9359
:104D6000159783E893E00E943E0F0E946A1A60E064
:104D70008CE00E9404028FE893E00E943E0F8CE9D1
:104D800093E00E943E0F0E94FD048091FF049091E9
:104D90000005009711F00E943D2C86E090E00E94F3
:104DA000A12B8C0188E6F801808381EA95E092834B
:104DB0008183138280E290E09583848310930005C1
:104DC0000093FF040E94FD0481E0D80113968C93A8
:104DD000C8010E94CC068AEB93E00E94F106898309
:104DE00084E08A8385EB93E00E94F1068B838DEB50
:104DF00093E00E94F1068C8380EC93E00E94F10620
:104E00008D8383EC93E00E94F1068E83CE010196A0
:104E10000E94E81981E595E00E949E04892B09F41F
:104E20008CC00E9433010E9433018DEA95E0C65682
:104E3000DF4F99838883CA59D04028E0FE01E656A7
:104E4000FF4FDE01AE56BF4F01900D922A95E1F75C
:104E500028E0FE01EE56FF4FDE01119601900D9203
:104E60002A95E1F7198621E535E03B872A871D86DB
:104E70009F878E874AE066EB75E0CE0101960E941F
:104E80001A11009709F056C08C85882309F44EC486
:104E90008091BA0583FF4AC484E6C855DF4FE88194
:104EA000F981C85AD04011928A95E9F78E010F5FB7
:104EB0001F4F81E595E00E94760397FD06C0D8015B
:104EC0008D938D01A215B305A1F7C855DF4FE88179
:104ED000F981C85AD04001900020E9F73197C855B0
:104EE000DF4FB881C85AD040EB1B21E030E02C0FD7
:104EF0003D1FC258DF4F39832883CE57D040CE01A3
:104F0000029621E011E02E1708F040C0DC013D912F
:104F1000CD01303269F4A12FB0E0AA0FBB1F4EE7DC
:104F200050E04C0F5D1FA40FB51F8D939C931F5F26
:104F30002F5FE9CF039709F4AFCF80E090E0892B92
:104F400009F468CF0E94000065CF86EB95E09A8354
:104F500089838DEA95E09C838B8310E0E12FF0E05C
:104F6000EE0FFF1FE054FB4F80819181009729F3E2
:104F7000DC01ED91FC910480F581E02DBE016F5FB5
:104F80007F4F09958111D9CF1F5FE8CF66EC73E0A1
:104F9000C258DF4F88819981CE57D0400E94221C91
:104FA000882309F477C0112309F4B1C3C058DF4F37
:104FB000A880C058D040CF57DF4FB880C158D040EC
:104FC0006AEC73E0C5010E94221C882309F458C0D2
:104FD0000E94330190ECC92E94E0D92ED601ED90B9
:104FE000FD906D01E114F104E9F16DEA75E086EBE5
:104FF00095E00E945A0E8C01009749F0FC018481D3
:1050000080788062848311821082138212824DEA3A
:1050100055E066E174E0C8010E949313BC01D7011A
:1050200012968C910E949708F701E380F4804DEA74
:1050300055E067E072E0C8010E949313009751F0B9
:10504000E114F10451F4DC0114962C9114972078AA
:1050500014962C930E946A1AC1CFBC01C7010E940A
:10506000CA13F8CF81E595E0F10191838083138223
:105070001282B10186EB95E00E9470160E943A0FF1
:1050800068E074E0C5010E94221C882309F4E2C094
:105090000E946A1A6AEE73E0C258DF4F88819981D4
:1050A000CE57D0400E946530892B09F046CF68E189
:1050B00072E0C058DF4F88819981C058D0400E946B
:1050C0006530892B09F039CFCE57DF4F0881198120
:1050D000C258D0406EEE73E0C8010E946530892B43
:1050E00009F05BC084E1E7E2F4E0D10101900D92A8
:1050F0008A95E1F7D1010D900020E9F7AD0141500B
:105100005109F80101900020E9F73197E01BF10BFC
:1051100042195309E417F50708F4AF01B801C101BA
:105120000E945C30C10102960E94F106CE55DF4F0D
:105130008883C25AD040C10105960E94F106CD5520
:10514000DF4F8883C35AD040C10108960E94F10600
:10515000CC55DF4F8883C45AD040C1010B960E94C2
:10516000F106CB55DF4F8883C55AD040C1010E965A
:105170000E94F106CA55DF4F8883C65AD040C1014C
:1051800041960E94F106C955DF4F8883C75AD04027
:10519000CE018E559F4F0E94E81962EF73E0C8015F
:1051A0000E946530892B09F0C8CEC8010E94C62C28
:1051B0006B017C01B0E8CB1AB3E4DB0ABDE6EB0A75
:1051C000B8E3FB0AC701B6012CE330E040E050E051
:1051D0000E94872EF1016583CA01B9012CE330E0FA
:1051E00040E050E00E94872ED10114966C93C701D5
:1051F000B60120E13EE040E050E00E94872ECA0167
:10520000B90128E130E040E050E00E94872EF10132
:105210006383C701B60120E831E541E050E00E9418
:10522000872E80E0982F937041E050E011F050E01D
:1052300040E0E1E0E80FBA0163597E4F26173707D7
:1052400008F440C283E99EEF841B950B280F391F99
:105250008E2FE8CF68E172E0C5010E94221CF501A3
:10526000B12C9AE0882309F4DDC1D1011C92E091B0
:10527000FF04F0910005C655DF4FF983E883CA5A51
:10528000D04084819581892B09F425C1808191E0EA
:1052900090932D0580934F0510922E051092500586
:1052A00020E041E050E0B101CF010E94AE0688232A
:1052B00009F411C1B12CA12C99249394C655DF4F48
:1052C000A881B981CA5AD04014968D919C9107E06B
:1052D00010E00A191B098017910708F48C01C655C4
:1052E000DF4FE881F981CA5AD04080800E9459027C
:1052F0006B017C0180912705811174C0F02EF0E2D2
:10530000F01710F480E2F82E9092270521E087E054
:1053100090E0801B910BA816B90608F420E02093BA
:1053200026052FEF20932505109224058FEF8F0D72
:10533000809323059092020580910205880C882AAB
:105340008092020580910105813009F097C010928A
:1053500001050E9459022B013C01809102058093B6
:10536000BB008091290590912A05A0912B05B09151
:105370002C05892B8A2B8B2BA1F00E94590220919E
:10538000290530912A0540912B0550912C0564196F
:10539000750986099709261737074807590708F43A
:1053A00042C08091BC0083FDD8CF35EC3093BC0067
:1053B0000E9459022B013C0180912705813009F49C
:1053C00061C0809124058F1510F4F0902405E3E06E
:1053D000F5E0A0EAB4E080E08F1551F191919D9342
:1053E0008F5FFACF8091290590912A05A0912B0516
:1053F000B0912C05892B8A2B8B2B09F47BCF0E9433
:1054000059024090290550902A0560902B05709014
:105410002C056C197D098E099F09461657066806EA
:10542000790608F067CF809128050E941405F12CB9
:105430001092FE04F092FD04F016110609F04BC024
:105440007101EA0CFB1C6701C7018C199D098017CB
:105450009107D0F5C655DF4FA881B981CA5AD0400F
:1054600011968D919C91DC01ED91FC910284F38564
:10547000E02D0995F70181937F01E6CF45EE40933A
:10548000BC0096CF8091290590912A05A0912B050B
:10549000B0912C05892B8A2B8B2B09F48DCF0E9480
:1054A00059022091290530912A0540912B055091F0
:1054B0002C056419750986099709261737074807C7
:1054C000590708F079CFAFCFA00EB11EF7E0AF16A5
:1054D000B10408F4F3CED1012C912F771196EC9101
:1054E000119712967C91129714966C9114971596B9
:1054F0008C91159716969C91422F50E034E055956B
:1055000047953A95E1F7342F330F330F431B440F80
:10551000420F1F924F932E2F30E044E03595279590
:105520004A95E1F7322F330F330F231B220F2E0F33
:105530001F922F93472F50E0E4E055954795EA9549
:10554000E1F7242F220F220F421B440F470F1F9217
:105550004F93262F30E0F4E035952795FA95E1F743
:10556000322F330F330F231B220F260F1F922F933F
:10557000482F50E0A4E055954795AA95E1F7242FD0
:10558000220F220F421B440F480F1F924F93292FC7
:1055900030E0B4E035952795BA95E1F7822F880F72
:1055A000880FB22FB81B8B2F880F890F90E0805384
:1055B000984F9F938F938EEC93E09F938F933F929E
:1055C0002F920E948330F10101900020E9F731977A
:1055D0008F0102191309B8016F5F7F4F90E080E0DF
:1055E0000E949A2F7C010FB6F894DEBF0FBECDBF8C
:1055F0000097A9F0DC011C92B1010E946E30A80155
:10560000B70181E595E00E94B2030E943A0FE114D0
:10561000F10409F43FCDC7010E943D2C3BCD10E0C1
:1056200000E0EDCF819120ED280F2A3038F4B99EAB
:10563000800D112420EDB22EB80EF4CFCB2CD12C3E
:10564000F12CE12C4AE0C701B6010E94F60E0E943F
:105650003A0FE0ECF4E0019111910115110509F404
:105660005BC0D80112968C911297B812F4CFED91CD
:10567000FC910190F081E02DC8010995009739F067
:10568000DC01ED91FC910190F081E02D09950E94E3
:105690003301D801ED91FC910280F381E02D6DEA98
:1056A00075E0C801099581E595E0F101918380835A
:1056B00013821282B10186EB95E00E9470160E945F
:1056C0003A0FE8CCD1018C93EFE7F1E081E08C3028
:1056D000D1F04491911103C0823009F44F5F50E042
:1056E00061E0680F31962417350748F4F101818392
:1056F0002F5FF1012283C1010E94E8191ECC241BF7
:10570000350B862FE4CFD10111968C93F1CF88EF22
:1057100093E00E943E0FBECC8CE094E00E94E90E24
:105720004AE0C701B6010E94F60EB4CC89E194E0CC
:105730000E94E90E8091BA0585FD07CC90E080E0DB
:1057400006CC0F931F93CF93DF938230910510F413
:1057500082E090E0E091BD07F091BE0730E020E0EC
:10576000B0E0A0E0309799F42115310509F44AC062
:10577000281B390B24303105D8F58A819B816115AE
:10578000710589F1FB0193838283FE0111C0408181
:1057900051810281138148175907E0F048175907D2
:1057A00099F4109761F012960C93129713961C932C
:1057B0003296CF01DF91CF911F910F910895009301
:1057C000BD071093BE07F4CF2115310551F04217E4
:1057D000530738F0A901DB019A01BD01DF01F8018F
:1057E000C1CFEF01F9CF9093BE078093BD07CDCF16
:1057F000FE01E20FF31F8193919322503109398307
:105800002883D7CF2091BB073091BC07232B41F4CD
:1058100020910E0130910F013093BC072093BB07FC
:1058200020910C0130910D012115310541F42DB766
:105830003EB74091100150911101241B350BE091AE
:10584000BB07F091BC07E217F307A0F42E1B3F0B38
:105850002817390778F0AC014E5F5F4F24173507E2
:1058600048F04E0F5F1F5093BC074093BB078193D6
:1058700091939FCFF0E0E0E09CCFCF93DF93009730
:10588000E9F0FC01329713821282A091BD07B0911A
:10589000BE07ED0130E020E01097A1F420813181B6
:1058A000820F931F2091BB073091BC07281739073F
:1058B00009F061C0F093BC07E093BB07DF91CF9183
:1058C0000895EA01CE17DF07E8F54A815B819E0162
:1058D00041155105B1F7E901FB83EA8349915991DB
:1058E000C40FD51FEC17FD0761F4808191810296EA
:1058F000840F951FE90199838883828193819B831B
:105900008A83F0E0E0E012968D919C9113970097C6
:10591000B9F52D913C911197CD010296820F931FFD
:105920002091BB073091BC072817390739F630970B
:1059300051F51092BE071092BD07B093BC07A0931B
:10594000BB07BCCFD383C28340815181840F951F95
:10595000C817D90761F44E5F5F4F88819981480F5E
:10596000591F518340838A819B81938382832115B0
:10597000310509F0B0CFF093BE07E093BD079ECF8D
:10598000FD01DC01C0CF13821282D7CF1F93FC012F
:1059900099278827BC01E89411911032E9F3193056
:1059A00010F01E30C8F31B3251F01D3249F46894D8
:1059B00006C00E94ED2C610F711D811D911D11917A
:1059C00010531A30B0F33EF4909580957095619520
:1059D0007F4F8F4F9F4F1F910895592F482F372F7B
:1059E000262F660F771F881F991F660F771F881F46
:1059F000991F620F731F841F951F660F771F881FE3
:105A0000991F08950E94442D08F481E00895E894B8
:105A100009C097FB3EF490958095709561957F4FF6
:105A20008F4F9F4F9923A9F0F92F96E9BB279395A4
:105A3000F695879577956795B795F111F8CFFAF4B4
:105A4000BB0F11F460FF1BC06F5F7F4F8F4F9F4FE5
:105A500016C0882311F096E911C0772321F09EE843
:105A6000872F762F05C0662371F096E8862F70E0A9
:105A700060E02AF09A95660F771F881FDAF7880F83
:105A80009695879597F90895990F0008550FAA0BD9
:105A9000E0E8FEEF16161706E807F907C0F0121641
:105AA0001306E407F50798F0621B730B840B950B44
:105AB00039F40A2661F0232B242B252B21F4089599
:105AC0000A2609F4A140A6958FEF811D811D089536
:105AD0000E947B2D0C94EC2D0E94DE2D38F00E944C
