:100000000C94F3000C941B010C941B010C941B0129
:100010000C941B010C941B010C941B010C941B01F0
:100020000C941B010C941B010C949D170C940C1840
:100030000C941B010C941B010C941B010C941B01D0
:100040000C941B010C941B010C941B010C941B01C0
:100050000C941B010C941B010C941B010C94531762
:100060000C941B010C941B010C941B010C941B01A0
:100070000C941B010C941B010C941B010C941B0190
:100080000C941B010C941B010C941B010C941B0180
:100090000C943E1A0C941B010C941B010C941B0134
:1000A0000C941B010C941B010C941B01CDCCCC3D7A
:1000B0000AD7233C17B7D13877CC2B329595E62455
:1000C0001FB14F0A000020410000C84200401C46FA
:1000D00020BCBE4CCA1B0E5AAEC59D740000000069
:1000E0002300260029002C002F00080B000202022A
:1000F00000000904000001020200000524001001B4
:100100000524010101042402060524060001070557
:10011000810310004009040100020A0000000705E5
:1001200002024000000705830240000004030904A6
:1001300012010002EF02014041233680000101025A
:10014000030141726475696E6F204C4C430041722B
:100150006475696E6F204C656F6E6172646F000725
:100160000605040100080A0B0C0D0900000000241C
:100170000027002A002D0030000000000025002884
:10018000002B002E003100040404040403040502C3
:100190000202020403020202020606060606060422
:1001A00004020202040404080201104080401020EE
:1001B000408040800802040180402010020110802D
:1001C00010204040200000000200090F000003043E
:1001D00001000C0000000000000000000000000012
:1001E00000000000991C11241FBECFEFDAE0DEBF33
:1001F000CDBF13E0A0E0B1E0EAE2FAE402C005906E
:100200000D92A43FB107D9F728E0A4EFB3E001C0F5
:100210001D92AC32B207E1F710E0C3EFD0E004C0AA
:100220002197FE010E94F124C23FD107C9F70E9425
:100230001A1D0C9413250C940000E8EDF4E0808165
:1002400091819383828386819781958384831086AD
:100250008585807885870895FC01809187048823AF
:1002600011F13FB7F89482E08093E9002091F20009
:10027000822F90E01816190614F481E090E088238C
:1002800039F0289844E6409386044091F100408379
:10029000222339F02091F200211103C02BE6209394
:1002A000E8003FBF08958FEF9FEF08952FB7F894B0
:1002B00083E08093E9009091E800892F807295FF98
:1002C00004C09091F20080E4891B2FBF08958091B3
:1002D0007E0481110DC082E080937A0484E08093D3
:1002E0007B0410927D0410927C0481E080937E0454
:1002F0008AE794E00895282F30E0F901EB53FE4F90
:100300009491F901EA55FE4F849129573E4FF90126
:100310002491222309F430C09923E9F091509F30B1
:10032000D0F4E92FF0E0E956FE4F0C94F124C5011A
:10033000C901A601BD01C101AB01AB01AB01CC01FB
:10034000D201D601DA01E001AB01E4019091800015
:100350009F7790938000E22FF0E0EE0FFF1FE758A9
:10036000FE4FA591B4919FB7F894EC91611132C002
:1003700080958E238C939FBF0895909180009F7DE0
:10038000E8CF90918000977FE4CF94B59F7794BD9C
:10039000E2CF94B59F7DFBCF909190009F77909393
:1003A0009000D9CF909190009F7DF9CF90919000CF
:1003B000977FF5CF9091C0009F779093C000CBCFEF
:1003C0009091C0009F7DF9CF9091C200977F90934C
:1003D000C200C1CF8E2BCECFCF93DF9390E0FC0134
:1003E000EA55FE4F249189579E4FFC018491882342
:1003F000D1F090E0880F991FFC01E559FE4FA591BF
:10040000B491FC01E758FE4FC591D49161110EC023
:100410009FB7F8948C91E22FE0958E238C932881DE
:10042000E223E8839FBFDF91CF9108958FB7F894BF
:10043000EC91E22BEC938FBFF6CF823108F0825122
:10044000E82FF0E0E15AFE4FE49190917B008E2F6F
:10045000880F880F80729F7D892B80937B00E770C7
:10046000E064E0937C0080917A00806480937A005D
:1004700080917A0086FDFCCF809178009091790080
:1004800008953FB7F8948091760490917704A091F5
:100490007804B091790426B5A89B05C02F3F19F0C8
:1004A0000196A11DB11D3FBFBA2FA92F982F8827F4
:1004B000BC01CD01620F711D811D911D42E0660FCF
:1004C000771F881F991F4A95D1F708958F929F92A1
:1004D000AF92BF92CF92DF92EF92FF926B017C01BD
:1004E0000E9441024B015C01C114D104E104F104FA
:1004F000B9F00E944102681979098A099B09683E8E
:1005000073408105910580F321E0C21AD108E1080A
:10051000F10888EE880E83E0981EA11CB11CE4CF80
:10052000FF90EF90DF90CF90BF90AF909F908F9013
:1005300008954091670450916804209165043091BA
:10054000660442175307B4F49091E8009570E1F304
:100550009091E80092FD19C08093F10080916704AA
:100560009091680401968F739927892B19F48EEF67
:100570008093E800809167049091680401969093BD
:1005800068048093670481E0089580E00895DF9215
:10059000EF92FF920F931F93CF93DF93D82E8A0190
:1005A000EB017B01E40EF51ECE15DF0559F0D7FEF9
:1005B00012C0FE0184910E94990221968111F4CF0C
:1005C0000FEF1FEFC801DF91CF911F910F91FF90A7
:1005D000EF90DF9008958881EECF0F931F93CF9314
:1005E000DF931F92CDB7DEB782E0898342E450E00B
:1005F0006AEE70E080E80E94C7020E946701DC0199
:1006000012960D911C910115110589F0D801ED91FB
:10061000FC910280F381E02DBE016F5F7F4FC80126
:10062000099597FD04C0F80100851185ECCF8981FB
:100630000F90DF91CF911F910F910895615030F08D
:100640002091F100FC0120830196F8CF289884E6E0
:10065000809386040895CF93DF93EC012FB7F8942D
:100660008091720490917304A0917404B091750408
:100670002FBF88879987AA87BB87E881F981028481
:10068000F385E02DCE01099597FF1EC02FB7F89492
:100690008091720490917304A0917404B0917504D8
:1006A0002FBF488559856A857B85841B950BA60BD2
:1006B000B70B4C815D816E817F8184179507A607FA
:1006C000B707D8F28FEF9FEFDF91CF9108958F9208
:1006D0009F92AF92BF92CF92DF92EF92FF920F93D1
:1006E0001F93CF93DF936C017B018A0180910B01F3
:1006F000882309F45CC080918704882309F457C0DB
:1007000080916B0480FF05C08091E000826080933F
:10071000E000E801B12C8AEFA82E93E0892E2AE3AD
:10072000922E209711F4BB20D9F10E94560181111D
:100730000AC0AA94AA20D9F161E070E080E090E0BC
:100740000E946602EECF8C171D0611F00CF08C2F64
:100750009FB7F8948092E9002091E80025FD02C03F
:100760009FBFDFCF282F30E0C21BD30BF701815092
:1007700020F041914093F100FACFE20EF31EBB202E
:1007800021F09092E800B12CEBCF8091E80085FD3C
:10079000E7CF9092E800BB24B394209709F3F3CFFE
:1007A0005D9884E680936A04101611063CF081E09F
:1007B00090E0F6019383828310E000E0C801DF91AE
:1007C000CF911F910F91FF90EF90DF90CF90BF904E
:1007D000AF909F908F900895CF93DF931F92CDB7E6
:1007E000DEB76983DC01ED91FC910280F381E02D9D
:1007F00041E050E0BE016F5F7F4F09950F90DF91A0
:10080000CF91089583E08093E9008091F2008823DE
:1008100019F08AE38093E80008950E94560190E061
:100820000895CF93DF931F92CDB7DEB7FC01848587
:10083000958597FD08C02FEF3FEF358724870F90F0
:10084000DF91CF910895CE0101960E942C0101976E
:1008500019F4898190E0F3CF8FEF9FEFF0CF0F93E2
:100860001F93CF93DF931F92CDB7DEB78C01FC01AE
:100870008485958597FF0BC0CE0101960E942C01BF
:10088000019771F4898190E0F80195878487F801D8
:10089000848595850F90DF91CF911F910F910895D9
:1008A0008FEF9FEFF1CFFC018485958597FD0BC0FD
:1008B0009FB7F89482E08093E9008091F2009FBF97
:1008C00090E0019608959FB7F89482E08093E90044
:1008D0008091F2009FBF90E0089520911B04260FA5
:1008E0003327331F21323105ECF420913F04FC0102
:1008F00090E080E0243069F082E00895A0911B042C
:100900002191AC0145505C4FA40FB52FB11D2C9324
:100910000196861798F380911B04680F60931B045F
:1009200080E0089581E0089508958FEF9FEF089586
:100930008FEF9FEF08958091F40390E0919581955A
:1009400091090895CF93DF93CB01EA01642F0E94B0
:100950006D04CE01DF91CF910895CF93DF931F9265
:10096000CDB7DEB7698361E0CE0101960E946D04C8
:1009700081E090E00F90DF91CF91089590E080E0CA
:1009800008950596089505960895CF93FC019481E6
:100990009F779830E1F040F4992311F19630A9F057
:1009A000C1E08C2FCF9108959A3089F09C30C1F727
:1009B000C1E020E030E0A9016081718182819381F2
:1009C0000E94B6228111EDCF0BC0C081EACFC1E0F9
:1009D00080819181A281B381892B8A2B8B2B09F78E
:1009E000C0E0DFCFAF92BF92CF92DF92EF92FF9243
:1009F0000F931F93CF93DF9300D000D01F92CDB7FA
:100A0000DEB75C0129833A834B835C836D83298144
:100A10003A812115310599F4F0E0E0E0CF010F9023
:100A20000F900F900F900F90DF91CF911F910F912A
:100A3000FF90EF90DF90CF90BF90AF9008954B81E3
:100A40005C81DC01ED91FC91119712966D917C9186
:100A50007A01E20EF31ECF01840F951F86179707C8
:100A6000B8F4DC018C9181110DC0C9018F01E81629
:100A7000F90661F0DC01CD90CD01D801DD908D014A
:100A8000CD14A9F381918111FDCFE5CF309731F6D7
:100A9000CA010196860F971FD5011496ED91FC911E
:100AA0001597E817F90720F481E018968C93B4CFD6
:100AB000F501938382836115710509F4ADCFF901C6
:100AC000DB01240F351F2E173F0719F081918D93FD
:100AD000FACF460F571FDA011C92FB019FCFCF932D
:100AE000DF9300D000D000D0CDB7DEB7FC01848109
:100AF0008F77843039F0853091F01A8219821C8208
:100B00001B8208C082819381208131813A832983AD
:100B10009C838B8381E090E09E838D830AC08281D9
:100B20009381208131813A8329839C838B831E8228
:100B30001D8229813A814B815C816D817E8180E0BB
:100B400090E026960FB6F894DEBF0FBECDBFDF91C2
:100B5000CF91089580E0089505960895CF93DF938F
:100B6000EC0188819981DC01ED91FC910190F0818B
:100B7000E02D09952A813B81820F931F9B838A83F5
:100B8000DF91CF910895982F80336CF08A3324F051
:100B90008F3524F08B3724F481E0089581341CF0E4
:100BA00081E09B350CF080E00895CF93DF93EC015A
:100BB00088819981DC01ED91FC910280F381E02D27
:100BC00009952A813B81820F931F9B838A83DF9142
:100BD000CF9108958F929F92AF92BF92CF92DF9262
:100BE000EF92FF920F931F93CF93DF93CDB7DEB7B2
:100BF00066970FB6F894DEBF0FBECDBF6C018E01B5
:100C0000095E1F4F78018AE0882E912CA12CB12C0F
:100C1000CB01BA01A50194010E940424942F852FD1
:100C2000605DF80162938F01A901692F782F41154A
:100C300051056105710561F7A7014E1B5F0BBF01EF
:100C4000C6010E94D50566960FB6F894DEBF0FBEAA
:100C5000CDBFDF91CF911F910F91FF90EF90DF906B
:100C6000CF90BF90AF909F908F900895CF93DF93D8
:100C7000EC018C8581110CC089859A850E942B031B
:100C800097FD0AC0992797FD80E08B8781E08C87CC
:100C90008B85DF91CF9108958FEF9FEFF4CF1F9356
:100CA000CF93DF93EC01162F0E943606811306C006
:100CB0001C8681E0DF91CF911F91089580E0FACFEB
:100CC0000F931F93CF93DF938C01EB0189918823BE
:100CD00069F0C8010E943606882379F0FE01319739
:100CE000908198130DC0F8011486F0CF90E080E059
:100CF000DF91CF911F910F91089582E090E0F8CF9E
:100D000083E090E0F5CFCF93DF93EC01CE010E941A
:100D100036068B304CF489305CF4882359F081E03E
:100D2000888790E080E00BC08D3011F08032B9F7F9
:100D30001C86ECCF8885811105C081E090E0DF91B1
:100D4000CF91089582E090E0FACF0F931F93CF9355
:100D5000DF93DB0112962D913C91EC01E881F98142
:100D60008A819B81DF01A20FB31FA817B907A8F4DE
:100D70004C9141110EC0EB01A881B981EF018D01A9
:100D8000020F131FA017B10751F05D91499154173D
:100D9000C9F341914111FDCFE5CFF0E0E0E0CF0193
:100DA000DF91CF911F910F91089590E080E0089519
:100DB000FC0124813581A9014F5F5F4F86819781B6
:100DC0004817590748F48281938155834483FC0175
:100DD000E20FF31F608308950190F081E02D81E020
:100DE000808708959F92AF92BF92CF92DF92EF9249
:100DF000FF920F931F93CF93DF9300D000D01F92E9
:100E0000CDB7DEB78C010E943606D82ED8011C96CD
:100E10001C92F12CE12C60EFC62EC8010E94360610
:100E2000F8011486D81609F4B4C0811113C082E009
:100E300090E00F900F900F900F900F90DF91CF9157
:100E40001F910F91FF90EF90DF90CF90BF90AF90E8
:100E50009F9008958C3509F09AC0C8010E9436060B
:100E6000882329F3E5EAF1E0853709F084C0D80149
:100E70001C961C9254E0952EB12CA12CC8010E9406
:100E800036068823A1F2813434F48053803130F067
:100E900083E090E0CECF8F7D8753F8CF44E0AA0C5B
:100EA000BB1C4A95E1F7A82AF80114869A94911080
:100EB000E5CFC501985D8115944020F47501F3E0FC
:100EC000FF22ABCFC5019C5D81159440A8F483E05F
:100ED000B822B701762F6627770F770F6A297B290B
:100EE00090E080E00196603871058105910540F43D
:100EF000C8010E94D80691CFB50190E080E0F3CF01
:100F00001982262F2F7320682A8326E096958795CD
:100F1000779567952A95D1F76032710580F4606CFA
:100F20006B835E01A4E0AA0EB11CD5016E915D0138
:100F3000662309F472CFC8010E94D806F6CF262F87
:100F40002F7320682B8386E0769567958A95E1F765
:100F50006031710538F4606E6C835E01B5E0AB0EF4
:100F6000B11CE3CF60686C83CD825E01E6E0AE0E1B
:100F7000B11CDBCF32969081992309F489CF891374
:100F8000F9CF8181882309F483CFF8011486682F73
:100F9000AFCF0190F081E02D8085882319F084E0A7
:100FA00090E047CF90E080E044CF4F925F926F9205
:100FB0007F928F929F92AF92BF92CF92DF92EF92E9
:100FC000FF920F931F93CF93DF93EB01DC012C91E2
:100FD0002B32D9F12D32D1F50196FF24F394FC0187
:100FE000208130ED320F3A3018F02E3209F042C134
:100FF0008C0160E070E0CB01F801219130ED832E8F
:10100000820E39E0381520F16A3949E974078407FE
:1010100049E1940738F5AAE0B0E09B01AC010E94D9
:10102000F923912CB12CA12C24013501409450942A
:1010300060947094461657066806790698F0680D15
:10104000791D8A1D9B1D8F01D7CF0196F12CC7CF2B
:10105000211108C0FF20E9F161307105810550E8D8
:101060009507A0F0E12CBAE08B2E912CA12CB12C8D
:101070006115710530E883079105B0F1A501940170
:101080000E940424CA01B901E394F2CF2C81207894
:101090002A602C839B01AC0188279927DC01821BE5
:1010A000930BA40BB50B88839983AA83BB838F2DE5
:1010B000DF91CF911F910F91FF90EF90DF90CF9034
:1010C000BF90AF909F908F907F906F905F904F9068
:1010D00008952C81207828602C83688379838A8303
:1010E0009B83FF24F394E3CFF801D8012D918D0168
:1010F00030ED320F3A3010F4E394F6CF2E3201F592
:101100008F010F5F1F4FF8010F5F1F4F2081A0ED70
:10111000DA2ED20EB9E0BD1598F06C3CECEC7E07EF
:10112000ECE08E07910578F7AAE0B0E09B01AC01F6
:101130000E94F9236D0D711D811D911DEA94E3CF6D
:1011400020812F7D10E000E0253409F05BC0218173
:101150002D32D1F53296CC24C394DF0110E000E0AB
:101160002E2D0E2C000C330B5AE0B52EFD01DD9018
:1011700040ED4D0D4A3008F040C0B09EA001B19E38
:10118000500D11240D2DDD0C110B00531109040F0E
:10119000151FA801420F531F473251053CF38C81A4
:1011A000CC20C9F040E050E060E070E8F11003C0EE
:1011B00040E050E0BA0180788C608C83488359838A
:1011C0006A837B83FC2C73CF2B3219F03196C12CB0
:1011D000C4CF3296FCCF40E050E060E87FEFF110E2
:1011E00004C040E050E060E87FE780788C608C834A
:1011F000488359836A837B8374CFCC2019F011957F
:10120000019511092081211135C00E0D111DE7FC3A
:101210001A950E94BB2234ECC32E30E0D32E101658
:1012200011063CF01195019511094CEAC42E40E0DD
:10123000D42EE12C0115110591F000FF0CC024E023
:10124000E29EF0011124EC0DFD1D25913591459193
:1012500054910E941C2315950795E394EBCFF11050
:1012600090582C8120782C602C83688379838A8322
:101270009B8337CFF12C1BCFCF92DF92EF92FF925F
:10128000CF93DF9300D000D01F92CDB7DEB7FC0123
:1012900084818F778630B1F028F4843008F590E0AF
:1012A00080E012C08A3021F08C3039F18830B9F7F3
:1012B00080819181A281B381009721E0A207B105CD
:1012C00018F0EDCF808190E00F900F900F900F906D
:1012D0000F90DF91CF91FF90EF90DF90CF90089526
:1012E000808191811D82BE016F5F7F4F0E94D50773
:1012F000CE0101960E943C09E7CFC080D180E280F8
:10130000F38020E030E0A901C701B6010E94D82493
:1013100087FDC5CF20E03FEF4FE757E4C701B60197
:101320000E94B62218160CF4BACFC701B6010E946B
:10133000A924CB01C9CFCF92DF92EF92FF92CF9336
:10134000DF9300D000D01F92CDB7DEB7FC018481BF
:101350008F778630A9F020F4843080F580E011C0CA
:101360008A30D9F08C30B9F18830C1F78081918111
:10137000A281B38180389105A105B10578F701C03C
:1013800080810F900F900F900F900F90DF91CF9171
:10139000FF90EF90DF90CF90089580819181A2819E
:1013A000B381AC01BD0140585F4F6F4F7F4F4F3F3E
:1013B00051056105710509F088F6E3CF80819181BF
:1013C0001D82BE016F5F7F4F0E94D507CE0101963F
:1013D0000E949B09D6CFC080D180E280F38020E0BC
:1013E00030E040E053ECC701B6010E94D82487FDED
:1013F000B5CF20E030E04EEF52E4C701B6010E94C5
:10140000B62218160CF4AACFC701B6010E94A22476
:10141000862FB7CFCF92DF92EF92FF92CF93DF93D9
:1014200000D000D01F92CDB7DEB7FC01892B39F078
:1014300084818F77863091F030F4843040F560E01D
:1014400070E0CB010FC08A30C9F08C3069F1883070
:10145000B1F7608171818281938104C0608170E005
:1014600090E080E00F900F900F900F900F90DF9121
:10147000CF91FF90EF90DF90CF9008958081918180
:10148000A281B381B7FDDBCFBC01CD01EBCF808161
:1014900091811D82BE016F5F7F4F0E94D507CE01F3
:1014A00001960E940A0ADECFC080D180E280F380DC
:1014B00020E030E0A901C701B6010E94D82487FDD1
:1014C000BECF2FEF3FEF4FE75FE4C701B6010E94A9
:1014D000B62218160CF4B3CFC701B6010E94A92496
:1014E000C1CFCF93DF93DC01EB01EC81FD818A81D9
:1014F0009B810896E817F90740F481E08887F0E0BF
:10150000E0E0CF01DF91CF9108953897FD83EC8320
:101510003097B9F31296CD91DC911397209791F003
:10152000CF018C1B9D0B23E0959587952A95E1F7BC
:101530008D831396FC93EE93129715821482178273
:101540001682DFCF1196FC93EE93F3CFCF92DF920A
:10155000EF92FF920F931F93CF93DF9300D000D0B1
:10156000CDB7DEB76C018B01DC011296ED90FC90DB
:10157000FA82E9827C836B83BE016F5F7F4F0E949A
:10158000A506009761F4F701E00FF11FCF01019666
:10159000D60113969C938E9312971082C7010F90D9
:1015A0000F900F900F90DF91CF911F910F91FF90AF
:1015B000EF90DF90CF900895FC012581222339F030
:1015C000F8E02F0290011124820F931F089590E0FC
:1015D00080E00895EF92FF920F931F93CF93DF93D4
:1015E0008C017B01FC01C081D181209731F0CE01BB
:1015F0000E94DC0AE816F906E9F4C7010E94DC0A39
:101600002097D1F020E0009741F09C012C1B3D0B6E
:1016100043E0359527954A95E1F72D83892B19F4F9
:10162000F801D383C283DF91CF911F910F91FF9077
:10163000EF900895EC01D9CFF80191838083EECF2C
:10164000FC0101900020E9F73197AF01481B590BCD
:10165000BC0188E894E00C9467038F929F92AF924C
:10166000BF920F931F93CF93DF93CDB7DEB7A197B0
:101670000FB6F894DEBF0FBECDBF19A2423008F4FA
:101680004AE08E010F5D1F4F842E912CB12CA12CAE
:10169000A50194010E940424E62FB901CA01EA3091
:1016A000F4F4E05DD801EE938D01232B242B252B40
:1016B00079F790E080E0109719F0CD010E94200B9F
:1016C000A1960FB6F894DEBF0FBECDBFDF91CF91CC
:1016D0001F910F91BF90AF909F908F900895E95CFC
:1016E000E1CF86EB91E00C94200B009711F00C9465
:1016F000200B90E080E00895CF93DF930E94200BB1
:10170000EC010E94710B8C0F9D1FDF91CF9108950A
:10171000FF920F931F93CF93DF93EC01F62E8A0174
:1017200086E191E09983888368EC70E080E090E046
:101730000E946602C8010E947C0BFA821C830B8304
:10174000DF91CF911F910F91FF9008951F93CF9339
:10175000DF93EC01142FA9010E94880B84E291E031
:101760009983888384E391E09E838D831F8360E067
:10177000812FDF91CF911F910C94EC015F926F92BA
:101780007F928F929F92AF92BF92CF92DF92EF9211
:10179000FF920F931F93CF93DF9300D000D01F923F
:1017A000CDB7DEB75C014A01FC01118210821382C1
:1017B0001282FB01E080F180E114F10409F449C0D8
:1017C000F701C680D780C114D104D9F15480F60145
:1017D00001900020E9F731973F016C187D08B401B2
:1017E000C5010E94710A8C01009789F157FC12C053
:1017F000FC0184818F778483D782C682C801A401CB
:10180000B7010E94440C882311F1C7010E94DC0A31
:101810007C01D2CF2C2DDA82C982462D7C826B824C
:101820001D823A815C8160E0C4010E94F2049C0147
:10183000892B29F1F801948190689483378326835A
:10184000DDCFB401C5010E94710A0097C1F680E0A6
:1018500001C081E00F900F900F900F900F90DF91DB
:10186000CF911F910F91FF90EF90DF90CF90BF909D
:10187000AF909F908F907F906F905F900895B80188
:10188000C5010E94EA0AE3CFAF92BF92CF92DF92E6
:10189000EF92FF920F931F93CF93DF93CDB7DEB7F5
:1018A0002B970FB6F894DEBF0FBECDBF8C017A0127
:1018B000FB0124812F772530C9F198F4233009F4F6
:1018C0007AC0F80184818078282B2483FB018081F1
:1018D0009181A281B381F80180839183A283B38334
:1018E00039C0FC0194812032F1F09078906420346A
:1018F00041F794831182108213821282A701C801DA
:101900000E94BE0B2B960FB6F894DEBF0FBECDBF64
:10191000DF91CF911F910F91FF90EF90DF90CF90CB
:10192000BF90AF90089590789062E3CFCB010E9472
:101930006F0529833A834B835C836D837E83D42E2A
:10194000C52E49815A814115510531F4F801848130
:101950008078848381E0D6CF8D819E81019751F478
:10196000F801848180788460848351834083D282AB
:10197000C382F0CF242F58874F834D2DD986CA8636
:1019800038855C2D60E0C7010E94F2049C01F801DB
:10199000948190782115310561F0956094833183AD
:1019A0002083D282C38281E0232B09F0ABCF80E079
:1019B000A9CF9483F8CFA280B380C080D180DA828F
:1019C000C982BC82AB82C114D104B9F0BE016F5F81
:1019D0007F4FCA010E94A506009739F5F701828161
:1019E000938195012F5F3F4F280F391F4481558107
:1019F0004217530738F481E08087F80184818078AA
:101A00008483D5CF338322830097B9F3F601DC01B9
:101A1000A6014A0D5B1DE417F50719F021912D93DE
:101A2000FACFFC01EA0DFB1D1082F8012481207819
:101A30002360248391838083B382A2828BCFCF9350
:101A4000DF936115710579F1EB01DC018D919C91BA
:101A5000009759F1DC011696ED91FC91DE010D9095
:101A60000020E9F71197AD014C1B5D0B30E020E041
:101A7000309749F0DF010D900020E9F79D012150DA
:101A800031092E1B3F0B2417350751F4DE012C0FB3
:101A90003D1F2A173B0749F05D9141915417C9F347
:101AA0000E94DC0AD5CF90E080E0DF91CF910895CD
:101AB000EF92FF920F931F93CF93DF93EC01892B4B
:101AC00049F490E080E0DF91CF911F910F91FF905A
:101AD000EF9008958C81982F9F7739F480788062F9
:101AE0008C83198218821B821A828C8185FFE9CF30
:101AF0006115710531F37A018B01CE010E941F0D32
:101B0000009709F7B701CE010E94710A0097D9F238
:101B1000FC0124812F77248317830683D4CF9F92DF
:101B2000AF92BF92CF92DF92EF92FF920F931F93EB
:101B3000CF93DF93EC017B01D42E0E9483068C01AE
:101B4000892B09F052C0CE010E943606863609F470
:101B500055C194F5873229F08B35D1F1823209F0E5
:101B600056C1E881F981828193819B838A83848134
:101B7000958122813381821B930B9F838E831D82EB
:101B80001C82892B11F481E08087CE010E94F2062D
:101B90008C01892B51F5AC80BD80B501888199817C
:101BA0000E94A60AF701248120782560248391836E
:101BB0008083B382A28219C0843709F408C18B37AD
:101BC00009F453C08E3609F022C16CE572E008C1F9
:101BD000F70184818078806484831182108213826B
:101BE0001282D1100FC005E010E0C801DF91CF9143
:101BF0001F910F91FF90EF90DF90CF90BF90AF902B
:101C00009F9008951C86CE010E948306009709F0DC
:101C10002DC16DE5CE010E944F068111E6CFDA9409
:101C20006D857E85C7010E94710A009709F46EC018
:101C30004D2DBC01CE010E948F0D009709F016C1F9
:101C4000CE010E948306009709F010C16DE5CE0118
:101C50000E944F068111C9CF6CE2CE010E944F064F
:101C60008111DECF03E010E0C0CFF70184818078DE
:101C7000806284831182108213821282DD2009F433
:101C8000B2CF1C86CE010E948306009709F0EEC0F9
:101C90006DE7CE010E944F068111A7CFBB24B394FC
:101CA000DA94E881F981828193819B838A8384819C
:101CB000958122813381821B930B9F838E831D82AA
:101CC0001C82892B09F4B086CE010E943606873229
:101CD00001F18232F1F0CE010E943606182F0E94E7
:101CE000C305882309F4BECF1C86612FCE010E9454
:101CF000D806CE010E943606182F0E94C305811116
:101D0000F3CFE881F9818085882351F004E010E069
:101D10006CCFCE010E94F2068C01892B09F065CFB1
:101D2000CE010E9483068C01892B09F05ECF6AE305
:101D3000CE010E944F06882309F494CFEA81FB81EB
:101D40008C819D81E80FF91F10820C811D816A81B1
:101D50007B81C7010E941F0DBC01892BA1F4B80132
:101D6000888199810E94A60A8C016D857E85C701B4
:101D70000E94710AFC01892B49F284818068848366
:101D800017830683BF014D2DCE010E948F0D8C015C
:101D9000892B09F02ACFCE010E9483068C01892B62
:101DA00009F023CF6DE7CE010E944F0681111DCFB0
:101DB0006CE2CE010E944F06882309F453CFCE0176
:101DC0000E9483068C01892B09F46BCF0ECFF7019B
:101DD000848180788660848381E0808369EB71E010
:101DE000CE01DF91CF911F910F91FF90EF90DF9087
:101DF000CF90BF90AF909F900C946006F7018481C4
:101E000080788660848310826EEB71E0E9CFCE012A
:101E10000E9436065E01FFE0AF0EB11CD12C9A2C59
:101E2000CB2C803374F08A3374F49FE3D91699F085
:101E30001C86D394F50181935F01CE010E94360682
:101E4000F0CF8B3291F393ED980F923070F3982F7F
:101E50009F7D953451F3CD0DD11D1F86B701892D7E
:101E60009C2D0E94D5078111C0CEFCCE8C01BDCE29
:101E7000009729F0FC01248125FD0C941F0D90E0B2
:101E800080E008958F929F92AF92BF92CF92DF929F
:101E9000EF92FF92CF93DF93EC01FB0162EE73E0D0
:101EA000808191810E94380FFC018A81309711F462
:101EB00080E02EC094819F77983009F447C038F4B1
:101EC0009630B1F7408150E070E060E043C09A3056
:101ED00051F19C3069F7C080D180E280F380682F97
:101EE00070E090E080E00E94BB224B015C01AC01FD
:101EF0009B01C701B6010E94B62287FDD9CFA5017B
:101F00009401C701B6010E94D82418168CF281E012
:101F1000DF91CF91FF90EF90DF90CF90BF90AF9087
:101F20009F908F900895408151816281738190E0EC
:101F3000B0E0A0E0481759076A077B070CF4B8CF58
:101F400084179507A607B70714F7B2CF40815181D0
:101F50006281738190E0B0E0A0E0481759076A07FA
:101F60007B0708F4A5CF84179507A607B70778F66F
:101F70009FCFEF92FF920F931F93CF93DF937C013C
:101F8000EB010E94420F182F8823A1F164EC71E04D
:101F9000888199810E94380F009789F00E94C504BA
:101FA000882369F064EC71E0888199810E94380F80
:101FB000009741F10E943C09F701928781876EECFE
:101FC00071E0888199810E94380F009799F00E94F2
:101FD000C504082F882371F06EEC71E08881998127
:101FE0000E94380F009789F00E943C09F7019487FE
:101FF0008387102F812FDF91CF911F910F91FF9039
:10200000EF90089590E080E0D7CF90E080E0EECFB1
:10201000EF92FF920F931F93CF93DF937C01EB011D
:102020009B01275F3F4F9D85892F8F7739F49078EB
:1020300090649D871A8619861C861B868D8510E004
:1020400000E086FF17C0BE01C9010E94710A8C0121
:10205000009781F0DC0114968C911497807880624F
:1020600014968C93149711961C921E9213961C92A0
:102070001E921297AE0162EE73E0C8010E94580DE5
:10208000FC01892B71F0D70112968C919481907884
:102090009860948390E0B0E0A0E080839183A28375
:1020A000B383F701E380F480AE0169ED71E0C8010C
:1020B0000E94580DFC01892B31F084818078E11455
:1020C000F10451F48483B801CE01DF91CF911F91C7
:1020D0000F91FF90EF900895D7010D900020E9F740
:1020E0001197AE19BF0984608483F182E082B383C3
:1020F000A283E9CFCF92DF92EF92FF92CF93DF934B
:10210000EC010E9408106B017C018EED91E00E94B1
:10211000750B8B819C810E94750BA70164EE71E0A9
:10212000C6010E94580DFC01892B31F08E819481EB
:102130009078966094838083C701B601DF91CF9138
:10214000FF90EF90DF90CF9008958F929F92AF9283
:10215000BF92CF92DF92EF92FF92CF93DF93EC0189
:102160000E9408106B017C01E881F9810284F385EB
:10217000E02DCE0109954B015C01A70164EE71E0F1
:10218000C6010E94580DFC01892B41F09481907882
:102190009C60948380829182A282B382C701B6013F
:1021A000DF91CF91FF90EF90DF90CF90BF90AF90F5
:1021B0009F908F900895CF92DF92EF92FF92CF93EE
:1021C000DF93EC010E9408106B017C01AC0164EC10
:1021D00071E0C6010E94580DFC01892B69F0298528
:1021E0003A859481907898609483C901B0E0A0E02A
:1021F00080839183A283B383A7016EEC71E0C60153
:102200000E94580DFC01892B69F02B853C85948137
:10221000907898609483C901B0E0A0E080839183B6
:10222000A283B383C701B601DF91CF91FF90EF90F6
:10223000DF90CF9008958F929F92AF92BF92CF92EE
:10224000DF92EF92FF920F931F93CF93DF93EC01F6
:102250008B010E9408106B017C01AC016AEE71E0F9
:10226000C6010E94580DFC01892B61F04C855D85EB
:102270006E857F85948190789860948340835183A4
:1022800062837383A70165EF71E0C6010E94580D58
:10229000FC01892B61F0488959896A897B8994817D
:1022A0009078986094834083518362837383A701FD
:1022B00061E072E0C6010E94580DFC01892B31F0EB
:1022C0008C8D94819078966094838083A7016FE0D1
:1022D00072E0C6010E94580DFC01892B61F04C8907
:1022E0005D896E897F89948190789860948340831A
:1022F000518362837383A7016BE172E0C6010E9480
:10230000580DFC01892B61F0488D598D6A8D7B8DAC
:10231000948190789860948340835183628373831F
:10232000A70166E272E0C6010E94580DFC01892BEC
:1023300061F08B85948190789860948390E0B0E010
:10234000A0E080839183A283B3838D8D9E8D0097BF
:1023500009F448C0DC01ED91FC910280F381E02D8D
:10236000B80109954B01A70163E372E0C6010E9421
:10237000580D009739F08114910479F5FC012481FE
:10238000207824838F8D98A10097B1F1DC01ED9125
:10239000FC910280F381E02DB80109954B01A70162
:1023A00067E472E0C6010E94580D009739F081146D
:1023B0009104E9F4FC01248120782483C701B6014B
:1023C000DF91CF911F910F91FF90EF90DF90CF9011
:1023D000BF90AF909F908F900895A701B4010E9485
:1023E000440CD0CF89E392E00E947C0BCBCFA701B5
:1023F000B4010E94440CE2CF80E592E00E947C0B85
:10240000DDCFCF92DF92EF92FF92CF93DF93EC017B
:102410000E9408106B017C01AC0164EE71E0C60102
:102420000E94580DFC01892B61F08E819481907877
:102430009860948390E0B0E0A0E080839183A283D1
:10244000B383C701B601DF91CF91FF90EF90DF908A
:10245000CF900895CF92DF92EF92FF92CF93DF93C8
:10246000EC010E9408106B017C01E881F981028473
:10247000F385E02DCE010995A70164EE71E0C60158
:102480000E94580DFC01892B71F0288539859481B3
:1024900090789A609483C901330FAA0BBB0B808399
:1024A0009183A283B383C701B601DF91CF91FF90DF
:1024B000EF90DF90CF900895FB0101900020E9F7A5
:1024C0003197AF01461B570B0C94D5051F93CF9343
:1024D000DF93E5EAF1E01281112379F03296218150
:1024E0006213F9CFEC016CE50E94AE05612FCE01BD
:1024F000DF91CF911F910C94AE056111F9CF61E688
:1025000072E0DF91CF911F910C945C122F923F9259
:102510004F925F926F927F928F929F92AF92BF92F3
:10252000CF92DF92EF92FF920F931F93CF93DF939F
:10253000CDB7DEB76C970FB6F894DEBF0FBECDBF38
:102540008C011B01DC0114968C9114978F778630D7
:1025500009F499C268F58230A0F11296ED90FC90D2
:102560001397CC901196DC90843008F05DC2A701DF
:10257000B601C1010E94D505F101828193816C965B
:102580000FB6F894DEBF0FBECDBFDF91CF911F9184
:102590000F91FF90EF90DF90CF90BF90AF909F9002
:1025A0008F907F906F905F904F903F902F90089505
:1025B0008C3069F160F4883009F460C28A3009F423
:1025C00046C26CE572E0C1010E945C12ECC180322F
:1025D00009F4F3C18034A9F76BE5C1010E94AE058F
:1025E000F801008111810115110509F4E1C1B10162
:1025F000C8010E948612C8010E94DC0A8C01892B46
:1026000009F4D6C16CE2C1010E94AE05ECCFF8011D
:10261000C080D180E280F380A7019601C701B60196
:102620000E94B6228111CDCF20E030E0A901C70180
:10263000B6010E94B622882379F0A7019601C7014E
:10264000B6010E9436249B01AC01C701B6010E946D
:10265000B622882309F4B5CF20E030E0A901C701F4
:10266000B6010E94B62287FF08C06DE2C1010E9438
:10267000AE05F7FAF094F7F8F09420E836E948E16F
:102680005BE4C701B6010E94D82487FD88C074E1CD
:10269000A72EB12C00E210E0188E1F8AF501EC5332
:1026A000FF4F6591759185919491A70196010E94C4
:1026B000B62218169CF0F501E455FF4F259135918F
:1026C00045915491C701B6010E941C236B017C0106
:1026D0002F89388D200F311F388F2F8B1595079537
:1026E00034E0A31AB1088CEFA8168FEFB806B1F644
:1026F00055245A9420E030E0A901C701B6010E9498
:10270000D82418160CF052C02CEA35EC47E257E3F7
:10271000C701B6010E94B62218160CF447C0A52DB9
:10272000B4E0AB02C0011124B12CA12CFC01E45592
:10273000FF4F3F019C012C533F4F49013FEF531680
:1027400009F434C0F301EA0DFB1D65917591859183
:10275000949120E030E040E251E40E941C23A70164
:1027600096010E94D82418169CF4F401EA0DFB1D72
:102770002591359145915491C701B6010E941C23C2
:102780006B017C018F89988D801B910B988F8F8BAB
:10279000159507955A9494E0A91AB108CFCF00E295
:1027A00010E055E0552E188E1F8AA4CFC701B60140
:1027B0000E94A9244B015C012B013C0106E080E44E
:1027C00092E4AFE0B0E0898F9A8FAB8FBC8F102F6F
:1027D00001509AE04916510461047104C8F0698DF2
:1027E0007A8D8B8D9C8D2AE030E040E050E00E9495
:1027F0000424298F3A8F4B8F5C8FC301B2012AE0EA
:1028000030E040E050E00E94042429013A01DFCF8B
:10281000C501B4010E94BB229B01AC01C701B601F6
:102820000E9435246B017C01698D7A8D8B8D9C8D86
:102830000E94BB229B01AC01C701B6010E941C2370
:102840002B013C010E94A9246B017C010E94BB2248
:102850009B01AC01C301B2010E9435249B01AC0174
:102860000E9436240E94A924C60ED71EE81EF91E17
:10287000898D9A8DAB8DBC8DC816D906EA06FB06EC
:10288000D8F09FEF891A990AA90AB90AAF89B88DB9
:10289000AB2B39F1BAE08B169104A104B10408F115
:1028A000EF89F88D3196F88FEF8BC12CD12C760102
:1028B000812C912C540183942AE0422E512C612CBE
:1028C000712CC701B601A30192010E940424672B59
:1028D000682B692B51F4111644F469017A011150E7
:1028E000F0CFC12CD12C7601E7CFB501A401C101F5
:1028F0000E94EA05112371F14E01F1E18F0E911C46
:10290000012F54019AE0492E512C612C712C015059
:1029100068F0C701B601A30192010E940424605D22
:10292000D4016E934D0169017A01F1CF812F90E0BE
:10293000BC0160957095F501E81BF90B31978EE2AB
:10294000808344275527461B570B6A0D7B1DC10109
:102950000E94D505EF89F88DEF2B29F165E6C101BD
:102960000E94AE050F89188D17FF07C06DE2C101E7
:102970000E94AE05119501951109FE0177969F0100
:102980008AE0E82EF12CC801B7010E94DD24805DA9
:1029900082938B01672BB9F7A9014E1B5F0BBF0117
:1029A000C1010E94D505D10112968D919C91E7CD70
:1029B0006DE5C1010E94AE05F6CF6BE7C1010E9433
:1029C000AE05F801008111810115110559F1D801F9
:1029D0001696CC9016971796DC9062E2C1010E9481
:1029E000AE057601F70161917F01662321F0C101F7
:1029F0000E946612F7CF62E2C1010E94AE056AE34F
:102A0000C1010E94AE05B101C8010E948612C80131
:102A10000E94DC0A8C01892B29F06CE2C1010E9422
:102A2000AE05D2CF6DE7C5CF62E2C1010E94AE050F
:102A30008601E00EF11EE016F10639F0F801619111
:102A40008F01C1010E946612F6CF62E2B2CFCD9033
:102A5000DD90ED90FC90B701A601F7FE0BC06DE292
:102A6000C1010E94AE0544275527BA014C195D09E2
:102A70006E097F09C1010E94EA057ECD4D915D91ED
:102A80006D917C91F7CF8C9169EB71E0811102C05F
:102A90006EEB71E0C1010E945C126ECDCF92DF92AD
:102AA000EF92FF92CF93DF9300D0CDB7DEB7809146
:102AB000280890912908BE016F5F7F4F0097A9F504
:102AC000CB018C5298409A838983072E000C880B87
:102AD000990B40E10E942D0BC980DA8088E692E0D4
:102AE0000E94750B0D2C000CEE08FF084AE0C70190
:102AF000B601F7FE0DC06DE288E894E00E94EC0399
:102B000066277727CB016C197D098E099F094AE05A
:102B10000E942D0B0E94710B0F900F90DF91CF91AF
:102B2000FF90EF90DF90CF900895681B790B685D60
:102B3000774F7A836983D0CF0E94F7241F93CF9376
:102B4000DF9385ED8093BC008091F7039091F803AB
:102B5000A091F903B091FA030796A11DB11D23E0DE
:102B6000B695A795979587952A95D1F72091BC00A2
:102B700024FD03C010923F0452C04091F7035091CE
:102B8000F8036091F9037091FA03452B462B472B0C
:102B900069F30097A105B10541F02AE22A95F1F702
:102BA00000C00197A109B109E1CF8091F603C1E00E
:102BB000C093F503882399F1D091B8001091BA0021
:102BC0008091BC008A7B8093BC0060E082E00E9420
:102BD0007B0160E083E00E947B0110923F04C09380
:102BE00041041092400461E082E00E947B0161E0B8
:102BF00083E00E947B018091B9008E7F8093B900B1
:102C00008091B9008D7F8093B90088E48093B800EB
:102C100085E48093BC001093BA00D093B800DF9194
:102C2000CF911F910895DC0199E0FB0101900D9275
:102C30009A95E1F70895FC0199E0DB0101900D926E
:102C40009A95E1F70895DC0198E0FB0101900D925F
:102C50009A95E1F70895FC0198E0DB0101900D924F
:102C60009A95E1F70895DC019DE0FB0101900D923A
:102C70009A95E1F70895FC019DE0DB0101900D922A
:102C80009A95E1F70895DC0191E2FB0101900D9224
:102C90009A95E1F70895FC0191E2DB0101900D9214
:102CA0009A95E1F70895DC0197E0FB0101900D9200
:102CB0009A95E1F70895FC0197E0DB0101900D92F0
:102CC0009A95E1F70895DC019AE0FB0101900D92DD
:102CD0009A95E1F70895FC019AE0DB0101900D92CD
:102CE0009A95E1F70895DF92EF92FF920F931F9369
:102CF000CF93DF9300D000D000D0CDB7DEB78C01EA
:102D00007B010E94420FD82E882309F4A9C06AEEE5
:102D100071E0D7018D919C910E94380F0E940A0AA0
:102D2000F80164877587868797876FE072E0D7011F
:102D30008D919C910E94380F0E940A0AF801648BC1
:102D4000758B868B978B6BE172E0D7018D919C918F
:102D50000E94380F0E940A0AF801608F718F828FDB
:102D6000938F66E272E0D7018D919C910E94380F9B
:102D70000E940A0AF801638766E772E0D7018D9125
:102D80009C910E94380F009709F479C00E949B091A
:102D9000F801A581B681ED91FD91309719F09281EE
:102DA0008913F9CFD8015E96FC93EE935D976FE798
:102DB00072E0F701808191810E94380F009709F439
:102DC00060C00E949B09F801A581B681ED91FD913B
:102DD000309719F092818913F9CFD8019096FC931E
:102DE000EE935F9766E272E0F701808191810E9425
:102DF000380F0E940A0A6BE872E0D7018D919C910E
:102E00000E94380FF12CE12C009731F00E946F05E1
:102E100029833A83E980FA8060E972E0C7010E9461
:102E2000FC24892B19F0F8011286118665E972E0FD
:102E3000C7010E94FC24892B39F081E090E0D80181
:102E40001A969C938E9319976BE972E0C7010E94C2
:102E5000FC24892B29F082E090E0F8019287818799
:102E60008D2D26960FB6F894DEBF0FBECDBFDF9135
:102E7000CF911F910F91FF90EF90DF90089580E028
:102E800087CF80E0A0CFFB0101900020E9F73197C8
:102E9000AF01461B570B0E94052521E0892B09F045
:102EA00020E0822F08951F920F920FB60F921124E7
:102EB0002F933F938F939F93AF93BF93809172040F
:102EC00090917304A0917404B091750430917104D1
:102ED00023E0230F2D3758F50196A11DB11D209336
:102EE00071048093720490937304A0937404B0935C
:102EF00075048091760490917704A0917804B09144
:102F000079040196A11DB11D8093760490937704F6
:102F1000A0937804B0937904BF91AF919F918F9162
:102F20003F912F910F900FBE0F901F90189526E89C
:102F3000230F0296A11DB11DD2CF1F920F920FB683
:102F40000F9211248F939F938091E1009091E10063
:102F5000937F9093E10083FF0FC01092E90091E00E
:102F60009093EB001092EC0092E39093ED0010929E
:102F7000870498E09093F00082FF22C093E0909342
:102F8000E9009091F200992319F09AE39093E800F8
:102F900090916A04992341F090916A049150909322
:102FA0006A04911101C05D9A90918604992341F0C1
:102FB00090918604915090938604911101C0289AB3
:102FC00084FF18C08091E2008E7E81608093E200D1
:102FD0008091E1008F7E8093E10080916B048E7E72
:102FE000806180936B049F918F910F900FBE0F9023
:102FF0001F90189580FFF7CF8091E2008E7E806150
:103000008093E2008091E1008E7E8093E1008091C8
:103010006B048E7E8160E5CF1F920F920FB60F92E8
:103020001124CF92DF92EF92FF920F931F932F9371
:103030003F934F935F936F937F938F939F93AF9340
:10304000BF93EF93FF93CF93DF93CDB7DEB76C972A
:10305000DEBFCDBF1092E9008091E80083FF25C05C
:1030600068E0CE0145960E941E0382EF8093E8003F
:103070008D8987FF39C09091E80090FFFCCF982F91
:10308000907609F034C19E894F89588D2F89F88C2C
:10309000911131C0803861F580916C048093F1000A
:1030A0001092F1008EEF8093E8006C960FB6F894C2
:1030B000DEBF0FBECDBFDF91CF91FF91EF91BF91EA
:1030C000AF919F918F917F916F915F914F913F91C0
:1030D0002F911F910F91FF90EF90DF90CF900F9065
:1030E0000FBE0F901F9018959EEF9093E800C7CFEA
:1030F0001092F100D5CF913059F48111D3CF4130E6
:10310000510581F680916C048D7F80936C04CACF49
:10311000933049F48111C6CF4130510519F68091A1
:103120006C048260F2CF953041F48091E80080FF1A
:10313000FCCF20682093E300B5CF963009F0A9C0FA
:103140000B8D1C8D22E01092E90010926804109201
:103150006704F2122EC010926604109265040E9459
:10316000ED021F8299E09983FA8291E09E8390EAB2
:1031700098879AEF99872091670430916804275FB8
:103180003F4F3C832B838D831092E900109268049B
:1031900010926704109366040093650449E050E0C0
:1031A000BE016F5F7F4F80E00E94C7020E94ED0268
:1031B00079CF10936604009365040E946701DC01D7
:1031C00012960D911C910115110509F451C1D801F8
:1031D000ED91FC910480F581E02DBE016B5E7F4F87
:1031E000C8010995009709F03EC1F80100851185D5
:1031F000EACFF3E0FF120EC08F89882309F440C0A4
:10320000823061F440E860E18EE491E00E949E1B10
:10321000811148CF81E28093EB0047CF813029F4C0
:1032200040E86BE082E491E0F1CF833099F70E94AF
:103230006701DC011296ED90FC908E010F5F1F4F2D
:103240006801E114F10479F0D701ED91FC91068059
:10325000F781E02DB801C7010995080F111DF7018D
:10326000E084F184EECFD8011C92F6010190002099
:10327000E9F73197BF016C197D0940E0C601C6CF5F
:103280006CE271E0FB01449150E080E80E94C702CB
:1032900009CF973009F4BECF983021F481E08093B4
:1032A000F10000CF993009F0FDCE837009F0B2CF64
:1032B000E7E3F1E081E031E096E32191222371F030
:1032C0008093E9003093EB00DF0111972C9120935C
:1032D000EC009093ED008F5F873079F78EE7809355
:1032E000EA001092EA008F8980938704DBCE8B8DF1
:1032F0009C8D1092E90010926804109267049093DC
:10330000660480936504898D811192C08E899D89A0
:10331000913A49F4813209F07DCF47E050E064E012
:1033200071E080E0B3CF913209F074CF833269F459
:103330008F89988DB0E0A0E0809300019093010107
:10334000A0930201B0930301ADCE803269F4809165
:10335000E80082FFFCCF67E084E091E00E941E035A
:103360008BEF8093E8009ECE823209F09BCE8F894E
:1033700080930B01EEEFFFE7859194918B3F9C4D7D
:1033800051F1E0E0F8E08091040190910501A091F5
:103390000601B0910701803B9440A105B105F1F40D
:1033A00080910B0180FD1AC0EE3F8AE0F80789F595
:1033B00087E797E791838083809160008093690419
:1033C00088E19BE00FB6F894A895809360000FBE4B
:1033D0009093600067CEEEEFFAE0D5CF80819181C7
:1033E0008737974709F05ECEA89580916000886185
:1033F000809360008091690480936000EE3F2AE032
:10340000F20789F08091FE0A9091FF0A91838083F0
:1034100049CE808191818737980751F29093FF0AB6
:103420008093FE0AC5CF1092FF0A1092FE0A3ACE90
:103430000E946701DC0112960D911C910115110586
:1034400009F4E8CED801ED91FC910190F081E02DD6
:10345000BE016B5E7F4FC8010995811123CEF80133
:1034600000851185EBCF181619060CF41BCED2CEB1
:10347000F1E0FF12BECE60E371E004CF1F920F9225
:103480000FB60F9211242F933F934F935F936F9337
:103490007F938F939F93AF93BF93EF93FF9380910D
:1034A000B900887F803609F44AC0F0F5883209F403
:1034B000A5C018F5803109F499C0B8F4882309F43F
:1034C000F5C0883009F492C0FF91EF91BF91AF91A0
:1034D0009F918F917F916F915F914F913F912F912C
:1034E0000F900FBE0F901F901895883109F486C079
:1034F000803251F780933E0414C0803409F49BC09D
:1035000040F48033B9F38833F9F680933E0485ECB8
:10351000AEC0803509F483C0883509F494C088347E
:1035200099F60E949E15D0CF883909F48AC038F5E3
:10353000883729F050F4883611F0803729F683E077
:1035400080933F0410923D0455C0883809F479C037
:10355000803919F0803809F0B7CF80913D0480326E
:1035600008F06FC0E0913D0481E08E0F80933D0430
:103570008091BB00F0E0E35EFB4F80833BC0803B6B
:1035800039F0D0F4803A09F477C0883A09F09CCF3A
:1035900084E080933F0410921C0410921B04F0E01E
:1035A000E0E0099580911B0481110FC081E08093B8
:1035B0001B041092FB0309C0803C09F4A8CF883C8F
:1035C00009F4A5CF883B09F07FCFE0911C0481E08E
:1035D0008E0F80931C04F0E0E550FC4F80818093B7
:1035E000BB0090911C0480911B0429C0809164044D
:1035F0008093BB0085EC8093BC0066CF9091630400
:1036000080916204981758F5E091630481E08E0F71
:1036100080936304F0E0EE5BFB4F8081E9CFE091A3
:10362000630481E08E0F809363048091BB00F0E01F
:10363000EE5BFB4F80839091630480916204981746
:10364000C8F285E8D8CFE091630481E08E0F8093C3
:1036500063048091BB00F0E0EE5BFB4F80838091C0
:10366000410481115ECF81E08093400484EA80931D
:10367000BC0010923F0428CF85EC8093BC001092D0
:103680003F0480913D04803230F4E0913D04F0E04D
:10369000E35EFB4F108260913D0470E08DE194E0A9
:1036A000F0E0E0E0099510923D040ECF10923E0448
:1036B00038CFCF92DF92EF92FF920F931F93E82FB4
:1036C000F92F05C0015011092109310961F19081DB
:1036D00096239417B9F305C0015011092109310946
:1036E00011F1908196239413F7CFC12CD12CE12CAA
:1036F000F12C0AC08FEFC81AD80AE80AF80A0C158C
:103700001D052E053F0579F080818623841791F3EE
:103710006C2D7D2D8E2D9F2D1F910F91FF90EF9081
:10372000DF90CF90089560E070E080E090E01F911E
:103730000F91FF90EF90DF90CF900895EF92FF925E
:103740000F931F93CF93DF93F82E192FE62E042F9C
:1037500081E0860F880F0E94990283E00E949902FF
:10376000CF2DD12FEC0EFD2EF11CCE15DF05B9F0BB
:1037700007FF13C0FE0184910E949902182F80E078
:103780000E949902812321968111EFCFDF91CF9181
:103790001F910F91FF90EF9008958881EDCF81E008
:1037A000F5CFFC0187810E941D0297FD0396959538
:1037B000879595958795682F70E090E080E00E944E
:1037C000BB22089505970C94D11BCF93DF93EC0196
:1037D0008F810E941D029C01990F440B550B2855A7
:1037E000324041095109A4E6B0E00E94F92320E1EA
:1037F0003FEF4FEF5FEF0E94DA233987288764E1BC
:1038000070E080E090E00E9466026885798577FF2D
:1038100002C070E060E079876887072E000C880B93
:10382000990B0E94BD22DF91CF91089505970C94CA
:10383000E51BCF92DF92EF92FF920F931F93CF93EE
:10384000DF93EC0160E088850E947B0183E090E0DB
:103850000197F1F761E088850E947B0183E290E0A7
:103860000197F1F760E088850E947B018F8190E0ED
:10387000FC01EA55FE4F6491FC01E957FE4FE491CB
:10388000F0E0EE0FFF1FE452FF4F8591949100E4AA
:1038900012E42FE030E0462F0E94591B611571059C
:1038A0008105910529F06F5F7F4F8F4F9F4F9F706C
:1038B0000E94BD2226E933E44BE05DE30E941C2315
:1038C00020E030E040E05FE30E941C230E94A92436
:1038D000CB84DC84E985FA8590E080E0CE16DF06B3
:1038E00011F1F12CE12C9B01AC012C193D094E0981
:1038F0005F09A4E6B0E00E94F9239F0150E040E098
:103900002C193D094E095F090E94DA23CA01B90149
:103910000E94BD22DF91CF911F910F91FF90EF90F8
:10392000DF90CF9008950E94BB22F4CF05970C94AE
:10393000191CE8E8F4E01382128288EE93E0A0E01C
:10394000B0E084839583A683B78387E991E0918370
:1039500080838FEF9FEF95878487E2E0F8E0809186
:103960002608909127089183808380910008909188
:103970000108938382838091FE079091FF079583CE
:1039800084838091FC079091FD07978386838091C3
:10399000FA079091FB07918780878091F8079091B3
:1039A000F907938782878091F6079091F7079587AB
:1039B00084878091F4079091F50797878687809197
:1039C000F2079091F307918B808B8091F007909193
:1039D000F107938B828B8091EE079091EF07958B87
:1039E000848B8091EC079091ED07978B868B80916B
:1039F000EA079091EB07918F808F8091E807909173
:103A0000E907938F828F8091E6079091E707958F62
:103A1000848FE8EDF4E086EE94E0918380839383D5
:103A2000828386EE97E095838483978386831086CE
:103A300015860895CF93DF93CDB7DEB7CA5AD10963
:103A40000FB6F894DEBF0FBECDBF789484B5826008
:103A500084BD84B5816084BD85B5826085BD85B532
:103A6000816085BD80916E00816080936E001092B0
:103A7000810080918100826080938100809181002B
:103A800081608093810080918000816080938000BC
:103A9000809191008260809391008091910081607B
:103AA000809391008091900081608093900080913C
:103AB000C10084608093C1008091C10082608093C6
:103AC000C1008091C10081608093C1008091C300DA
:103AD00081608093C3008091C00082608093C000A9
:103AE0008091C20081608093C20080917A008460DE
:103AF00080937A0080917A00826080937A0080912E
:103B00007A00816080937A0080917A008068809347
:103B10007A001092870410926C0410926B048091CA
:103B2000D70081608093D70080EA8093D80089B560
:103B3000806189BD89B5826089BD09B400FEFDCF71
:103B400061E070E080E090E00E9466028091D80021
:103B50008F7C80618093D8008091E000807F80938B
:103B6000E0008091E1008E7E8093E1008DE0809303
:103B7000E200559A209A8FEF9FEF909395048093DF
:103B8000940488E894E00E945304892BD1F764EFF1
:103B900071E080E090E00E9466020E944E1564EFA2
:103BA00071E080E090E00E94660268EE73E080E0E1
:103BB00090E00E94660282EA92E00E947C0B0E94E2
:103BC0004E158AE090E00E9491218C0121EB32E0B9
:103BD00042E161E00E94A60B10932708009326089B
:103BE0008AE090E00E9491218C012AEB32E043E1CF
:103BF00062E00E94A60B10930108009300088AE07F
:103C000090E00E9491218C0123EC32E044E163E0DA
:103C10000E94A60B1093FF070093FE078AE090E036
:103C20000E9491218C012CEC32E045E164E00E947D
:103C3000A60B1093FD070093FC0760ED77E080E092
:103C400090E00E94660285ED92E00E947C0B0E944B
:103C50004E158DE090E00E9491218C0140EE52E0E3
:103C600065E00E94880B81E491E0D80111969C9355
:103C70008E9381E591E016969C938E93159783E041
:103C800017968C93179782E018968C9318971C962A
:103C90001C921E921B971A961C921E9219971093B3
:103CA000F3070093F20787E090E00E9491218C01D6
:103CB00045EE52E066E00E94880B87E591E0F8014E
:103CC0009183808384E0858361E00E94EC01D801C8
:103CD00016961C921093F1070093F00788E090E08D
:103CE0000E9491218C014AEE52E067E00E94880B0D
:103CF00085E691E0F8019183808385E791E09683E2
:103D0000858386E187831093EF070093EE0760EDCC
:103D100077E080E090E00E9466028FEE92E00E94E1
:103D20007C0B0E944E1589E090E00E9491218C014D
:103D3000E090F007F090F1074BEF52E069E00E944D
:103D4000880BFBE7CF2EF1E0DF2ED8011196DC9235
:103D5000CE9286E015968C9315971896FC92EE926B
:103D6000179761E00E94EC011093FB070093FA079C
:103D700089E090E00E9491218C0142E053E06AE0EA
:103D80000E94880BF801D182C08288E08583F0868A
:103D9000E78261E00E94EC011093F9070093F807B5
:103DA00089E090E00E9491218C0149E053E06BE0B2
:103DB0000E94880BD8011196DC92CE9289E015966C
:103DC0008C9315971896FC92EE92179761E00E94DB
:103DD000EC011093F7070093F60789E090E00E944A
:103DE00091218C0140E153E06CE00E94880BF801C6
:103DF000D182C0828AE08583F086E78261E00E94FA
:103E0000EC011093F5070093F40760ED77E080E094
:103E100090E00E94660287E193E00E947C0B0E9482
:103E20004E1581E290E00E9491215C01E09026080D
:103E3000F09027080091FA071091FB0745E253E044
:103E400064E10E94880BA9E86A2EA1E07A2ED501D0
:103E500011967C926E9284E1982E1B969C929AE524
:103E6000292E312C412C512CF5012486358646868D
:103E70005786168F058FF0A2E78EB092ED07A092BD
:103E8000EC0781E290E00E9491216C01E090000833
:103E9000F09001080091F8071091F9074EE253E005
:103EA00065E10E94880BD60111967C926E921B965A
:103EB0009C92F6012486358646865786168F058F96
:103EC000F0A2E78ED092EB07C092EA0781E290E081
:103ED0000E9491217C014091FE075091FF07C95536
:103EE000DF4F59834883C75AD0400091F60710919D
:103EF000F70747E353E066E10E94880BD70111966C
:103F00007C926E921B969C92F7012486358646869B
:103F10005786168F058FC955DF4F48815981C75A7B
:103F2000D04050A3478FF092E907E092E80781E282
:103F300090E00E9491218C018091FC079091FD07F7
:103F4000C955DF4F99838883C75AD040A091F407A1
:103F5000B091F507C755DF4FB983A883C95AD04040
:103F600040E453E067E1C8010E94880BF8017182C8
:103F700060829386D8012486358646865786C75543
:103F8000DF4FE881F981C95AD0405E96FC93EE93E9
:103F90005D97C955DF4F48815981C75AD0409096E7
:103FA0005C934E935F971093E7070093E60782E0D8
:103FB00098E0D50116969C938E931597F6019683FB
:103FC0008583D70116969C938E931597F801968357
:103FD000858389E493E00E947C0B0E944E1560E08B
:103FE0008CE00E94EC0185E593E00E947C0B82E668
:103FF00093E00E947C0B8E010F5F1F4F7E01F5E660
:10400000EF0EF11C68EDA62E64E0B62E74E6872E46
:10401000E0E02E2EE0E03E2E40906D0450906E04C5
:1040200060906F04709070044FEF441A540A640A51
:10403000740A40926D0450926E0460926F04709204
:104040007004C301B20120E23EE440E050E00E946F
:104050000424672B682B692B79F487E793E00E948F
:10406000750B4AE0C301B2010E942D0B0E94710B37
:1040700082E893E00E947C0B88E894E00E9453045D
:10408000892B09F472C00E941D010E941D01C156B6
:10409000DF4FB982A882CF59D04088E0FE01E156B7
:1040A000FF4FDE01A956BF4F01900D928A95E1F7AF
:1040B00088E0FE01E956FF4FD80101900D928A95E4
:1040C000E1F7198688E894E09B878A871D86BF867A
:1040D000AE864AE061EE74E0C8010E948F0D009741
:1040E00009F041C08C85882309F410C18091E50452
:1040F00083FF0CC1F801482D11924A95E9F7680138
:1041000088E894E00E942B0397FD06C0D6018D93AA
:104110006D01AE15BF05A1F7F80101900020E9F788
:104120003197E01BCD57DF4F19830883C358D04028
:10413000CE01029621E0DD24D3942E17D0F5DC01C8
:104140003D91CD01303269F4AD2DB0E0AA0FBB1F17
:1041500043E850E04C0F5D1FA40FB51F8D939C9357
:10416000D3942F5FEACF039729F22114310409F485
:1041700053CF0E94000046CF81EE94E09A8389835A
:10418000BC82AB82D12CED2DF0E0EE0FFF1FEE5F75
:10419000F74F80819181009741F3DC01ED91FC9113
:1041A0000480F581E02DB80109958111DECFD3940B
:1041B000EACF6BE873E0CD57DF4F88819981C35810
:1041C000D0400E944317882381F2DD2009F491C07A
:1041D000CB57DF4FC880C558D040CA57DF4FD88073
:1041E000C658D0406FE873E0C6010E944317882389
:1041F000F9F083E993E00E94750B88EA93E00E944E
:104200007C0B0E941D0132E0C32E38E0D32ED60174
:104210008D919D916D01009709F45CC0DC01ED91D9
:10422000FC910280F381E02D68ED74E00995EFCFF9
:1042300060EF71E0C6010E944317F601912C9AE0ED
:10424000882321F0C7010E947C0B8FCF819120ED44
:10425000280F2A3038F4999E800D112420ED922EDB
:10426000980EF4CF89EB93E00E94750B492C512CEA
:10427000712C612C4AE0C301B2010E942D0B0E94F7
:10428000710BE2E0F8E0C190D190C114D104A1F12A
:10429000D60112968C919812F6CFD601ED91FC9131
:1042A0000190F081E02DC6010995009739F0DC01FD
:1042B000ED91FC910190F081E02D09950E941D0186
:1042C000D601ED91FC910280F381E02D68ED74E060
:1042D000C601099588E894E0F701918380831382F1
:1042E0001282B70181EE94E00E9486120E94710B47
:1042F0003CCF88EC93E0A7CF88ED93E00E94750B4C
:104300004AE0C301B2010E942D0BC7CF85EE93E0B6
:104310000E94750B8091E50485FD2ECF90E080E032
:104320002DCF0F931F93CF93DF938230910510F41D
:1043300082E090E0E0912A08F0912B0830E020E044
:10434000B0E0A0E0309799F42115310509F44AC096
:10435000281B390B24303105D8F58A819B816115E2
:10436000710589F1FB0193838283FE0111C04081B5
:1043700051810281138148175907E0F04817590706
:1043800099F4109761F012960C93129713961C9360
:104390003296CF01DF91CF911F910F910895009335
:1043A0002A0810932B08F4CF2115310551F042173C
:1043B000530738F0A901DB019A01BD01DF01F801C3
:1043C000C1CFEF01F9CF90932B0880932A08CDCF6E
:1043D000FE01E20FF31F819391932250310939833B
:1043E0002883D7CF2091280830912908232B41F426
:1043F00020910E0130910F01309329082093280855
:1044000020910C0130910D012115310541F42DB79A
:104410003EB74091100150911101241B350BE091E2
:104420002808F0912908E217F307A0F42E1B3F0B90
:104430002817390778F0AC014E5F5F4F2417350716
:1044400048F04E0F5F1F509329084093280881932E
:1044500091939FCFF0E0E0E09CCFCF93DF93009764
:10446000E9F0FC01329713821282A0912A08B091E0
:104470002B08ED0130E020E01097A1F4208131817C
:10448000820F931F20912808309129082817390797
:1044900009F061C0F0932908E0932808DF91CF91DB
:1044A0000895EA01CE17DF07E8F54A815B819E0196
:1044B00041155105B1F7E901FB83EA83499159910F
:1044C000C40FD51FEC17FD0761F48081918102961E
:1044D000840F951FE90199838883828193819B834F
:1044E0008A83F0E0E0E012968D919C9113970097FB
:1044F000B9F52D913C911197CD010296820F931F32
:1045000020912808309129082817390739F6309763
:1045100051F510922B0810922A08B0932908A09305
:104520002808BCCFD383C28340815181840F951F5B
:10453000C817D90761F44E5F5F4F88819981480F92
:10454000591F518340838A819B81938382832115E4
:10455000310509F0B0CFF0932B08E0932A089ECFE5
:10456000FD01DC01C0CF13821282D7CF0E94F82256
:1045700008F481E00895E89409C097FB3EF4909513
:104580008095709561957F4F8F4F9F4F9923A9F02C
:10459000F92F96E9BB279395F695879577956795BB
:1045A000B795F111F8CFFAF4BB0F11F460FF1BC0FF
:1045B0006F5F7F4F8F4F9F4F16C0882311F096E992
:1045C00011C0772321F09EE8872F762F05C0662340
:1045D00071F096E8862F70E060E02AF09A95660FF9
:1045E000771F881FDAF7880F9695879597F90895B2
:1045F000990F0008550FAA0BE0E8FEEF16161706F4
:10460000E807F907C0F012161306E407F50798F05B
:10461000621B730B840B950B39F40A2661F0232B74
:10462000242B252B21F408950A2609F4A140A695F0
:104630008FEF811D811D08950E942F230C94A023CC
:104640000E94922338F00E94992320F0952311F0C4
:104650000C9489230C948F2311240C94D4230E944E
:10466000B12370F3959FC1F3950F50E0551F629FE2
:10467000F001729FBB27F00DB11D639FAA27F00DBB
:10468000B11DAA1F649F6627B00DA11D661F829FE2
:104690002227B00DA11D621F739FB00DA11D621FC7
:1046A000839FA00D611D221F749F3327A00D611DE4
:1046B000231F849F600D211D822F762F6A2F1124C6
:1046C0009F5750409AF0F1F088234AF0EE0FFF1FF9
:1046D000BB1F661F771F881F91505040A9F79E3F50
:1046E000510580F00C9489230C94D4235F3FE4F3AC
:1046F000983ED4F3869577956795B795F795E795A6
:104700009F5FC1F7FE2B880F911D9695879597F9AE
:10471000089597F99F6780E870E060E008959FEF43
:1047200080EC089500240A94161617061806090648
:10473000089500240A941216130614060506089517
:10474000092E0394000C11F4882352F0BB0F40F49F
:10475000BF2B11F460FF04C06F5F7F4F8F4F9F4FDF
:10476000089557FD9058440F551F59F05F3F71F061
:104770004795880F97FB991F61F09F3F79F08795C8
:104780000895121613061406551FF2CF4695F1DF51
:1047900008C0161617061806991FF1CF86957105E1
:1047A000610508940895E894BB2766277727CB0115
:1047B00097F90895052E97FB1EF400940E94F123AB
:1047C00057FD07D00E94042407FC03D04EF40C943C
:1047D000F12350954095309521953F4F4F4F5F4FB6
:1047E000089590958095709561957F4F8F4F9F4F5D
:1047F00008950E942624A59F900DB49F900DA49F1C
:10480000800D911D11240895A1E21A2EAA1BBB1B35
:10481000FD010DC0AA1FBB1FEE1FFF1FA217B3078C
:10482000E407F50720F0A21BB30BE40BF50B661FA2
:10483000771F881F991F1A9469F760957095809566
:1048400090959B01AC01BD01CF010895A29FB001DD
:10485000B39FC001A39F700D811D1124911DB29FB4
:10486000700D811D1124911D08955058BB27AA2752
:104870000E944D240C94A0230E94922338F00E94A1
:10488000992320F039F49F3F19F426F40C948F23D8
:104890000EF4E095E7FB0C948923E92F0E94B123E5
:1048A00058F3BA17620773078407950720F079F465
:1048B000A6F50C94D3230EF4E0950B2EBA2FA02D61
:1048C0000B01B90190010C01CA01A0011124FF27BD
:1048D000591B99F0593F50F4503E68F11A16F040B8
:1048E000A22F232F342F4427585FF3CF46953795B7
:1048F0002795A795F0405395C9F77EF41F16BA0B7C
:10490000620B730B840BBAF09150A1F0FF0FBB1F29
:10491000661F771F881FC2F70EC0BA0F621F731F72
:10492000841F48F4879577956795B795F7959E3FCF
:1049300008F0B0CF9395880F08F09927EE0F979560
:10494000879508950E94A9246894B1110C94D423EA
:1049500008950E94B92388F09F5798F0B92F99279E
:10496000B751B0F0E1F0660F771F881F991F1AF05A
:10497000BA95C9F714C0B13091F00E94D323B1E0C9
:1049800008950C94D323672F782F8827B85F39F0C8
:10499000B93FCCF3869577956795B395D9F73EF4F3
:1049A00090958095709561957F4F8F4F9F4F08959B
:1049B0000E94F82208F48FEF0895AA1BBB1B51E157
:1049C00007C0AA1FBB1FA617B70710F0A61BB70B7F
:1049D000881F991F5A95A9F780959095BC01CD0124
:1049E0000895EE0FFF1F0590F491E02D099481E0EA
:1049F00090E0F8940C941325FB01DC018D9101905B
:104A000080190110D9F3990B0895FB01DC01415085
:104A1000504030F08D910190801919F40020B9F7C1
:0A4A2000881B990B0895F894FFCF4E
:104A2A00FFFFFFFF00E100000000000000002C086B
:104A3A00800000000000D5060810420F9C159C1546
:104A4A0000000000AC052A12420F6B166316E51B24
:104A5A00FBFF0000161C00C180810000000000005E
:104A6A0000C304DB10B90F3B163316191CFBFF00F9
:104A7A0000961C00000000D5060112AA055B165319
:104A8A001600000000C104A510420F2B162316D1F0
:104A9A001BFBFF0000E21B00000000D5067A104253
:104AAA000F1B16131600000000D5061B1173164BB8
:104ABA0016431600000000EC0367030D04020453BA
:104ACA000411042F042F2F22225C5C6208660C6EEC
:104ADA000A720D7409000D0A007472756500666128
:104AEA006C736500646973745F66756C6C006469E5
:104AFA0073745F656D707479006E616D65006E61C7
:104B0A006D653A0076616C75650077617465725FF0
:104B1A0074696D650077617465725F756E74696C2E
:104B2A000077617465725F77617465726564007796
:104B3A00617465725F73746172740077617465720F
:104B4A005F6E657874006D696E5F68756D6964691A
:104B5A0074790076616C76650056616C76652069B9
:104B6A0073206E756C6C006D6F6973747572650075
:104B7A006D6F697374757265206973206E756C6CDC
:104B8A00005C75303030300066726565206D656D89
:104B9A006F72793A200076616C76655F6964006DA0
:104BAA006F6973747572655F6964006D6F6465001F
:104BBA006175746F0074696D6564006D616E75610D
:104BCA006C00696E6974204D6F6973747572653A09
:104BDA00006D6F6973745F4130006D6F6973745F44
:104BEA004131006D6F6973745F4132006D6F697393
:104BFA00745F413300696E6974207574696C3A0098
:104C0A0074616E6B0070756D700075765F37006940
:104C1A006E69742076616C76653A0076616C7665A9
:104C2A00300076616C7665310076616C76653200AB
:104C3A0076616C76653300696E69742053656374B6
:104C4A00696F6E3A0073656374696F6E30007365DD
:104C5A006374696F6E310073656374696F6E3200D5
:104C6A0073656374696F6E3300696E697420627567
:104C7A0074746F6E00696E697420444F4E452E2E0F
:104C8A002E006C6F6164696E6720454550524F4D26
:104C9A00207374617465007761746368646F673A3E
:104CAA002000696D20616C69766500676574006132
:104CBA006C6C0067657474696E6720616C6C206542
:104CCA006E7469746965730067657474696E6720C8
:104CDA006E616D65732E2E2E0047657474696720A8
:104CEA00656E7469747920006E65706C61746E7992
:104CFA00207072696B617A004E6F7420666F756EF0
:104D0A006420696400456E74697479207570646101
:044D1A0074650000BC
:00000001FF
